{
	"contracts/3_car.sol": {
		"Car": {
			"abi": [
				{
					"inputs": [
						{
							"internalType": "string",
							"name": "_category",
							"type": "string"
						},
						{
							"internalType": "uint32",
							"name": "_numberOfTyres",
							"type": "uint32"
						}
					],
					"stateMutability": "nonpayable",
					"type": "constructor"
				},
				{
					"inputs": [],
					"name": "description",
					"outputs": [
						{
							"internalType": "string",
							"name": "",
							"type": "string"
						}
					],
					"stateMutability": "pure",
					"type": "function"
				},
				{
					"inputs": [],
					"name": "numberOfTyres",
					"outputs": [
						{
							"internalType": "uint256",
							"name": "",
							"type": "uint256"
						}
					],
					"stateMutability": "view",
					"type": "function"
				}
			],
			"devdoc": {
				"kind": "dev",
				"methods": {},
				"version": 1
			},
			"evm": {
				"assembly": "    /* \"contracts/3_car.sol\":91:408  contract Car is Vehicle{... */\n  mstore(0x40, 0x80)\n    /* \"contracts/3_car.sol\":153:281  constructor (string memory _category , uint32 _numberOfTyres) Vehicle(_category) {... */\n  callvalue\n  dup1\n  iszero\n  tag_1\n  jumpi\n  revert(0x00, 0x00)\ntag_1:\n  pop\n  mload(0x40)\n  sub(codesize, bytecodeSize)\n  dup1\n  bytecodeSize\n  dup4\n  codecopy\n  dup2\n  dup2\n  add\n  0x40\n  mstore\n  dup2\n  add\n  swap1\n  tag_2\n  swap2\n  swap1\n  tag_3\n  jump\t// in\ntag_2:\n    /* \"contracts/3_car.sol\":223:232  _category */\n  dup2\n    /* \"contracts/2_vehicle.sol\":169:178  _category */\n  dup1\n    /* \"contracts/2_vehicle.sol\":158:166  category */\n  0x00\n    /* \"contracts/2_vehicle.sol\":158:178  category = _category */\n  swap1\n  dup2\n  tag_7\n  swap2\n  swap1\n  tag_8\n  jump\t// in\ntag_7:\n  pop\n    /* \"contracts/2_vehicle.sol\":111:185  constructor (string memory _category){... */\n  pop\n    /* \"contracts/3_car.sol\":260:274  _numberOfTyres */\n  dup1\n    /* \"contracts/3_car.sol\":244:274  numberOfTyres = _numberOfTyres */\n  0xffffffff\n  and\n    /* \"contracts/3_car.sol\":244:257  numberOfTyres */\n  0x01\n    /* \"contracts/3_car.sol\":244:274  numberOfTyres = _numberOfTyres */\n  dup2\n  swap1\n  sstore\n  pop\n    /* \"contracts/3_car.sol\":153:281  constructor (string memory _category , uint32 _numberOfTyres) Vehicle(_category) {... */\n  pop\n  pop\n    /* \"contracts/3_car.sol\":91:408  contract Car is Vehicle{... */\n  jump(tag_10)\n    /* \"#utility.yul\":7:82   */\ntag_11:\n    /* \"#utility.yul\":40:46   */\n  0x00\n    /* \"#utility.yul\":73:75   */\n  0x40\n    /* \"#utility.yul\":67:76   */\n  mload\n    /* \"#utility.yul\":57:76   */\n  swap1\n  pop\n    /* \"#utility.yul\":7:82   */\n  swap1\n  jump\t// out\n    /* \"#utility.yul\":88:205   */\ntag_12:\n    /* \"#utility.yul\":197:198   */\n  0x00\n    /* \"#utility.yul\":194:195   */\n  0x00\n    /* \"#utility.yul\":187:199   */\n  revert\n    /* \"#utility.yul\":211:328   */\ntag_13:\n    /* \"#utility.yul\":320:321   */\n  0x00\n    /* \"#utility.yul\":317:318   */\n  0x00\n    /* \"#utility.yul\":310:322   */\n  revert\n    /* \"#utility.yul\":334:451   */\ntag_14:\n    /* \"#utility.yul\":443:444   */\n  0x00\n    /* \"#utility.yul\":440:441   */\n  0x00\n    /* \"#utility.yul\":433:445   */\n  revert\n    /* \"#utility.yul\":457:574   */\ntag_15:\n    /* \"#utility.yul\":566:567   */\n  0x00\n    /* \"#utility.yul\":563:564   */\n  0x00\n    /* \"#utility.yul\":556:568   */\n  revert\n    /* \"#utility.yul\":580:682   */\ntag_16:\n    /* \"#utility.yul\":621:627   */\n  0x00\n    /* \"#utility.yul\":672:674   */\n  0x1f\n    /* \"#utility.yul\":668:675   */\n  not\n    /* \"#utility.yul\":663:665   */\n  0x1f\n    /* \"#utility.yul\":656:661   */\n  dup4\n    /* \"#utility.yul\":652:666   */\n  add\n    /* \"#utility.yul\":648:676   */\n  and\n    /* \"#utility.yul\":638:676   */\n  swap1\n  pop\n    /* \"#utility.yul\":580:682   */\n  swap2\n  swap1\n  pop\n  jump\t// out\n    /* \"#utility.yul\":688:868   */\ntag_17:\n    /* \"#utility.yul\":736:813   */\n  0x4e487b7100000000000000000000000000000000000000000000000000000000\n    /* \"#utility.yul\":733:734   */\n  0x00\n    /* \"#utility.yul\":726:814   */\n  mstore\n    /* \"#utility.yul\":833:837   */\n  0x41\n    /* \"#utility.yul\":830:831   */\n  0x04\n    /* \"#utility.yul\":823:838   */\n  mstore\n    /* \"#utility.yul\":857:861   */\n  0x24\n    /* \"#utility.yul\":854:855   */\n  0x00\n    /* \"#utility.yul\":847:862   */\n  revert\n    /* \"#utility.yul\":874:1155   */\ntag_18:\n    /* \"#utility.yul\":957:984   */\n  tag_55\n    /* \"#utility.yul\":979:983   */\n  dup3\n    /* \"#utility.yul\":957:984   */\n  tag_16\n  jump\t// in\ntag_55:\n    /* \"#utility.yul\":949:955   */\n  dup2\n    /* \"#utility.yul\":945:985   */\n  add\n    /* \"#utility.yul\":1087:1093   */\n  dup2\n    /* \"#utility.yul\":1075:1085   */\n  dup2\n    /* \"#utility.yul\":1072:1094   */\n  lt\n    /* \"#utility.yul\":1051:1069   */\n  0xffffffffffffffff\n    /* \"#utility.yul\":1039:1049   */\n  dup3\n    /* \"#utility.yul\":1036:1070   */\n  gt\n    /* \"#utility.yul\":1033:1095   */\n  or\n    /* \"#utility.yul\":1030:1118   */\n  iszero\n  tag_56\n  jumpi\n    /* \"#utility.yul\":1098:1116   */\n  tag_57\n  tag_17\n  jump\t// in\ntag_57:\n    /* \"#utility.yul\":1030:1118   */\ntag_56:\n    /* \"#utility.yul\":1138:1148   */\n  dup1\n    /* \"#utility.yul\":1134:1136   */\n  0x40\n    /* \"#utility.yul\":1127:1149   */\n  mstore\n    /* \"#utility.yul\":917:1155   */\n  pop\n    /* \"#utility.yul\":874:1155   */\n  pop\n  pop\n  jump\t// out\n    /* \"#utility.yul\":1161:1290   */\ntag_19:\n    /* \"#utility.yul\":1195:1201   */\n  0x00\n    /* \"#utility.yul\":1222:1242   */\n  tag_59\n  tag_11\n  jump\t// in\ntag_59:\n    /* \"#utility.yul\":1212:1242   */\n  swap1\n  pop\n    /* \"#utility.yul\":1251:1284   */\n  tag_60\n    /* \"#utility.yul\":1279:1283   */\n  dup3\n    /* \"#utility.yul\":1271:1277   */\n  dup3\n    /* \"#utility.yul\":1251:1284   */\n  tag_18\n  jump\t// in\ntag_60:\n    /* \"#utility.yul\":1161:1290   */\n  swap2\n  swap1\n  pop\n  jump\t// out\n    /* \"#utility.yul\":1296:1604   */\ntag_20:\n    /* \"#utility.yul\":1358:1362   */\n  0x00\n    /* \"#utility.yul\":1448:1466   */\n  0xffffffffffffffff\n    /* \"#utility.yul\":1440:1446   */\n  dup3\n    /* \"#utility.yul\":1437:1467   */\n  gt\n    /* \"#utility.yul\":1434:1490   */\n  iszero\n  tag_62\n  jumpi\n    /* \"#utility.yul\":1470:1488   */\n  tag_63\n  tag_17\n  jump\t// in\ntag_63:\n    /* \"#utility.yul\":1434:1490   */\ntag_62:\n    /* \"#utility.yul\":1508:1537   */\n  tag_64\n    /* \"#utility.yul\":1530:1536   */\n  dup3\n    /* \"#utility.yul\":1508:1537   */\n  tag_16\n  jump\t// in\ntag_64:\n    /* \"#utility.yul\":1500:1537   */\n  swap1\n  pop\n    /* \"#utility.yul\":1592:1596   */\n  0x20\n    /* \"#utility.yul\":1586:1590   */\n  dup2\n    /* \"#utility.yul\":1582:1597   */\n  add\n    /* \"#utility.yul\":1574:1597   */\n  swap1\n  pop\n    /* \"#utility.yul\":1296:1604   */\n  swap2\n  swap1\n  pop\n  jump\t// out\n    /* \"#utility.yul\":1610:1749   */\ntag_21:\n    /* \"#utility.yul\":1699:1705   */\n  dup3\n    /* \"#utility.yul\":1694:1697   */\n  dup2\n    /* \"#utility.yul\":1689:1692   */\n  dup4\n    /* \"#utility.yul\":1683:1706   */\n  mcopy\n    /* \"#utility.yul\":1740:1741   */\n  0x00\n    /* \"#utility.yul\":1731:1737   */\n  dup4\n    /* \"#utility.yul\":1726:1729   */\n  dup4\n    /* \"#utility.yul\":1722:1738   */\n  add\n    /* \"#utility.yul\":1715:1742   */\n  mstore\n    /* \"#utility.yul\":1610:1749   */\n  pop\n  pop\n  pop\n  jump\t// out\n    /* \"#utility.yul\":1755:2189   */\ntag_22:\n    /* \"#utility.yul\":1844:1849   */\n  0x00\n    /* \"#utility.yul\":1869:1935   */\n  tag_67\n    /* \"#utility.yul\":1885:1934   */\n  tag_68\n    /* \"#utility.yul\":1927:1933   */\n  dup5\n    /* \"#utility.yul\":1885:1934   */\n  tag_20\n  jump\t// in\ntag_68:\n    /* \"#utility.yul\":1869:1935   */\n  tag_19\n  jump\t// in\ntag_67:\n    /* \"#utility.yul\":1860:1935   */\n  swap1\n  pop\n    /* \"#utility.yul\":1958:1964   */\n  dup3\n    /* \"#utility.yul\":1951:1956   */\n  dup2\n    /* \"#utility.yul\":1944:1965   */\n  mstore\n    /* \"#utility.yul\":1996:2000   */\n  0x20\n    /* \"#utility.yul\":1989:1994   */\n  dup2\n    /* \"#utility.yul\":1985:2001   */\n  add\n    /* \"#utility.yul\":2034:2037   */\n  dup5\n    /* \"#utility.yul\":2025:2031   */\n  dup5\n    /* \"#utility.yul\":2020:2023   */\n  dup5\n    /* \"#utility.yul\":2016:2032   */\n  add\n    /* \"#utility.yul\":2013:2038   */\n  gt\n    /* \"#utility.yul\":2010:2122   */\n  iszero\n  tag_69\n  jumpi\n    /* \"#utility.yul\":2041:2120   */\n  tag_70\n  tag_15\n  jump\t// in\ntag_70:\n    /* \"#utility.yul\":2010:2122   */\ntag_69:\n    /* \"#utility.yul\":2131:2183   */\n  tag_71\n    /* \"#utility.yul\":2176:2182   */\n  dup5\n    /* \"#utility.yul\":2171:2174   */\n  dup3\n    /* \"#utility.yul\":2166:2169   */\n  dup6\n    /* \"#utility.yul\":2131:2183   */\n  tag_21\n  jump\t// in\ntag_71:\n    /* \"#utility.yul\":1850:2189   */\n  pop\n    /* \"#utility.yul\":1755:2189   */\n  swap4\n  swap3\n  pop\n  pop\n  pop\n  jump\t// out\n    /* \"#utility.yul\":2209:2564   */\ntag_23:\n    /* \"#utility.yul\":2276:2281   */\n  0x00\n    /* \"#utility.yul\":2325:2328   */\n  dup3\n    /* \"#utility.yul\":2318:2322   */\n  0x1f\n    /* \"#utility.yul\":2310:2316   */\n  dup4\n    /* \"#utility.yul\":2306:2323   */\n  add\n    /* \"#utility.yul\":2302:2329   */\n  slt\n    /* \"#utility.yul\":2292:2414   */\n  tag_73\n  jumpi\n    /* \"#utility.yul\":2333:2412   */\n  tag_74\n  tag_14\n  jump\t// in\ntag_74:\n    /* \"#utility.yul\":2292:2414   */\ntag_73:\n    /* \"#utility.yul\":2443:2449   */\n  dup2\n    /* \"#utility.yul\":2437:2450   */\n  mload\n    /* \"#utility.yul\":2468:2558   */\n  tag_75\n    /* \"#utility.yul\":2554:2557   */\n  dup5\n    /* \"#utility.yul\":2546:2552   */\n  dup3\n    /* \"#utility.yul\":2539:2543   */\n  0x20\n    /* \"#utility.yul\":2531:2537   */\n  dup7\n    /* \"#utility.yul\":2527:2544   */\n  add\n    /* \"#utility.yul\":2468:2558   */\n  tag_22\n  jump\t// in\ntag_75:\n    /* \"#utility.yul\":2459:2558   */\n  swap2\n  pop\n    /* \"#utility.yul\":2282:2564   */\n  pop\n    /* \"#utility.yul\":2209:2564   */\n  swap3\n  swap2\n  pop\n  pop\n  jump\t// out\n    /* \"#utility.yul\":2570:2663   */\ntag_24:\n    /* \"#utility.yul\":2606:2613   */\n  0x00\n    /* \"#utility.yul\":2646:2656   */\n  0xffffffff\n    /* \"#utility.yul\":2639:2644   */\n  dup3\n    /* \"#utility.yul\":2635:2657   */\n  and\n    /* \"#utility.yul\":2624:2657   */\n  swap1\n  pop\n    /* \"#utility.yul\":2570:2663   */\n  swap2\n  swap1\n  pop\n  jump\t// out\n    /* \"#utility.yul\":2669:2789   */\ntag_25:\n    /* \"#utility.yul\":2741:2764   */\n  tag_78\n    /* \"#utility.yul\":2758:2763   */\n  dup2\n    /* \"#utility.yul\":2741:2764   */\n  tag_24\n  jump\t// in\ntag_78:\n    /* \"#utility.yul\":2734:2739   */\n  dup2\n    /* \"#utility.yul\":2731:2765   */\n  eq\n    /* \"#utility.yul\":2721:2783   */\n  tag_79\n  jumpi\n    /* \"#utility.yul\":2779:2780   */\n  0x00\n    /* \"#utility.yul\":2776:2777   */\n  0x00\n    /* \"#utility.yul\":2769:2781   */\n  revert\n    /* \"#utility.yul\":2721:2783   */\ntag_79:\n    /* \"#utility.yul\":2669:2789   */\n  pop\n  jump\t// out\n    /* \"#utility.yul\":2795:2936   */\ntag_26:\n    /* \"#utility.yul\":2851:2856   */\n  0x00\n    /* \"#utility.yul\":2882:2888   */\n  dup2\n    /* \"#utility.yul\":2876:2889   */\n  mload\n    /* \"#utility.yul\":2867:2889   */\n  swap1\n  pop\n    /* \"#utility.yul\":2898:2930   */\n  tag_81\n    /* \"#utility.yul\":2924:2929   */\n  dup2\n    /* \"#utility.yul\":2898:2930   */\n  tag_25\n  jump\t// in\ntag_81:\n    /* \"#utility.yul\":2795:2936   */\n  swap3\n  swap2\n  pop\n  pop\n  jump\t// out\n    /* \"#utility.yul\":2942:3620   */\ntag_3:\n    /* \"#utility.yul\":3030:3036   */\n  0x00\n    /* \"#utility.yul\":3038:3044   */\n  0x00\n    /* \"#utility.yul\":3087:3089   */\n  0x40\n    /* \"#utility.yul\":3075:3084   */\n  dup4\n    /* \"#utility.yul\":3066:3073   */\n  dup6\n    /* \"#utility.yul\":3062:3085   */\n  sub\n    /* \"#utility.yul\":3058:3090   */\n  slt\n    /* \"#utility.yul\":3055:3174   */\n  iszero\n  tag_83\n  jumpi\n    /* \"#utility.yul\":3093:3172   */\n  tag_84\n  tag_12\n  jump\t// in\ntag_84:\n    /* \"#utility.yul\":3055:3174   */\ntag_83:\n    /* \"#utility.yul\":3234:3235   */\n  0x00\n    /* \"#utility.yul\":3223:3232   */\n  dup4\n    /* \"#utility.yul\":3219:3236   */\n  add\n    /* \"#utility.yul\":3213:3237   */\n  mload\n    /* \"#utility.yul\":3264:3282   */\n  0xffffffffffffffff\n    /* \"#utility.yul\":3256:3262   */\n  dup2\n    /* \"#utility.yul\":3253:3283   */\n  gt\n    /* \"#utility.yul\":3250:3367   */\n  iszero\n  tag_85\n  jumpi\n    /* \"#utility.yul\":3286:3365   */\n  tag_86\n  tag_13\n  jump\t// in\ntag_86:\n    /* \"#utility.yul\":3250:3367   */\ntag_85:\n    /* \"#utility.yul\":3391:3465   */\n  tag_87\n    /* \"#utility.yul\":3457:3464   */\n  dup6\n    /* \"#utility.yul\":3448:3454   */\n  dup3\n    /* \"#utility.yul\":3437:3446   */\n  dup7\n    /* \"#utility.yul\":3433:3455   */\n  add\n    /* \"#utility.yul\":3391:3465   */\n  tag_23\n  jump\t// in\ntag_87:\n    /* \"#utility.yul\":3381:3465   */\n  swap3\n  pop\n    /* \"#utility.yul\":3184:3475   */\n  pop\n    /* \"#utility.yul\":3514:3516   */\n  0x20\n    /* \"#utility.yul\":3540:3603   */\n  tag_88\n    /* \"#utility.yul\":3595:3602   */\n  dup6\n    /* \"#utility.yul\":3586:3592   */\n  dup3\n    /* \"#utility.yul\":3575:3584   */\n  dup7\n    /* \"#utility.yul\":3571:3593   */\n  add\n    /* \"#utility.yul\":3540:3603   */\n  tag_26\n  jump\t// in\ntag_88:\n    /* \"#utility.yul\":3530:3603   */\n  swap2\n  pop\n    /* \"#utility.yul\":3485:3613   */\n  pop\n    /* \"#utility.yul\":2942:3620   */\n  swap3\n  pop\n  swap3\n  swap1\n  pop\n  jump\t// out\n    /* \"#utility.yul\":3626:3725   */\ntag_27:\n    /* \"#utility.yul\":3678:3684   */\n  0x00\n    /* \"#utility.yul\":3712:3717   */\n  dup2\n    /* \"#utility.yul\":3706:3718   */\n  mload\n    /* \"#utility.yul\":3696:3718   */\n  swap1\n  pop\n    /* \"#utility.yul\":3626:3725   */\n  swap2\n  swap1\n  pop\n  jump\t// out\n    /* \"#utility.yul\":3731:3911   */\ntag_28:\n    /* \"#utility.yul\":3779:3856   */\n  0x4e487b7100000000000000000000000000000000000000000000000000000000\n    /* \"#utility.yul\":3776:3777   */\n  0x00\n    /* \"#utility.yul\":3769:3857   */\n  mstore\n    /* \"#utility.yul\":3876:3880   */\n  0x22\n    /* \"#utility.yul\":3873:3874   */\n  0x04\n    /* \"#utility.yul\":3866:3881   */\n  mstore\n    /* \"#utility.yul\":3900:3904   */\n  0x24\n    /* \"#utility.yul\":3897:3898   */\n  0x00\n    /* \"#utility.yul\":3890:3905   */\n  revert\n    /* \"#utility.yul\":3917:4237   */\ntag_29:\n    /* \"#utility.yul\":3961:3967   */\n  0x00\n    /* \"#utility.yul\":3998:3999   */\n  0x02\n    /* \"#utility.yul\":3992:3996   */\n  dup3\n    /* \"#utility.yul\":3988:4000   */\n  div\n    /* \"#utility.yul\":3978:4000   */\n  swap1\n  pop\n    /* \"#utility.yul\":4045:4046   */\n  0x01\n    /* \"#utility.yul\":4039:4043   */\n  dup3\n    /* \"#utility.yul\":4035:4047   */\n  and\n    /* \"#utility.yul\":4066:4084   */\n  dup1\n    /* \"#utility.yul\":4056:4137   */\n  tag_92\n  jumpi\n    /* \"#utility.yul\":4122:4126   */\n  0x7f\n    /* \"#utility.yul\":4114:4120   */\n  dup3\n    /* \"#utility.yul\":4110:4127   */\n  and\n    /* \"#utility.yul\":4100:4127   */\n  swap2\n  pop\n    /* \"#utility.yul\":4056:4137   */\ntag_92:\n    /* \"#utility.yul\":4184:4186   */\n  0x20\n    /* \"#utility.yul\":4176:4182   */\n  dup3\n    /* \"#utility.yul\":4173:4187   */\n  lt\n    /* \"#utility.yul\":4153:4171   */\n  dup2\n    /* \"#utility.yul\":4150:4188   */\n  sub\n    /* \"#utility.yul\":4147:4231   */\n  tag_93\n  jumpi\n    /* \"#utility.yul\":4203:4221   */\n  tag_94\n  tag_28\n  jump\t// in\ntag_94:\n    /* \"#utility.yul\":4147:4231   */\ntag_93:\n    /* \"#utility.yul\":3968:4237   */\n  pop\n    /* \"#utility.yul\":3917:4237   */\n  swap2\n  swap1\n  pop\n  jump\t// out\n    /* \"#utility.yul\":4243:4384   */\ntag_30:\n    /* \"#utility.yul\":4292:4296   */\n  0x00\n    /* \"#utility.yul\":4315:4318   */\n  dup2\n    /* \"#utility.yul\":4307:4318   */\n  swap1\n  pop\n    /* \"#utility.yul\":4338:4341   */\n  dup2\n    /* \"#utility.yul\":4335:4336   */\n  0x00\n    /* \"#utility.yul\":4328:4342   */\n  mstore\n    /* \"#utility.yul\":4372:4376   */\n  0x20\n    /* \"#utility.yul\":4369:4370   */\n  0x00\n    /* \"#utility.yul\":4359:4377   */\n  keccak256\n    /* \"#utility.yul\":4351:4377   */\n  swap1\n  pop\n    /* \"#utility.yul\":4243:4384   */\n  swap2\n  swap1\n  pop\n  jump\t// out\n    /* \"#utility.yul\":4390:4483   */\ntag_31:\n    /* \"#utility.yul\":4427:4433   */\n  0x00\n    /* \"#utility.yul\":4474:4476   */\n  0x20\n    /* \"#utility.yul\":4469:4471   */\n  0x1f\n    /* \"#utility.yul\":4462:4467   */\n  dup4\n    /* \"#utility.yul\":4458:4472   */\n  add\n    /* \"#utility.yul\":4454:4477   */\n  div\n    /* \"#utility.yul\":4444:4477   */\n  swap1\n  pop\n    /* \"#utility.yul\":4390:4483   */\n  swap2\n  swap1\n  pop\n  jump\t// out\n    /* \"#utility.yul\":4489:4596   */\ntag_32:\n    /* \"#utility.yul\":4533:4541   */\n  0x00\n    /* \"#utility.yul\":4583:4588   */\n  dup3\n    /* \"#utility.yul\":4577:4581   */\n  dup3\n    /* \"#utility.yul\":4573:4589   */\n  shl\n    /* \"#utility.yul\":4552:4589   */\n  swap1\n  pop\n    /* \"#utility.yul\":4489:4596   */\n  swap3\n  swap2\n  pop\n  pop\n  jump\t// out\n    /* \"#utility.yul\":4602:4995   */\ntag_33:\n    /* \"#utility.yul\":4671:4677   */\n  0x00\n    /* \"#utility.yul\":4721:4722   */\n  0x08\n    /* \"#utility.yul\":4709:4719   */\n  dup4\n    /* \"#utility.yul\":4705:4723   */\n  mul\n    /* \"#utility.yul\":4744:4841   */\n  tag_99\n    /* \"#utility.yul\":4774:4840   */\n  0xffffffffffffffffffffffffffffffffffffffffffffffffffffffffffffffff\n    /* \"#utility.yul\":4763:4772   */\n  dup3\n    /* \"#utility.yul\":4744:4841   */\n  tag_32\n  jump\t// in\ntag_99:\n    /* \"#utility.yul\":4862:4901   */\n  tag_100\n    /* \"#utility.yul\":4892:4900   */\n  dup7\n    /* \"#utility.yul\":4881:4890   */\n  dup4\n    /* \"#utility.yul\":4862:4901   */\n  tag_32\n  jump\t// in\ntag_100:\n    /* \"#utility.yul\":4850:4901   */\n  swap6\n  pop\n    /* \"#utility.yul\":4934:4938   */\n  dup1\n    /* \"#utility.yul\":4930:4939   */\n  not\n    /* \"#utility.yul\":4923:4928   */\n  dup5\n    /* \"#utility.yul\":4919:4940   */\n  and\n    /* \"#utility.yul\":4910:4940   */\n  swap4\n  pop\n    /* \"#utility.yul\":4983:4987   */\n  dup1\n    /* \"#utility.yul\":4973:4981   */\n  dup7\n    /* \"#utility.yul\":4969:4988   */\n  and\n    /* \"#utility.yul\":4962:4967   */\n  dup5\n    /* \"#utility.yul\":4959:4989   */\n  or\n    /* \"#utility.yul\":4949:4989   */\n  swap3\n  pop\n    /* \"#utility.yul\":4678:4995   */\n  pop\n  pop\n    /* \"#utility.yul\":4602:4995   */\n  swap4\n  swap3\n  pop\n  pop\n  pop\n  jump\t// out\n    /* \"#utility.yul\":5001:5078   */\ntag_34:\n    /* \"#utility.yul\":5038:5045   */\n  0x00\n    /* \"#utility.yul\":5067:5072   */\n  dup2\n    /* \"#utility.yul\":5056:5072   */\n  swap1\n  pop\n    /* \"#utility.yul\":5001:5078   */\n  swap2\n  swap1\n  pop\n  jump\t// out\n    /* \"#utility.yul\":5084:5144   */\ntag_35:\n    /* \"#utility.yul\":5112:5115   */\n  0x00\n    /* \"#utility.yul\":5133:5138   */\n  dup2\n    /* \"#utility.yul\":5126:5138   */\n  swap1\n  pop\n    /* \"#utility.yul\":5084:5144   */\n  swap2\n  swap1\n  pop\n  jump\t// out\n    /* \"#utility.yul\":5150:5292   */\ntag_36:\n    /* \"#utility.yul\":5200:5209   */\n  0x00\n    /* \"#utility.yul\":5233:5286   */\n  tag_104\n    /* \"#utility.yul\":5251:5285   */\n  tag_105\n    /* \"#utility.yul\":5260:5284   */\n  tag_106\n    /* \"#utility.yul\":5278:5283   */\n  dup5\n    /* \"#utility.yul\":5260:5284   */\n  tag_34\n  jump\t// in\ntag_106:\n    /* \"#utility.yul\":5251:5285   */\n  tag_35\n  jump\t// in\ntag_105:\n    /* \"#utility.yul\":5233:5286   */\n  tag_34\n  jump\t// in\ntag_104:\n    /* \"#utility.yul\":5220:5286   */\n  swap1\n  pop\n    /* \"#utility.yul\":5150:5292   */\n  swap2\n  swap1\n  pop\n  jump\t// out\n    /* \"#utility.yul\":5298:5373   */\ntag_37:\n    /* \"#utility.yul\":5341:5344   */\n  0x00\n    /* \"#utility.yul\":5362:5367   */\n  dup2\n    /* \"#utility.yul\":5355:5367   */\n  swap1\n  pop\n    /* \"#utility.yul\":5298:5373   */\n  swap2\n  swap1\n  pop\n  jump\t// out\n    /* \"#utility.yul\":5379:5648   */\ntag_38:\n    /* \"#utility.yul\":5489:5528   */\n  tag_109\n    /* \"#utility.yul\":5520:5527   */\n  dup4\n    /* \"#utility.yul\":5489:5528   */\n  tag_36\n  jump\t// in\ntag_109:\n    /* \"#utility.yul\":5550:5641   */\n  tag_110\n    /* \"#utility.yul\":5599:5640   */\n  tag_111\n    /* \"#utility.yul\":5623:5639   */\n  dup3\n    /* \"#utility.yul\":5599:5640   */\n  tag_37\n  jump\t// in\ntag_111:\n    /* \"#utility.yul\":5591:5597   */\n  dup5\n    /* \"#utility.yul\":5584:5588   */\n  dup5\n    /* \"#utility.yul\":5578:5589   */\n  sload\n    /* \"#utility.yul\":5550:5641   */\n  tag_33\n  jump\t// in\ntag_110:\n    /* \"#utility.yul\":5544:5548   */\n  dup3\n    /* \"#utility.yul\":5537:5642   */\n  sstore\n    /* \"#utility.yul\":5455:5648   */\n  pop\n    /* \"#utility.yul\":5379:5648   */\n  pop\n  pop\n  pop\n  jump\t// out\n    /* \"#utility.yul\":5654:5727   */\ntag_39:\n    /* \"#utility.yul\":5699:5702   */\n  0x00\n    /* \"#utility.yul\":5720:5721   */\n  0x00\n    /* \"#utility.yul\":5713:5721   */\n  swap1\n  pop\n    /* \"#utility.yul\":5654:5727   */\n  swap1\n  jump\t// out\n    /* \"#utility.yul\":5733:5922   */\ntag_40:\n    /* \"#utility.yul\":5810:5842   */\n  tag_114\n  tag_39\n  jump\t// in\ntag_114:\n    /* \"#utility.yul\":5851:5916   */\n  tag_115\n    /* \"#utility.yul\":5909:5915   */\n  dup2\n    /* \"#utility.yul\":5901:5907   */\n  dup5\n    /* \"#utility.yul\":5895:5899   */\n  dup5\n    /* \"#utility.yul\":5851:5916   */\n  tag_38\n  jump\t// in\ntag_115:\n    /* \"#utility.yul\":5786:5922   */\n  pop\n    /* \"#utility.yul\":5733:5922   */\n  pop\n  pop\n  jump\t// out\n    /* \"#utility.yul\":5928:6114   */\ntag_41:\n    /* \"#utility.yul\":5988:6108   */\ntag_117:\n    /* \"#utility.yul\":6005:6008   */\n  dup2\n    /* \"#utility.yul\":5998:6003   */\n  dup2\n    /* \"#utility.yul\":5995:6009   */\n  lt\n    /* \"#utility.yul\":5988:6108   */\n  iszero\n  tag_119\n  jumpi\n    /* \"#utility.yul\":6059:6098   */\n  tag_120\n    /* \"#utility.yul\":6096:6097   */\n  0x00\n    /* \"#utility.yul\":6089:6094   */\n  dup3\n    /* \"#utility.yul\":6059:6098   */\n  tag_40\n  jump\t// in\ntag_120:\n    /* \"#utility.yul\":6032:6033   */\n  0x01\n    /* \"#utility.yul\":6025:6030   */\n  dup2\n    /* \"#utility.yul\":6021:6034   */\n  add\n    /* \"#utility.yul\":6012:6034   */\n  swap1\n  pop\n    /* \"#utility.yul\":5988:6108   */\n  jump(tag_117)\ntag_119:\n    /* \"#utility.yul\":5928:6114   */\n  pop\n  pop\n  jump\t// out\n    /* \"#utility.yul\":6120:6663   */\ntag_42:\n    /* \"#utility.yul\":6221:6223   */\n  0x1f\n    /* \"#utility.yul\":6216:6219   */\n  dup3\n    /* \"#utility.yul\":6213:6224   */\n  gt\n    /* \"#utility.yul\":6210:6656   */\n  iszero\n  tag_122\n  jumpi\n    /* \"#utility.yul\":6255:6293   */\n  tag_123\n    /* \"#utility.yul\":6287:6292   */\n  dup2\n    /* \"#utility.yul\":6255:6293   */\n  tag_30\n  jump\t// in\ntag_123:\n    /* \"#utility.yul\":6339:6368   */\n  tag_124\n    /* \"#utility.yul\":6357:6367   */\n  dup5\n    /* \"#utility.yul\":6339:6368   */\n  tag_31\n  jump\t// in\ntag_124:\n    /* \"#utility.yul\":6329:6337   */\n  dup2\n    /* \"#utility.yul\":6325:6369   */\n  add\n    /* \"#utility.yul\":6522:6524   */\n  0x20\n    /* \"#utility.yul\":6510:6520   */\n  dup6\n    /* \"#utility.yul\":6507:6525   */\n  lt\n    /* \"#utility.yul\":6504:6553   */\n  iszero\n  tag_125\n  jumpi\n    /* \"#utility.yul\":6543:6551   */\n  dup2\n    /* \"#utility.yul\":6528:6551   */\n  swap1\n  pop\n    /* \"#utility.yul\":6504:6553   */\ntag_125:\n    /* \"#utility.yul\":6566:6646   */\n  tag_126\n    /* \"#utility.yul\":6622:6644   */\n  tag_127\n    /* \"#utility.yul\":6640:6643   */\n  dup6\n    /* \"#utility.yul\":6622:6644   */\n  tag_31\n  jump\t// in\ntag_127:\n    /* \"#utility.yul\":6612:6620   */\n  dup4\n    /* \"#utility.yul\":6608:6645   */\n  add\n    /* \"#utility.yul\":6595:6606   */\n  dup3\n    /* \"#utility.yul\":6566:6646   */\n  tag_41\n  jump\t// in\ntag_126:\n    /* \"#utility.yul\":6225:6656   */\n  pop\n  pop\n    /* \"#utility.yul\":6210:6656   */\ntag_122:\n    /* \"#utility.yul\":6120:6663   */\n  pop\n  pop\n  pop\n  jump\t// out\n    /* \"#utility.yul\":6669:6786   */\ntag_43:\n    /* \"#utility.yul\":6723:6731   */\n  0x00\n    /* \"#utility.yul\":6773:6778   */\n  dup3\n    /* \"#utility.yul\":6767:6771   */\n  dup3\n    /* \"#utility.yul\":6763:6779   */\n  shr\n    /* \"#utility.yul\":6742:6779   */\n  swap1\n  pop\n    /* \"#utility.yul\":6669:6786   */\n  swap3\n  swap2\n  pop\n  pop\n  jump\t// out\n    /* \"#utility.yul\":6792:6961   */\ntag_44:\n    /* \"#utility.yul\":6836:6842   */\n  0x00\n    /* \"#utility.yul\":6869:6920   */\n  tag_130\n    /* \"#utility.yul\":6917:6918   */\n  0x00\n    /* \"#utility.yul\":6913:6919   */\n  not\n    /* \"#utility.yul\":6905:6910   */\n  dup5\n    /* \"#utility.yul\":6902:6903   */\n  0x08\n    /* \"#utility.yul\":6898:6911   */\n  mul\n    /* \"#utility.yul\":6869:6920   */\n  tag_43\n  jump\t// in\ntag_130:\n    /* \"#utility.yul\":6865:6921   */\n  not\n    /* \"#utility.yul\":6950:6954   */\n  dup1\n    /* \"#utility.yul\":6944:6948   */\n  dup4\n    /* \"#utility.yul\":6940:6955   */\n  and\n    /* \"#utility.yul\":6930:6955   */\n  swap2\n  pop\n    /* \"#utility.yul\":6843:6961   */\n  pop\n    /* \"#utility.yul\":6792:6961   */\n  swap3\n  swap2\n  pop\n  pop\n  jump\t// out\n    /* \"#utility.yul\":6966:7261   */\ntag_45:\n    /* \"#utility.yul\":7042:7046   */\n  0x00\n    /* \"#utility.yul\":7188:7217   */\n  tag_132\n    /* \"#utility.yul\":7213:7216   */\n  dup4\n    /* \"#utility.yul\":7207:7211   */\n  dup4\n    /* \"#utility.yul\":7188:7217   */\n  tag_44\n  jump\t// in\ntag_132:\n    /* \"#utility.yul\":7180:7217   */\n  swap2\n  pop\n    /* \"#utility.yul\":7250:7253   */\n  dup3\n    /* \"#utility.yul\":7247:7248   */\n  0x02\n    /* \"#utility.yul\":7243:7254   */\n  mul\n    /* \"#utility.yul\":7237:7241   */\n  dup3\n    /* \"#utility.yul\":7234:7255   */\n  or\n    /* \"#utility.yul\":7226:7255   */\n  swap1\n  pop\n    /* \"#utility.yul\":6966:7261   */\n  swap3\n  swap2\n  pop\n  pop\n  jump\t// out\n    /* \"#utility.yul\":7266:8661   */\ntag_8:\n    /* \"#utility.yul\":7383:7420   */\n  tag_134\n    /* \"#utility.yul\":7416:7419   */\n  dup3\n    /* \"#utility.yul\":7383:7420   */\n  tag_27\n  jump\t// in\ntag_134:\n    /* \"#utility.yul\":7485:7503   */\n  0xffffffffffffffff\n    /* \"#utility.yul\":7477:7483   */\n  dup2\n    /* \"#utility.yul\":7474:7504   */\n  gt\n    /* \"#utility.yul\":7471:7527   */\n  iszero\n  tag_135\n  jumpi\n    /* \"#utility.yul\":7507:7525   */\n  tag_136\n  tag_17\n  jump\t// in\ntag_136:\n    /* \"#utility.yul\":7471:7527   */\ntag_135:\n    /* \"#utility.yul\":7551:7589   */\n  tag_137\n    /* \"#utility.yul\":7583:7587   */\n  dup3\n    /* \"#utility.yul\":7577:7588   */\n  sload\n    /* \"#utility.yul\":7551:7589   */\n  tag_29\n  jump\t// in\ntag_137:\n    /* \"#utility.yul\":7636:7703   */\n  tag_138\n    /* \"#utility.yul\":7696:7702   */\n  dup3\n    /* \"#utility.yul\":7688:7694   */\n  dup3\n    /* \"#utility.yul\":7682:7686   */\n  dup6\n    /* \"#utility.yul\":7636:7703   */\n  tag_42\n  jump\t// in\ntag_138:\n    /* \"#utility.yul\":7730:7731   */\n  0x00\n    /* \"#utility.yul\":7754:7758   */\n  0x20\n    /* \"#utility.yul\":7741:7758   */\n  swap1\n  pop\n    /* \"#utility.yul\":7786:7788   */\n  0x1f\n    /* \"#utility.yul\":7778:7784   */\n  dup4\n    /* \"#utility.yul\":7775:7789   */\n  gt\n    /* \"#utility.yul\":7803:7804   */\n  0x01\n    /* \"#utility.yul\":7798:8416   */\n  dup2\n  eq\n  tag_140\n  jumpi\n    /* \"#utility.yul\":8460:8461   */\n  0x00\n    /* \"#utility.yul\":8477:8483   */\n  dup5\n    /* \"#utility.yul\":8474:8551   */\n  iszero\n  tag_141\n  jumpi\n    /* \"#utility.yul\":8526:8535   */\n  dup3\n    /* \"#utility.yul\":8521:8524   */\n  dup8\n    /* \"#utility.yul\":8517:8536   */\n  add\n    /* \"#utility.yul\":8511:8537   */\n  mload\n    /* \"#utility.yul\":8502:8537   */\n  swap1\n  pop\n    /* \"#utility.yul\":8474:8551   */\ntag_141:\n    /* \"#utility.yul\":8577:8644   */\n  tag_142\n    /* \"#utility.yul\":8637:8643   */\n  dup6\n    /* \"#utility.yul\":8630:8635   */\n  dup3\n    /* \"#utility.yul\":8577:8644   */\n  tag_45\n  jump\t// in\ntag_142:\n    /* \"#utility.yul\":8571:8575   */\n  dup7\n    /* \"#utility.yul\":8564:8645   */\n  sstore\n    /* \"#utility.yul\":8433:8655   */\n  pop\n    /* \"#utility.yul\":7768:8655   */\n  jump(tag_139)\n    /* \"#utility.yul\":7798:8416   */\ntag_140:\n    /* \"#utility.yul\":7850:7854   */\n  0x1f\n    /* \"#utility.yul\":7846:7855   */\n  not\n    /* \"#utility.yul\":7838:7844   */\n  dup5\n    /* \"#utility.yul\":7834:7856   */\n  and\n    /* \"#utility.yul\":7884:7921   */\n  tag_143\n    /* \"#utility.yul\":7916:7920   */\n  dup7\n    /* \"#utility.yul\":7884:7921   */\n  tag_30\n  jump\t// in\ntag_143:\n    /* \"#utility.yul\":7943:7944   */\n  0x00\n    /* \"#utility.yul\":7957:8165   */\ntag_144:\n    /* \"#utility.yul\":7971:7978   */\n  dup3\n    /* \"#utility.yul\":7968:7969   */\n  dup2\n    /* \"#utility.yul\":7965:7979   */\n  lt\n    /* \"#utility.yul\":7957:8165   */\n  iszero\n  tag_146\n  jumpi\n    /* \"#utility.yul\":8050:8059   */\n  dup5\n    /* \"#utility.yul\":8045:8048   */\n  dup10\n    /* \"#utility.yul\":8041:8060   */\n  add\n    /* \"#utility.yul\":8035:8061   */\n  mload\n    /* \"#utility.yul\":8027:8033   */\n  dup3\n    /* \"#utility.yul\":8020:8062   */\n  sstore\n    /* \"#utility.yul\":8101:8102   */\n  0x01\n    /* \"#utility.yul\":8093:8099   */\n  dup3\n    /* \"#utility.yul\":8089:8103   */\n  add\n    /* \"#utility.yul\":8079:8103   */\n  swap2\n  pop\n    /* \"#utility.yul\":8148:8150   */\n  0x20\n    /* \"#utility.yul\":8137:8146   */\n  dup6\n    /* \"#utility.yul\":8133:8151   */\n  add\n    /* \"#utility.yul\":8120:8151   */\n  swap5\n  pop\n    /* \"#utility.yul\":7994:7998   */\n  0x20\n    /* \"#utility.yul\":7991:7992   */\n  dup2\n    /* \"#utility.yul\":7987:7999   */\n  add\n    /* \"#utility.yul\":7982:7999   */\n  swap1\n  pop\n    /* \"#utility.yul\":7957:8165   */\n  jump(tag_144)\ntag_146:\n    /* \"#utility.yul\":8193:8199   */\n  dup7\n    /* \"#utility.yul\":8184:8191   */\n  dup4\n    /* \"#utility.yul\":8181:8200   */\n  lt\n    /* \"#utility.yul\":8178:8357   */\n  iszero\n  tag_147\n  jumpi\n    /* \"#utility.yul\":8251:8260   */\n  dup5\n    /* \"#utility.yul\":8246:8249   */\n  dup10\n    /* \"#utility.yul\":8242:8261   */\n  add\n    /* \"#utility.yul\":8236:8262   */\n  mload\n    /* \"#utility.yul\":8294:8342   */\n  tag_148\n    /* \"#utility.yul\":8336:8340   */\n  0x1f\n    /* \"#utility.yul\":8328:8334   */\n  dup10\n    /* \"#utility.yul\":8324:8341   */\n  and\n    /* \"#utility.yul\":8313:8322   */\n  dup3\n    /* \"#utility.yul\":8294:8342   */\n  tag_44\n  jump\t// in\ntag_148:\n    /* \"#utility.yul\":8286:8292   */\n  dup4\n    /* \"#utility.yul\":8279:8343   */\n  sstore\n    /* \"#utility.yul\":8201:8357   */\n  pop\n    /* \"#utility.yul\":8178:8357   */\ntag_147:\n    /* \"#utility.yul\":8403:8404   */\n  0x01\n    /* \"#utility.yul\":8399:8400   */\n  0x02\n    /* \"#utility.yul\":8391:8397   */\n  dup9\n    /* \"#utility.yul\":8387:8401   */\n  mul\n    /* \"#utility.yul\":8383:8405   */\n  add\n    /* \"#utility.yul\":8377:8381   */\n  dup9\n    /* \"#utility.yul\":8370:8406   */\n  sstore\n    /* \"#utility.yul\":7805:8416   */\n  pop\n  pop\n  pop\n    /* \"#utility.yul\":7768:8655   */\ntag_139:\n  pop\n    /* \"#utility.yul\":7358:8661   */\n  pop\n  pop\n  pop\n    /* \"#utility.yul\":7266:8661   */\n  pop\n  pop\n  jump\t// out\n    /* \"contracts/3_car.sol\":91:408  contract Car is Vehicle{... */\ntag_10:\n  dataSize(sub_0)\n  dup1\n  dataOffset(sub_0)\n  0x00\n  codecopy\n  0x00\n  return\nstop\n\nsub_0: assembly {\n        /* \"contracts/3_car.sol\":91:408  contract Car is Vehicle{... */\n      mstore(0x40, 0x80)\n      callvalue\n      dup1\n      iszero\n      tag_1\n      jumpi\n      revert(0x00, 0x00)\n    tag_1:\n      pop\n      jumpi(tag_2, lt(calldatasize, 0x04))\n      shr(0xe0, calldataload(0x00))\n      dup1\n      0x7284e416\n      eq\n      tag_3\n      jumpi\n      dup1\n      0xed80bf3f\n      eq\n      tag_4\n      jumpi\n    tag_2:\n      revert(0x00, 0x00)\n        /* \"contracts/3_car.sol\":287:406  function description() public pure override returns (string memory){... */\n    tag_3:\n      tag_5\n      tag_6\n      jump\t// in\n    tag_5:\n      mload(0x40)\n      tag_7\n      swap2\n      swap1\n      tag_8\n      jump\t// in\n    tag_7:\n      mload(0x40)\n      dup1\n      swap2\n      sub\n      swap1\n      return\n        /* \"contracts/3_car.sol\":121:146  uint public numberOfTyres */\n    tag_4:\n      tag_9\n      tag_10\n      jump\t// in\n    tag_9:\n      mload(0x40)\n      tag_11\n      swap2\n      swap1\n      tag_12\n      jump\t// in\n    tag_11:\n      mload(0x40)\n      dup1\n      swap2\n      sub\n      swap1\n      return\n        /* \"contracts/3_car.sol\":287:406  function description() public pure override returns (string memory){... */\n    tag_6:\n        /* \"contracts/3_car.sol\":340:353  string memory */\n      0x60\n        /* \"contracts/3_car.sol\":364:399  return \"This is from Car Contracts\" */\n      mload(0x40)\n      dup1\n      0x40\n      add\n      0x40\n      mstore\n      dup1\n      0x1a\n      dup2\n      mstore\n      0x20\n      add\n      0x546869732069732066726f6d2043617220436f6e747261637473000000000000\n      dup2\n      mstore\n      pop\n      swap1\n      pop\n        /* \"contracts/3_car.sol\":287:406  function description() public pure override returns (string memory){... */\n      swap1\n      jump\t// out\n        /* \"contracts/3_car.sol\":121:146  uint public numberOfTyres */\n    tag_10:\n      sload(0x01)\n      dup2\n      jump\t// out\n        /* \"#utility.yul\":7:106   */\n    tag_14:\n        /* \"#utility.yul\":59:65   */\n      0x00\n        /* \"#utility.yul\":93:98   */\n      dup2\n        /* \"#utility.yul\":87:99   */\n      mload\n        /* \"#utility.yul\":77:99   */\n      swap1\n      pop\n        /* \"#utility.yul\":7:106   */\n      swap2\n      swap1\n      pop\n      jump\t// out\n        /* \"#utility.yul\":112:281   */\n    tag_15:\n        /* \"#utility.yul\":196:207   */\n      0x00\n        /* \"#utility.yul\":230:236   */\n      dup3\n        /* \"#utility.yul\":225:228   */\n      dup3\n        /* \"#utility.yul\":218:237   */\n      mstore\n        /* \"#utility.yul\":270:274   */\n      0x20\n        /* \"#utility.yul\":265:268   */\n      dup3\n        /* \"#utility.yul\":261:275   */\n      add\n        /* \"#utility.yul\":246:275   */\n      swap1\n      pop\n        /* \"#utility.yul\":112:281   */\n      swap3\n      swap2\n      pop\n      pop\n      jump\t// out\n        /* \"#utility.yul\":287:426   */\n    tag_16:\n        /* \"#utility.yul\":376:382   */\n      dup3\n        /* \"#utility.yul\":371:374   */\n      dup2\n        /* \"#utility.yul\":366:369   */\n      dup4\n        /* \"#utility.yul\":360:383   */\n      mcopy\n        /* \"#utility.yul\":417:418   */\n      0x00\n        /* \"#utility.yul\":408:414   */\n      dup4\n        /* \"#utility.yul\":403:406   */\n      dup4\n        /* \"#utility.yul\":399:415   */\n      add\n        /* \"#utility.yul\":392:419   */\n      mstore\n        /* \"#utility.yul\":287:426   */\n      pop\n      pop\n      pop\n      jump\t// out\n        /* \"#utility.yul\":432:534   */\n    tag_17:\n        /* \"#utility.yul\":473:479   */\n      0x00\n        /* \"#utility.yul\":524:526   */\n      0x1f\n        /* \"#utility.yul\":520:527   */\n      not\n        /* \"#utility.yul\":515:517   */\n      0x1f\n        /* \"#utility.yul\":508:513   */\n      dup4\n        /* \"#utility.yul\":504:518   */\n      add\n        /* \"#utility.yul\":500:528   */\n      and\n        /* \"#utility.yul\":490:528   */\n      swap1\n      pop\n        /* \"#utility.yul\":432:534   */\n      swap2\n      swap1\n      pop\n      jump\t// out\n        /* \"#utility.yul\":540:917   */\n    tag_18:\n        /* \"#utility.yul\":628:631   */\n      0x00\n        /* \"#utility.yul\":656:695   */\n      tag_27\n        /* \"#utility.yul\":689:694   */\n      dup3\n        /* \"#utility.yul\":656:695   */\n      tag_14\n      jump\t// in\n    tag_27:\n        /* \"#utility.yul\":711:782   */\n      tag_28\n        /* \"#utility.yul\":775:781   */\n      dup2\n        /* \"#utility.yul\":770:773   */\n      dup6\n        /* \"#utility.yul\":711:782   */\n      tag_15\n      jump\t// in\n    tag_28:\n        /* \"#utility.yul\":704:782   */\n      swap4\n      pop\n        /* \"#utility.yul\":791:856   */\n      tag_29\n        /* \"#utility.yul\":849:855   */\n      dup2\n        /* \"#utility.yul\":844:847   */\n      dup6\n        /* \"#utility.yul\":837:841   */\n      0x20\n        /* \"#utility.yul\":830:835   */\n      dup7\n        /* \"#utility.yul\":826:842   */\n      add\n        /* \"#utility.yul\":791:856   */\n      tag_16\n      jump\t// in\n    tag_29:\n        /* \"#utility.yul\":881:910   */\n      tag_30\n        /* \"#utility.yul\":903:909   */\n      dup2\n        /* \"#utility.yul\":881:910   */\n      tag_17\n      jump\t// in\n    tag_30:\n        /* \"#utility.yul\":876:879   */\n      dup5\n        /* \"#utility.yul\":872:911   */\n      add\n        /* \"#utility.yul\":865:911   */\n      swap2\n      pop\n        /* \"#utility.yul\":632:917   */\n      pop\n        /* \"#utility.yul\":540:917   */\n      swap3\n      swap2\n      pop\n      pop\n      jump\t// out\n        /* \"#utility.yul\":923:1236   */\n    tag_8:\n        /* \"#utility.yul\":1036:1040   */\n      0x00\n        /* \"#utility.yul\":1074:1076   */\n      0x20\n        /* \"#utility.yul\":1063:1072   */\n      dup3\n        /* \"#utility.yul\":1059:1077   */\n      add\n        /* \"#utility.yul\":1051:1077   */\n      swap1\n      pop\n        /* \"#utility.yul\":1123:1132   */\n      dup2\n        /* \"#utility.yul\":1117:1121   */\n      dup2\n        /* \"#utility.yul\":1113:1133   */\n      sub\n        /* \"#utility.yul\":1109:1110   */\n      0x00\n        /* \"#utility.yul\":1098:1107   */\n      dup4\n        /* \"#utility.yul\":1094:1111   */\n      add\n        /* \"#utility.yul\":1087:1134   */\n      mstore\n        /* \"#utility.yul\":1151:1229   */\n      tag_32\n        /* \"#utility.yul\":1224:1228   */\n      dup2\n        /* \"#utility.yul\":1215:1221   */\n      dup5\n        /* \"#utility.yul\":1151:1229   */\n      tag_18\n      jump\t// in\n    tag_32:\n        /* \"#utility.yul\":1143:1229   */\n      swap1\n      pop\n        /* \"#utility.yul\":923:1236   */\n      swap3\n      swap2\n      pop\n      pop\n      jump\t// out\n        /* \"#utility.yul\":1242:1319   */\n    tag_19:\n        /* \"#utility.yul\":1279:1286   */\n      0x00\n        /* \"#utility.yul\":1308:1313   */\n      dup2\n        /* \"#utility.yul\":1297:1313   */\n      swap1\n      pop\n        /* \"#utility.yul\":1242:1319   */\n      swap2\n      swap1\n      pop\n      jump\t// out\n        /* \"#utility.yul\":1325:1443   */\n    tag_20:\n        /* \"#utility.yul\":1412:1436   */\n      tag_35\n        /* \"#utility.yul\":1430:1435   */\n      dup2\n        /* \"#utility.yul\":1412:1436   */\n      tag_19\n      jump\t// in\n    tag_35:\n        /* \"#utility.yul\":1407:1410   */\n      dup3\n        /* \"#utility.yul\":1400:1437   */\n      mstore\n        /* \"#utility.yul\":1325:1443   */\n      pop\n      pop\n      jump\t// out\n        /* \"#utility.yul\":1449:1671   */\n    tag_12:\n        /* \"#utility.yul\":1542:1546   */\n      0x00\n        /* \"#utility.yul\":1580:1582   */\n      0x20\n        /* \"#utility.yul\":1569:1578   */\n      dup3\n        /* \"#utility.yul\":1565:1583   */\n      add\n        /* \"#utility.yul\":1557:1583   */\n      swap1\n      pop\n        /* \"#utility.yul\":1593:1664   */\n      tag_37\n        /* \"#utility.yul\":1661:1662   */\n      0x00\n        /* \"#utility.yul\":1650:1659   */\n      dup4\n        /* \"#utility.yul\":1646:1663   */\n      add\n        /* \"#utility.yul\":1637:1643   */\n      dup5\n        /* \"#utility.yul\":1593:1664   */\n      tag_20\n      jump\t// in\n    tag_37:\n        /* \"#utility.yul\":1449:1671   */\n      swap3\n      swap2\n      pop\n      pop\n      jump\t// out\n\n    auxdata: 0xa2646970667358221220f5c9d1aac41909e408e3bf9fce4c2c38323a1ffb4770b71b9e997c24668f11f364736f6c634300081e0033\n}\n",
				"bytecode": {
					"linkReferences": {},
					"object": "608060405234801561000f575f5ffd5b506040516106d03803806106d0833981810160405281019061003191906101dc565b81805f90816100409190610446565b50508063ffffffff166001819055505050610515565b5f604051905090565b5f5ffd5b5f5ffd5b5f5ffd5b5f5ffd5b5f601f19601f8301169050919050565b7f4e487b71000000000000000000000000000000000000000000000000000000005f52604160045260245ffd5b6100b58261006f565b810181811067ffffffffffffffff821117156100d4576100d361007f565b5b80604052505050565b5f6100e6610056565b90506100f282826100ac565b919050565b5f67ffffffffffffffff8211156101115761011061007f565b5b61011a8261006f565b9050602081019050919050565b8281835e5f83830152505050565b5f610147610142846100f7565b6100dd565b9050828152602081018484840111156101635761016261006b565b5b61016e848285610127565b509392505050565b5f82601f83011261018a57610189610067565b5b815161019a848260208601610135565b91505092915050565b5f63ffffffff82169050919050565b6101bb816101a3565b81146101c5575f5ffd5b50565b5f815190506101d6816101b2565b92915050565b5f5f604083850312156101f2576101f161005f565b5b5f83015167ffffffffffffffff81111561020f5761020e610063565b5b61021b85828601610176565b925050602061022c858286016101c8565b9150509250929050565b5f81519050919050565b7f4e487b71000000000000000000000000000000000000000000000000000000005f52602260045260245ffd5b5f600282049050600182168061028457607f821691505b60208210810361029757610296610240565b5b50919050565b5f819050815f5260205f209050919050565b5f6020601f8301049050919050565b5f82821b905092915050565b5f600883026102f97fffffffffffffffffffffffffffffffffffffffffffffffffffffffffffffffff826102be565b61030386836102be565b95508019841693508086168417925050509392505050565b5f819050919050565b5f819050919050565b5f61034761034261033d8461031b565b610324565b61031b565b9050919050565b5f819050919050565b6103608361032d565b61037461036c8261034e565b8484546102ca565b825550505050565b5f5f905090565b61038b61037c565b610396818484610357565b505050565b5b818110156103b9576103ae5f82610383565b60018101905061039c565b5050565b601f8211156103fe576103cf8161029d565b6103d8846102af565b810160208510156103e7578190505b6103fb6103f3856102af565b83018261039b565b50505b505050565b5f82821c905092915050565b5f61041e5f1984600802610403565b1980831691505092915050565b5f610436838361040f565b9150826002028217905092915050565b61044f82610236565b67ffffffffffffffff8111156104685761046761007f565b5b610472825461026d565b61047d8282856103bd565b5f60209050601f8311600181146104ae575f841561049c578287015190505b6104a6858261042b565b86555061050d565b601f1984166104bc8661029d565b5f5b828110156104e3578489015182556001820191506020850194506020810190506104be565b8683101561050057848901516104fc601f89168261040f565b8355505b6001600288020188555050505b505050505050565b6101ae806105225f395ff3fe608060405234801561000f575f5ffd5b5060043610610034575f3560e01c80637284e41614610038578063ed80bf3f14610056575b5f5ffd5b610040610074565b60405161004d9190610127565b60405180910390f35b61005e6100b1565b60405161006b919061015f565b60405180910390f35b60606040518060400160405280601a81526020017f546869732069732066726f6d2043617220436f6e747261637473000000000000815250905090565b60015481565b5f81519050919050565b5f82825260208201905092915050565b8281835e5f83830152505050565b5f601f19601f8301169050919050565b5f6100f9826100b7565b61010381856100c1565b93506101138185602086016100d1565b61011c816100df565b840191505092915050565b5f6020820190508181035f83015261013f81846100ef565b905092915050565b5f819050919050565b61015981610147565b82525050565b5f6020820190506101725f830184610150565b9291505056fea2646970667358221220f5c9d1aac41909e408e3bf9fce4c2c38323a1ffb4770b71b9e997c24668f11f364736f6c634300081e0033",
					"opcodes": "PUSH1 0x80 PUSH1 0x40 MSTORE CALLVALUE DUP1 ISZERO PUSH2 0xF JUMPI PUSH0 PUSH0 REVERT JUMPDEST POP PUSH1 0x40 MLOAD PUSH2 0x6D0 CODESIZE SUB DUP1 PUSH2 0x6D0 DUP4 CODECOPY DUP2 DUP2 ADD PUSH1 0x40 MSTORE DUP2 ADD SWAP1 PUSH2 0x31 SWAP2 SWAP1 PUSH2 0x1DC JUMP JUMPDEST DUP2 DUP1 PUSH0 SWAP1 DUP2 PUSH2 0x40 SWAP2 SWAP1 PUSH2 0x446 JUMP JUMPDEST POP POP DUP1 PUSH4 0xFFFFFFFF AND PUSH1 0x1 DUP2 SWAP1 SSTORE POP POP POP PUSH2 0x515 JUMP JUMPDEST PUSH0 PUSH1 0x40 MLOAD SWAP1 POP SWAP1 JUMP JUMPDEST PUSH0 PUSH0 REVERT JUMPDEST PUSH0 PUSH0 REVERT JUMPDEST PUSH0 PUSH0 REVERT JUMPDEST PUSH0 PUSH0 REVERT JUMPDEST PUSH0 PUSH1 0x1F NOT PUSH1 0x1F DUP4 ADD AND SWAP1 POP SWAP2 SWAP1 POP JUMP JUMPDEST PUSH32 0x4E487B7100000000000000000000000000000000000000000000000000000000 PUSH0 MSTORE PUSH1 0x41 PUSH1 0x4 MSTORE PUSH1 0x24 PUSH0 REVERT JUMPDEST PUSH2 0xB5 DUP3 PUSH2 0x6F JUMP JUMPDEST DUP2 ADD DUP2 DUP2 LT PUSH8 0xFFFFFFFFFFFFFFFF DUP3 GT OR ISZERO PUSH2 0xD4 JUMPI PUSH2 0xD3 PUSH2 0x7F JUMP JUMPDEST JUMPDEST DUP1 PUSH1 0x40 MSTORE POP POP POP JUMP JUMPDEST PUSH0 PUSH2 0xE6 PUSH2 0x56 JUMP JUMPDEST SWAP1 POP PUSH2 0xF2 DUP3 DUP3 PUSH2 0xAC JUMP JUMPDEST SWAP2 SWAP1 POP JUMP JUMPDEST PUSH0 PUSH8 0xFFFFFFFFFFFFFFFF DUP3 GT ISZERO PUSH2 0x111 JUMPI PUSH2 0x110 PUSH2 0x7F JUMP JUMPDEST JUMPDEST PUSH2 0x11A DUP3 PUSH2 0x6F JUMP JUMPDEST SWAP1 POP PUSH1 0x20 DUP2 ADD SWAP1 POP SWAP2 SWAP1 POP JUMP JUMPDEST DUP3 DUP2 DUP4 MCOPY PUSH0 DUP4 DUP4 ADD MSTORE POP POP POP JUMP JUMPDEST PUSH0 PUSH2 0x147 PUSH2 0x142 DUP5 PUSH2 0xF7 JUMP JUMPDEST PUSH2 0xDD JUMP JUMPDEST SWAP1 POP DUP3 DUP2 MSTORE PUSH1 0x20 DUP2 ADD DUP5 DUP5 DUP5 ADD GT ISZERO PUSH2 0x163 JUMPI PUSH2 0x162 PUSH2 0x6B JUMP JUMPDEST JUMPDEST PUSH2 0x16E DUP5 DUP3 DUP6 PUSH2 0x127 JUMP JUMPDEST POP SWAP4 SWAP3 POP POP POP JUMP JUMPDEST PUSH0 DUP3 PUSH1 0x1F DUP4 ADD SLT PUSH2 0x18A JUMPI PUSH2 0x189 PUSH2 0x67 JUMP JUMPDEST JUMPDEST DUP2 MLOAD PUSH2 0x19A DUP5 DUP3 PUSH1 0x20 DUP7 ADD PUSH2 0x135 JUMP JUMPDEST SWAP2 POP POP SWAP3 SWAP2 POP POP JUMP JUMPDEST PUSH0 PUSH4 0xFFFFFFFF DUP3 AND SWAP1 POP SWAP2 SWAP1 POP JUMP JUMPDEST PUSH2 0x1BB DUP2 PUSH2 0x1A3 JUMP JUMPDEST DUP2 EQ PUSH2 0x1C5 JUMPI PUSH0 PUSH0 REVERT JUMPDEST POP JUMP JUMPDEST PUSH0 DUP2 MLOAD SWAP1 POP PUSH2 0x1D6 DUP2 PUSH2 0x1B2 JUMP JUMPDEST SWAP3 SWAP2 POP POP JUMP JUMPDEST PUSH0 PUSH0 PUSH1 0x40 DUP4 DUP6 SUB SLT ISZERO PUSH2 0x1F2 JUMPI PUSH2 0x1F1 PUSH2 0x5F JUMP JUMPDEST JUMPDEST PUSH0 DUP4 ADD MLOAD PUSH8 0xFFFFFFFFFFFFFFFF DUP2 GT ISZERO PUSH2 0x20F JUMPI PUSH2 0x20E PUSH2 0x63 JUMP JUMPDEST JUMPDEST PUSH2 0x21B DUP6 DUP3 DUP7 ADD PUSH2 0x176 JUMP JUMPDEST SWAP3 POP POP PUSH1 0x20 PUSH2 0x22C DUP6 DUP3 DUP7 ADD PUSH2 0x1C8 JUMP JUMPDEST SWAP2 POP POP SWAP3 POP SWAP3 SWAP1 POP JUMP JUMPDEST PUSH0 DUP2 MLOAD SWAP1 POP SWAP2 SWAP1 POP JUMP JUMPDEST PUSH32 0x4E487B7100000000000000000000000000000000000000000000000000000000 PUSH0 MSTORE PUSH1 0x22 PUSH1 0x4 MSTORE PUSH1 0x24 PUSH0 REVERT JUMPDEST PUSH0 PUSH1 0x2 DUP3 DIV SWAP1 POP PUSH1 0x1 DUP3 AND DUP1 PUSH2 0x284 JUMPI PUSH1 0x7F DUP3 AND SWAP2 POP JUMPDEST PUSH1 0x20 DUP3 LT DUP2 SUB PUSH2 0x297 JUMPI PUSH2 0x296 PUSH2 0x240 JUMP JUMPDEST JUMPDEST POP SWAP2 SWAP1 POP JUMP JUMPDEST PUSH0 DUP2 SWAP1 POP DUP2 PUSH0 MSTORE PUSH1 0x20 PUSH0 KECCAK256 SWAP1 POP SWAP2 SWAP1 POP JUMP JUMPDEST PUSH0 PUSH1 0x20 PUSH1 0x1F DUP4 ADD DIV SWAP1 POP SWAP2 SWAP1 POP JUMP JUMPDEST PUSH0 DUP3 DUP3 SHL SWAP1 POP SWAP3 SWAP2 POP POP JUMP JUMPDEST PUSH0 PUSH1 0x8 DUP4 MUL PUSH2 0x2F9 PUSH32 0xFFFFFFFFFFFFFFFFFFFFFFFFFFFFFFFFFFFFFFFFFFFFFFFFFFFFFFFFFFFFFFFF DUP3 PUSH2 0x2BE JUMP JUMPDEST PUSH2 0x303 DUP7 DUP4 PUSH2 0x2BE JUMP JUMPDEST SWAP6 POP DUP1 NOT DUP5 AND SWAP4 POP DUP1 DUP7 AND DUP5 OR SWAP3 POP POP POP SWAP4 SWAP3 POP POP POP JUMP JUMPDEST PUSH0 DUP2 SWAP1 POP SWAP2 SWAP1 POP JUMP JUMPDEST PUSH0 DUP2 SWAP1 POP SWAP2 SWAP1 POP JUMP JUMPDEST PUSH0 PUSH2 0x347 PUSH2 0x342 PUSH2 0x33D DUP5 PUSH2 0x31B JUMP JUMPDEST PUSH2 0x324 JUMP JUMPDEST PUSH2 0x31B JUMP JUMPDEST SWAP1 POP SWAP2 SWAP1 POP JUMP JUMPDEST PUSH0 DUP2 SWAP1 POP SWAP2 SWAP1 POP JUMP JUMPDEST PUSH2 0x360 DUP4 PUSH2 0x32D JUMP JUMPDEST PUSH2 0x374 PUSH2 0x36C DUP3 PUSH2 0x34E JUMP JUMPDEST DUP5 DUP5 SLOAD PUSH2 0x2CA JUMP JUMPDEST DUP3 SSTORE POP POP POP POP JUMP JUMPDEST PUSH0 PUSH0 SWAP1 POP SWAP1 JUMP JUMPDEST PUSH2 0x38B PUSH2 0x37C JUMP JUMPDEST PUSH2 0x396 DUP2 DUP5 DUP5 PUSH2 0x357 JUMP JUMPDEST POP POP POP JUMP JUMPDEST JUMPDEST DUP2 DUP2 LT ISZERO PUSH2 0x3B9 JUMPI PUSH2 0x3AE PUSH0 DUP3 PUSH2 0x383 JUMP JUMPDEST PUSH1 0x1 DUP2 ADD SWAP1 POP PUSH2 0x39C JUMP JUMPDEST POP POP JUMP JUMPDEST PUSH1 0x1F DUP3 GT ISZERO PUSH2 0x3FE JUMPI PUSH2 0x3CF DUP2 PUSH2 0x29D JUMP JUMPDEST PUSH2 0x3D8 DUP5 PUSH2 0x2AF JUMP JUMPDEST DUP2 ADD PUSH1 0x20 DUP6 LT ISZERO PUSH2 0x3E7 JUMPI DUP2 SWAP1 POP JUMPDEST PUSH2 0x3FB PUSH2 0x3F3 DUP6 PUSH2 0x2AF JUMP JUMPDEST DUP4 ADD DUP3 PUSH2 0x39B JUMP JUMPDEST POP POP JUMPDEST POP POP POP JUMP JUMPDEST PUSH0 DUP3 DUP3 SHR SWAP1 POP SWAP3 SWAP2 POP POP JUMP JUMPDEST PUSH0 PUSH2 0x41E PUSH0 NOT DUP5 PUSH1 0x8 MUL PUSH2 0x403 JUMP JUMPDEST NOT DUP1 DUP4 AND SWAP2 POP POP SWAP3 SWAP2 POP POP JUMP JUMPDEST PUSH0 PUSH2 0x436 DUP4 DUP4 PUSH2 0x40F JUMP JUMPDEST SWAP2 POP DUP3 PUSH1 0x2 MUL DUP3 OR SWAP1 POP SWAP3 SWAP2 POP POP JUMP JUMPDEST PUSH2 0x44F DUP3 PUSH2 0x236 JUMP JUMPDEST PUSH8 0xFFFFFFFFFFFFFFFF DUP2 GT ISZERO PUSH2 0x468 JUMPI PUSH2 0x467 PUSH2 0x7F JUMP JUMPDEST JUMPDEST PUSH2 0x472 DUP3 SLOAD PUSH2 0x26D JUMP JUMPDEST PUSH2 0x47D DUP3 DUP3 DUP6 PUSH2 0x3BD JUMP JUMPDEST PUSH0 PUSH1 0x20 SWAP1 POP PUSH1 0x1F DUP4 GT PUSH1 0x1 DUP2 EQ PUSH2 0x4AE JUMPI PUSH0 DUP5 ISZERO PUSH2 0x49C JUMPI DUP3 DUP8 ADD MLOAD SWAP1 POP JUMPDEST PUSH2 0x4A6 DUP6 DUP3 PUSH2 0x42B JUMP JUMPDEST DUP7 SSTORE POP PUSH2 0x50D JUMP JUMPDEST PUSH1 0x1F NOT DUP5 AND PUSH2 0x4BC DUP7 PUSH2 0x29D JUMP JUMPDEST PUSH0 JUMPDEST DUP3 DUP2 LT ISZERO PUSH2 0x4E3 JUMPI DUP5 DUP10 ADD MLOAD DUP3 SSTORE PUSH1 0x1 DUP3 ADD SWAP2 POP PUSH1 0x20 DUP6 ADD SWAP5 POP PUSH1 0x20 DUP2 ADD SWAP1 POP PUSH2 0x4BE JUMP JUMPDEST DUP7 DUP4 LT ISZERO PUSH2 0x500 JUMPI DUP5 DUP10 ADD MLOAD PUSH2 0x4FC PUSH1 0x1F DUP10 AND DUP3 PUSH2 0x40F JUMP JUMPDEST DUP4 SSTORE POP JUMPDEST PUSH1 0x1 PUSH1 0x2 DUP9 MUL ADD DUP9 SSTORE POP POP POP JUMPDEST POP POP POP POP POP POP JUMP JUMPDEST PUSH2 0x1AE DUP1 PUSH2 0x522 PUSH0 CODECOPY PUSH0 RETURN INVALID PUSH1 0x80 PUSH1 0x40 MSTORE CALLVALUE DUP1 ISZERO PUSH2 0xF JUMPI PUSH0 PUSH0 REVERT JUMPDEST POP PUSH1 0x4 CALLDATASIZE LT PUSH2 0x34 JUMPI PUSH0 CALLDATALOAD PUSH1 0xE0 SHR DUP1 PUSH4 0x7284E416 EQ PUSH2 0x38 JUMPI DUP1 PUSH4 0xED80BF3F EQ PUSH2 0x56 JUMPI JUMPDEST PUSH0 PUSH0 REVERT JUMPDEST PUSH2 0x40 PUSH2 0x74 JUMP JUMPDEST PUSH1 0x40 MLOAD PUSH2 0x4D SWAP2 SWAP1 PUSH2 0x127 JUMP JUMPDEST PUSH1 0x40 MLOAD DUP1 SWAP2 SUB SWAP1 RETURN JUMPDEST PUSH2 0x5E PUSH2 0xB1 JUMP JUMPDEST PUSH1 0x40 MLOAD PUSH2 0x6B SWAP2 SWAP1 PUSH2 0x15F JUMP JUMPDEST PUSH1 0x40 MLOAD DUP1 SWAP2 SUB SWAP1 RETURN JUMPDEST PUSH1 0x60 PUSH1 0x40 MLOAD DUP1 PUSH1 0x40 ADD PUSH1 0x40 MSTORE DUP1 PUSH1 0x1A DUP2 MSTORE PUSH1 0x20 ADD PUSH32 0x546869732069732066726F6D2043617220436F6E747261637473000000000000 DUP2 MSTORE POP SWAP1 POP SWAP1 JUMP JUMPDEST PUSH1 0x1 SLOAD DUP2 JUMP JUMPDEST PUSH0 DUP2 MLOAD SWAP1 POP SWAP2 SWAP1 POP JUMP JUMPDEST PUSH0 DUP3 DUP3 MSTORE PUSH1 0x20 DUP3 ADD SWAP1 POP SWAP3 SWAP2 POP POP JUMP JUMPDEST DUP3 DUP2 DUP4 MCOPY PUSH0 DUP4 DUP4 ADD MSTORE POP POP POP JUMP JUMPDEST PUSH0 PUSH1 0x1F NOT PUSH1 0x1F DUP4 ADD AND SWAP1 POP SWAP2 SWAP1 POP JUMP JUMPDEST PUSH0 PUSH2 0xF9 DUP3 PUSH2 0xB7 JUMP JUMPDEST PUSH2 0x103 DUP2 DUP6 PUSH2 0xC1 JUMP JUMPDEST SWAP4 POP PUSH2 0x113 DUP2 DUP6 PUSH1 0x20 DUP7 ADD PUSH2 0xD1 JUMP JUMPDEST PUSH2 0x11C DUP2 PUSH2 0xDF JUMP JUMPDEST DUP5 ADD SWAP2 POP POP SWAP3 SWAP2 POP POP JUMP JUMPDEST PUSH0 PUSH1 0x20 DUP3 ADD SWAP1 POP DUP2 DUP2 SUB PUSH0 DUP4 ADD MSTORE PUSH2 0x13F DUP2 DUP5 PUSH2 0xEF JUMP JUMPDEST SWAP1 POP SWAP3 SWAP2 POP POP JUMP JUMPDEST PUSH0 DUP2 SWAP1 POP SWAP2 SWAP1 POP JUMP JUMPDEST PUSH2 0x159 DUP2 PUSH2 0x147 JUMP JUMPDEST DUP3 MSTORE POP POP JUMP JUMPDEST PUSH0 PUSH1 0x20 DUP3 ADD SWAP1 POP PUSH2 0x172 PUSH0 DUP4 ADD DUP5 PUSH2 0x150 JUMP JUMPDEST SWAP3 SWAP2 POP POP JUMP INVALID LOG2 PUSH5 0x6970667358 0x22 SLT KECCAK256 CREATE2 0xC9 DATALOADN 0xAAC4 NOT MULMOD RETF ADDMOD CALLF 0xBF9F 0xCE 0x4C 0x2C CODESIZE ORIGIN GASPRICE 0x1F EXTSTATICCALL SELFBALANCE PUSH17 0xB71B9E997C24668F11F364736F6C634300 ADDMOD 0x1E STOP CALLER "
				},
				"gasEstimates": {
					"creation": {
						"codeDepositCost": "86000",
						"executionCost": "infinite",
						"totalCost": "infinite"
					},
					"external": {
						"description()": "infinite",
						"numberOfTyres()": "2425"
					}
				},
				"methodIdentifiers": {
					"description()": "7284e416",
					"numberOfTyres()": "ed80bf3f"
				}
			},
			"storageLayout": {
				"storage": [
					{
						"astId": 3,
						"contract": "contracts/3_car.sol:Car",
						"label": "category",
						"offset": 0,
						"slot": "0",
						"type": "t_string_storage"
					},
					{
						"astId": 29,
						"contract": "contracts/3_car.sol:Car",
						"label": "numberOfTyres",
						"offset": 0,
						"slot": "1",
						"type": "t_uint256"
					}
				],
				"types": {
					"t_string_storage": {
						"encoding": "bytes",
						"label": "string",
						"numberOfBytes": "32"
					},
					"t_uint256": {
						"encoding": "inplace",
						"label": "uint256",
						"numberOfBytes": "32"
					}
				}
			},
			"userdoc": {
				"kind": "user",
				"methods": {},
				"version": 1
			}
		}
	}
}