{
	"contracts/1_arithematic.sol": {
		"Arithematic": {
			"abi": [
				{
					"inputs": [
						{
							"internalType": "uint32",
							"name": "_initNumber",
							"type": "uint32"
						}
					],
					"stateMutability": "nonpayable",
					"type": "constructor"
				},
				{
					"inputs": [
						{
							"internalType": "uint32",
							"name": "_addNumber",
							"type": "uint32"
						}
					],
					"name": "add",
					"outputs": [],
					"stateMutability": "nonpayable",
					"type": "function"
				},
				{
					"inputs": [
						{
							"internalType": "uint32",
							"name": "_divNumber",
							"type": "uint32"
						}
					],
					"name": "div",
					"outputs": [],
					"stateMutability": "nonpayable",
					"type": "function"
				},
				{
					"inputs": [],
					"name": "getNumber",
					"outputs": [
						{
							"internalType": "uint32",
							"name": "",
							"type": "uint32"
						}
					],
					"stateMutability": "view",
					"type": "function"
				},
				{
					"inputs": [
						{
							"internalType": "uint32",
							"name": "_mulNumber",
							"type": "uint32"
						}
					],
					"name": "mul",
					"outputs": [],
					"stateMutability": "nonpayable",
					"type": "function"
				},
				{
					"inputs": [
						{
							"internalType": "uint32",
							"name": "_subNumber",
							"type": "uint32"
						}
					],
					"name": "sub",
					"outputs": [],
					"stateMutability": "nonpayable",
					"type": "function"
				}
			],
			"devdoc": {
				"kind": "dev",
				"methods": {},
				"version": 1
			},
			"evm": {
				"assembly": "    /* \"contracts/1_arithematic.sol\":65:682  contract Arithematic {... */\n  mstore(0x40, 0x80)\n    /* \"contracts/1_arithematic.sol\":113:181  constructor(uint32 _initNumber){... */\n  callvalue\n  dup1\n  iszero\n  tag_1\n  jumpi\n  revert(0x00, 0x00)\ntag_1:\n  pop\n  mload(0x40)\n  sub(codesize, bytecodeSize)\n  dup1\n  bytecodeSize\n  dup4\n  codecopy\n  dup2\n  dup2\n  add\n  0x40\n  mstore\n  dup2\n  add\n  swap1\n  tag_2\n  swap2\n  swap1\n  tag_3\n  jump\t// in\ntag_2:\n    /* \"contracts/1_arithematic.sol\":163:174  _initNumber */\n  dup1\n    /* \"contracts/1_arithematic.sol\":154:160  number */\n  0x00\n  0x00\n    /* \"contracts/1_arithematic.sol\":154:174  number = _initNumber */\n  0x0100\n  exp\n  dup2\n  sload\n  dup2\n  0xffffffff\n  mul\n  not\n  and\n  swap1\n  dup4\n  0xffffffff\n  and\n  mul\n  or\n  swap1\n  sstore\n  pop\n    /* \"contracts/1_arithematic.sol\":113:181  constructor(uint32 _initNumber){... */\n  pop\n    /* \"contracts/1_arithematic.sol\":65:682  contract Arithematic {... */\n  jump(tag_6)\n    /* \"#utility.yul\":88:205   */\ntag_8:\n    /* \"#utility.yul\":197:198   */\n  0x00\n    /* \"#utility.yul\":194:195   */\n  0x00\n    /* \"#utility.yul\":187:199   */\n  revert\n    /* \"#utility.yul\":334:427   */\ntag_10:\n    /* \"#utility.yul\":370:377   */\n  0x00\n    /* \"#utility.yul\":410:420   */\n  0xffffffff\n    /* \"#utility.yul\":403:408   */\n  dup3\n    /* \"#utility.yul\":399:421   */\n  and\n    /* \"#utility.yul\":388:421   */\n  swap1\n  pop\n    /* \"#utility.yul\":334:427   */\n  swap2\n  swap1\n  pop\n  jump\t// out\n    /* \"#utility.yul\":433:553   */\ntag_11:\n    /* \"#utility.yul\":505:528   */\n  tag_19\n    /* \"#utility.yul\":522:527   */\n  dup2\n    /* \"#utility.yul\":505:528   */\n  tag_10\n  jump\t// in\ntag_19:\n    /* \"#utility.yul\":498:503   */\n  dup2\n    /* \"#utility.yul\":495:529   */\n  eq\n    /* \"#utility.yul\":485:547   */\n  tag_20\n  jumpi\n    /* \"#utility.yul\":543:544   */\n  0x00\n    /* \"#utility.yul\":540:541   */\n  0x00\n    /* \"#utility.yul\":533:545   */\n  revert\n    /* \"#utility.yul\":485:547   */\ntag_20:\n    /* \"#utility.yul\":433:553   */\n  pop\n  jump\t// out\n    /* \"#utility.yul\":559:700   */\ntag_12:\n    /* \"#utility.yul\":615:620   */\n  0x00\n    /* \"#utility.yul\":646:652   */\n  dup2\n    /* \"#utility.yul\":640:653   */\n  mload\n    /* \"#utility.yul\":631:653   */\n  swap1\n  pop\n    /* \"#utility.yul\":662:694   */\n  tag_22\n    /* \"#utility.yul\":688:693   */\n  dup2\n    /* \"#utility.yul\":662:694   */\n  tag_11\n  jump\t// in\ntag_22:\n    /* \"#utility.yul\":559:700   */\n  swap3\n  swap2\n  pop\n  pop\n  jump\t// out\n    /* \"#utility.yul\":706:1055   */\ntag_3:\n    /* \"#utility.yul\":775:781   */\n  0x00\n    /* \"#utility.yul\":824:826   */\n  0x20\n    /* \"#utility.yul\":812:821   */\n  dup3\n    /* \"#utility.yul\":803:810   */\n  dup5\n    /* \"#utility.yul\":799:822   */\n  sub\n    /* \"#utility.yul\":795:827   */\n  slt\n    /* \"#utility.yul\":792:911   */\n  iszero\n  tag_24\n  jumpi\n    /* \"#utility.yul\":830:909   */\n  tag_25\n  tag_8\n  jump\t// in\ntag_25:\n    /* \"#utility.yul\":792:911   */\ntag_24:\n    /* \"#utility.yul\":950:951   */\n  0x00\n    /* \"#utility.yul\":975:1038   */\n  tag_26\n    /* \"#utility.yul\":1030:1037   */\n  dup5\n    /* \"#utility.yul\":1021:1027   */\n  dup3\n    /* \"#utility.yul\":1010:1019   */\n  dup6\n    /* \"#utility.yul\":1006:1028   */\n  add\n    /* \"#utility.yul\":975:1038   */\n  tag_12\n  jump\t// in\ntag_26:\n    /* \"#utility.yul\":965:1038   */\n  swap2\n  pop\n    /* \"#utility.yul\":921:1048   */\n  pop\n    /* \"#utility.yul\":706:1055   */\n  swap3\n  swap2\n  pop\n  pop\n  jump\t// out\n    /* \"contracts/1_arithematic.sol\":65:682  contract Arithematic {... */\ntag_6:\n  dataSize(sub_0)\n  dup1\n  dataOffset(sub_0)\n  0x00\n  codecopy\n  0x00\n  return\nstop\n\nsub_0: assembly {\n        /* \"contracts/1_arithematic.sol\":65:682  contract Arithematic {... */\n      mstore(0x40, 0x80)\n      callvalue\n      dup1\n      iszero\n      tag_1\n      jumpi\n      revert(0x00, 0x00)\n    tag_1:\n      pop\n      jumpi(tag_2, lt(calldatasize, 0x04))\n      shr(0xe0, calldataload(0x00))\n      dup1\n      0x42425987\n      eq\n      tag_3\n      jumpi\n      dup1\n      0x5600f527\n      eq\n      tag_4\n      jumpi\n      dup1\n      0x6b1e99e8\n      eq\n      tag_5\n      jumpi\n      dup1\n      0xcbe3a072\n      eq\n      tag_6\n      jumpi\n      dup1\n      0xf2c9ecd8\n      eq\n      tag_7\n      jumpi\n    tag_2:\n      revert(0x00, 0x00)\n        /* \"contracts/1_arithematic.sol\":290:388  function sub(uint32 _subNumber ) public {... */\n    tag_3:\n      tag_8\n      0x04\n      dup1\n      calldatasize\n      sub\n      dup2\n      add\n      swap1\n      tag_9\n      swap2\n      swap1\n      tag_10\n      jump\t// in\n    tag_9:\n      tag_11\n      jump\t// in\n    tag_8:\n      stop\n        /* \"contracts/1_arithematic.sol\":394:491  function mul(uint32 _mulNumber) public {... */\n    tag_4:\n      tag_12\n      0x04\n      dup1\n      calldatasize\n      sub\n      dup2\n      add\n      swap1\n      tag_13\n      swap2\n      swap1\n      tag_10\n      jump\t// in\n    tag_13:\n      tag_14\n      jump\t// in\n    tag_12:\n      stop\n        /* \"contracts/1_arithematic.sol\":497:595  function div(uint32 _divNumber ) public {... */\n    tag_5:\n      tag_15\n      0x04\n      dup1\n      calldatasize\n      sub\n      dup2\n      add\n      swap1\n      tag_16\n      swap2\n      swap1\n      tag_10\n      jump\t// in\n    tag_16:\n      tag_17\n      jump\t// in\n    tag_15:\n      stop\n        /* \"contracts/1_arithematic.sol\":187:284  function add(uint32 _addNumber) public {... */\n    tag_6:\n      tag_18\n      0x04\n      dup1\n      calldatasize\n      sub\n      dup2\n      add\n      swap1\n      tag_19\n      swap2\n      swap1\n      tag_10\n      jump\t// in\n    tag_19:\n      tag_20\n      jump\t// in\n    tag_18:\n      stop\n        /* \"contracts/1_arithematic.sol\":601:680  function getNumber() public view returns (uint32){... */\n    tag_7:\n      tag_21\n      tag_22\n      jump\t// in\n    tag_21:\n      mload(0x40)\n      tag_23\n      swap2\n      swap1\n      tag_24\n      jump\t// in\n    tag_23:\n      mload(0x40)\n      dup1\n      swap2\n      sub\n      swap1\n      return\n        /* \"contracts/1_arithematic.sol\":290:388  function sub(uint32 _subNumber ) public {... */\n    tag_11:\n        /* \"contracts/1_arithematic.sol\":350:360  _subNumber */\n      dup1\n        /* \"contracts/1_arithematic.sol\":340:346  number */\n      0x00\n      0x00\n        /* \"contracts/1_arithematic.sol\":340:360  number -= _subNumber */\n      dup3\n      dup3\n      dup3\n      swap1\n      sload\n      swap1\n      0x0100\n      exp\n      swap1\n      div\n      0xffffffff\n      and\n      tag_26\n      swap2\n      swap1\n      tag_27\n      jump\t// in\n    tag_26:\n      swap3\n      pop\n      0x0100\n      exp\n      dup2\n      sload\n      dup2\n      0xffffffff\n      mul\n      not\n      and\n      swap1\n      dup4\n      0xffffffff\n      and\n      mul\n      or\n      swap1\n      sstore\n      pop\n        /* \"contracts/1_arithematic.sol\":370:381  getNumber() */\n      tag_28\n        /* \"contracts/1_arithematic.sol\":370:379  getNumber */\n      tag_22\n        /* \"contracts/1_arithematic.sol\":370:381  getNumber() */\n      jump\t// in\n    tag_28:\n      pop\n        /* \"contracts/1_arithematic.sol\":290:388  function sub(uint32 _subNumber ) public {... */\n      pop\n      jump\t// out\n        /* \"contracts/1_arithematic.sol\":394:491  function mul(uint32 _mulNumber) public {... */\n    tag_14:\n        /* \"contracts/1_arithematic.sol\":453:463  _mulNumber */\n      dup1\n        /* \"contracts/1_arithematic.sol\":443:449  number */\n      0x00\n      0x00\n        /* \"contracts/1_arithematic.sol\":443:463  number *= _mulNumber */\n      dup3\n      dup3\n      dup3\n      swap1\n      sload\n      swap1\n      0x0100\n      exp\n      swap1\n      div\n      0xffffffff\n      and\n      tag_30\n      swap2\n      swap1\n      tag_31\n      jump\t// in\n    tag_30:\n      swap3\n      pop\n      0x0100\n      exp\n      dup2\n      sload\n      dup2\n      0xffffffff\n      mul\n      not\n      and\n      swap1\n      dup4\n      0xffffffff\n      and\n      mul\n      or\n      swap1\n      sstore\n      pop\n        /* \"contracts/1_arithematic.sol\":473:484  getNumber() */\n      tag_32\n        /* \"contracts/1_arithematic.sol\":473:482  getNumber */\n      tag_22\n        /* \"contracts/1_arithematic.sol\":473:484  getNumber() */\n      jump\t// in\n    tag_32:\n      pop\n        /* \"contracts/1_arithematic.sol\":394:491  function mul(uint32 _mulNumber) public {... */\n      pop\n      jump\t// out\n        /* \"contracts/1_arithematic.sol\":497:595  function div(uint32 _divNumber ) public {... */\n    tag_17:\n        /* \"contracts/1_arithematic.sol\":557:567  _divNumber */\n      dup1\n        /* \"contracts/1_arithematic.sol\":547:553  number */\n      0x00\n      0x00\n        /* \"contracts/1_arithematic.sol\":547:567  number /= _divNumber */\n      dup3\n      dup3\n      dup3\n      swap1\n      sload\n      swap1\n      0x0100\n      exp\n      swap1\n      div\n      0xffffffff\n      and\n      tag_34\n      swap2\n      swap1\n      tag_35\n      jump\t// in\n    tag_34:\n      swap3\n      pop\n      0x0100\n      exp\n      dup2\n      sload\n      dup2\n      0xffffffff\n      mul\n      not\n      and\n      swap1\n      dup4\n      0xffffffff\n      and\n      mul\n      or\n      swap1\n      sstore\n      pop\n        /* \"contracts/1_arithematic.sol\":577:588  getNumber() */\n      tag_36\n        /* \"contracts/1_arithematic.sol\":577:586  getNumber */\n      tag_22\n        /* \"contracts/1_arithematic.sol\":577:588  getNumber() */\n      jump\t// in\n    tag_36:\n      pop\n        /* \"contracts/1_arithematic.sol\":497:595  function div(uint32 _divNumber ) public {... */\n      pop\n      jump\t// out\n        /* \"contracts/1_arithematic.sol\":187:284  function add(uint32 _addNumber) public {... */\n    tag_20:\n        /* \"contracts/1_arithematic.sol\":246:256  _addNumber */\n      dup1\n        /* \"contracts/1_arithematic.sol\":236:242  number */\n      0x00\n      0x00\n        /* \"contracts/1_arithematic.sol\":236:256  number += _addNumber */\n      dup3\n      dup3\n      dup3\n      swap1\n      sload\n      swap1\n      0x0100\n      exp\n      swap1\n      div\n      0xffffffff\n      and\n      tag_38\n      swap2\n      swap1\n      tag_39\n      jump\t// in\n    tag_38:\n      swap3\n      pop\n      0x0100\n      exp\n      dup2\n      sload\n      dup2\n      0xffffffff\n      mul\n      not\n      and\n      swap1\n      dup4\n      0xffffffff\n      and\n      mul\n      or\n      swap1\n      sstore\n      pop\n        /* \"contracts/1_arithematic.sol\":266:277  getNumber() */\n      tag_40\n        /* \"contracts/1_arithematic.sol\":266:275  getNumber */\n      tag_22\n        /* \"contracts/1_arithematic.sol\":266:277  getNumber() */\n      jump\t// in\n    tag_40:\n      pop\n        /* \"contracts/1_arithematic.sol\":187:284  function add(uint32 _addNumber) public {... */\n      pop\n      jump\t// out\n        /* \"contracts/1_arithematic.sol\":601:680  function getNumber() public view returns (uint32){... */\n    tag_22:\n        /* \"contracts/1_arithematic.sol\":643:649  uint32 */\n      0x00\n        /* \"contracts/1_arithematic.sol\":667:673  number */\n      0x00\n      0x00\n      swap1\n      sload\n      swap1\n      0x0100\n      exp\n      swap1\n      div\n      0xffffffff\n      and\n        /* \"contracts/1_arithematic.sol\":660:673  return number */\n      swap1\n      pop\n        /* \"contracts/1_arithematic.sol\":601:680  function getNumber() public view returns (uint32){... */\n      swap1\n      jump\t// out\n        /* \"#utility.yul\":88:205   */\n    tag_43:\n        /* \"#utility.yul\":197:198   */\n      0x00\n        /* \"#utility.yul\":194:195   */\n      0x00\n        /* \"#utility.yul\":187:199   */\n      revert\n        /* \"#utility.yul\":334:427   */\n    tag_45:\n        /* \"#utility.yul\":370:377   */\n      0x00\n        /* \"#utility.yul\":410:420   */\n      0xffffffff\n        /* \"#utility.yul\":403:408   */\n      dup3\n        /* \"#utility.yul\":399:421   */\n      and\n        /* \"#utility.yul\":388:421   */\n      swap1\n      pop\n        /* \"#utility.yul\":334:427   */\n      swap2\n      swap1\n      pop\n      jump\t// out\n        /* \"#utility.yul\":433:553   */\n    tag_46:\n        /* \"#utility.yul\":505:528   */\n      tag_57\n        /* \"#utility.yul\":522:527   */\n      dup2\n        /* \"#utility.yul\":505:528   */\n      tag_45\n      jump\t// in\n    tag_57:\n        /* \"#utility.yul\":498:503   */\n      dup2\n        /* \"#utility.yul\":495:529   */\n      eq\n        /* \"#utility.yul\":485:547   */\n      tag_58\n      jumpi\n        /* \"#utility.yul\":543:544   */\n      0x00\n        /* \"#utility.yul\":540:541   */\n      0x00\n        /* \"#utility.yul\":533:545   */\n      revert\n        /* \"#utility.yul\":485:547   */\n    tag_58:\n        /* \"#utility.yul\":433:553   */\n      pop\n      jump\t// out\n        /* \"#utility.yul\":559:696   */\n    tag_47:\n        /* \"#utility.yul\":604:609   */\n      0x00\n        /* \"#utility.yul\":642:648   */\n      dup2\n        /* \"#utility.yul\":629:649   */\n      calldataload\n        /* \"#utility.yul\":620:649   */\n      swap1\n      pop\n        /* \"#utility.yul\":658:690   */\n      tag_60\n        /* \"#utility.yul\":684:689   */\n      dup2\n        /* \"#utility.yul\":658:690   */\n      tag_46\n      jump\t// in\n    tag_60:\n        /* \"#utility.yul\":559:696   */\n      swap3\n      swap2\n      pop\n      pop\n      jump\t// out\n        /* \"#utility.yul\":702:1029   */\n    tag_10:\n        /* \"#utility.yul\":760:766   */\n      0x00\n        /* \"#utility.yul\":809:811   */\n      0x20\n        /* \"#utility.yul\":797:806   */\n      dup3\n        /* \"#utility.yul\":788:795   */\n      dup5\n        /* \"#utility.yul\":784:807   */\n      sub\n        /* \"#utility.yul\":780:812   */\n      slt\n        /* \"#utility.yul\":777:896   */\n      iszero\n      tag_62\n      jumpi\n        /* \"#utility.yul\":815:894   */\n      tag_63\n      tag_43\n      jump\t// in\n    tag_63:\n        /* \"#utility.yul\":777:896   */\n    tag_62:\n        /* \"#utility.yul\":935:936   */\n      0x00\n        /* \"#utility.yul\":960:1012   */\n      tag_64\n        /* \"#utility.yul\":1004:1011   */\n      dup5\n        /* \"#utility.yul\":995:1001   */\n      dup3\n        /* \"#utility.yul\":984:993   */\n      dup6\n        /* \"#utility.yul\":980:1002   */\n      add\n        /* \"#utility.yul\":960:1012   */\n      tag_47\n      jump\t// in\n    tag_64:\n        /* \"#utility.yul\":950:1012   */\n      swap2\n      pop\n        /* \"#utility.yul\":906:1022   */\n      pop\n        /* \"#utility.yul\":702:1029   */\n      swap3\n      swap2\n      pop\n      pop\n      jump\t// out\n        /* \"#utility.yul\":1035:1150   */\n    tag_48:\n        /* \"#utility.yul\":1120:1143   */\n      tag_66\n        /* \"#utility.yul\":1137:1142   */\n      dup2\n        /* \"#utility.yul\":1120:1143   */\n      tag_45\n      jump\t// in\n    tag_66:\n        /* \"#utility.yul\":1115:1118   */\n      dup3\n        /* \"#utility.yul\":1108:1144   */\n      mstore\n        /* \"#utility.yul\":1035:1150   */\n      pop\n      pop\n      jump\t// out\n        /* \"#utility.yul\":1156:1374   */\n    tag_24:\n        /* \"#utility.yul\":1247:1251   */\n      0x00\n        /* \"#utility.yul\":1285:1287   */\n      0x20\n        /* \"#utility.yul\":1274:1283   */\n      dup3\n        /* \"#utility.yul\":1270:1288   */\n      add\n        /* \"#utility.yul\":1262:1288   */\n      swap1\n      pop\n        /* \"#utility.yul\":1298:1367   */\n      tag_68\n        /* \"#utility.yul\":1364:1365   */\n      0x00\n        /* \"#utility.yul\":1353:1362   */\n      dup4\n        /* \"#utility.yul\":1349:1366   */\n      add\n        /* \"#utility.yul\":1340:1346   */\n      dup5\n        /* \"#utility.yul\":1298:1367   */\n      tag_48\n      jump\t// in\n    tag_68:\n        /* \"#utility.yul\":1156:1374   */\n      swap3\n      swap2\n      pop\n      pop\n      jump\t// out\n        /* \"#utility.yul\":1380:1560   */\n    tag_49:\n        /* \"#utility.yul\":1428:1505   */\n      0x4e487b7100000000000000000000000000000000000000000000000000000000\n        /* \"#utility.yul\":1425:1426   */\n      0x00\n        /* \"#utility.yul\":1418:1506   */\n      mstore\n        /* \"#utility.yul\":1525:1529   */\n      0x11\n        /* \"#utility.yul\":1522:1523   */\n      0x04\n        /* \"#utility.yul\":1515:1530   */\n      mstore\n        /* \"#utility.yul\":1549:1553   */\n      0x24\n        /* \"#utility.yul\":1546:1547   */\n      0x00\n        /* \"#utility.yul\":1539:1554   */\n      revert\n        /* \"#utility.yul\":1566:1766   */\n    tag_27:\n        /* \"#utility.yul\":1605:1609   */\n      0x00\n        /* \"#utility.yul\":1625:1644   */\n      tag_71\n        /* \"#utility.yul\":1642:1643   */\n      dup3\n        /* \"#utility.yul\":1625:1644   */\n      tag_45\n      jump\t// in\n    tag_71:\n        /* \"#utility.yul\":1620:1644   */\n      swap2\n      pop\n        /* \"#utility.yul\":1658:1677   */\n      tag_72\n        /* \"#utility.yul\":1675:1676   */\n      dup4\n        /* \"#utility.yul\":1658:1677   */\n      tag_45\n      jump\t// in\n    tag_72:\n        /* \"#utility.yul\":1653:1677   */\n      swap3\n      pop\n        /* \"#utility.yul\":1701:1702   */\n      dup3\n        /* \"#utility.yul\":1698:1699   */\n      dup3\n        /* \"#utility.yul\":1694:1703   */\n      sub\n        /* \"#utility.yul\":1686:1703   */\n      swap1\n      pop\n        /* \"#utility.yul\":1725:1735   */\n      0xffffffff\n        /* \"#utility.yul\":1719:1723   */\n      dup2\n        /* \"#utility.yul\":1716:1736   */\n      gt\n        /* \"#utility.yul\":1713:1759   */\n      iszero\n      tag_73\n      jumpi\n        /* \"#utility.yul\":1739:1757   */\n      tag_74\n      tag_49\n      jump\t// in\n    tag_74:\n        /* \"#utility.yul\":1713:1759   */\n    tag_73:\n        /* \"#utility.yul\":1566:1766   */\n      swap3\n      swap2\n      pop\n      pop\n      jump\t// out\n        /* \"#utility.yul\":1772:2047   */\n    tag_31:\n        /* \"#utility.yul\":1811:1818   */\n      0x00\n        /* \"#utility.yul\":1834:1853   */\n      tag_76\n        /* \"#utility.yul\":1851:1852   */\n      dup3\n        /* \"#utility.yul\":1834:1853   */\n      tag_45\n      jump\t// in\n    tag_76:\n        /* \"#utility.yul\":1829:1853   */\n      swap2\n      pop\n        /* \"#utility.yul\":1867:1886   */\n      tag_77\n        /* \"#utility.yul\":1884:1885   */\n      dup4\n        /* \"#utility.yul\":1867:1886   */\n      tag_45\n      jump\t// in\n    tag_77:\n        /* \"#utility.yul\":1862:1886   */\n      swap3\n      pop\n        /* \"#utility.yul\":1921:1922   */\n      dup3\n        /* \"#utility.yul\":1918:1919   */\n      dup3\n        /* \"#utility.yul\":1914:1923   */\n      mul\n        /* \"#utility.yul\":1943:1972   */\n      tag_78\n        /* \"#utility.yul\":1960:1971   */\n      dup2\n        /* \"#utility.yul\":1943:1972   */\n      tag_45\n      jump\t// in\n    tag_78:\n        /* \"#utility.yul\":1932:1972   */\n      swap2\n      pop\n        /* \"#utility.yul\":2004:2015   */\n      dup1\n        /* \"#utility.yul\":1995:2002   */\n      dup3\n        /* \"#utility.yul\":1992:2016   */\n      eq\n        /* \"#utility.yul\":1982:2040   */\n      tag_79\n      jumpi\n        /* \"#utility.yul\":2020:2038   */\n      tag_80\n      tag_49\n      jump\t// in\n    tag_80:\n        /* \"#utility.yul\":1982:2040   */\n    tag_79:\n        /* \"#utility.yul\":1819:2047   */\n      pop\n        /* \"#utility.yul\":1772:2047   */\n      swap3\n      swap2\n      pop\n      pop\n      jump\t// out\n        /* \"#utility.yul\":2053:2233   */\n    tag_50:\n        /* \"#utility.yul\":2101:2178   */\n      0x4e487b7100000000000000000000000000000000000000000000000000000000\n        /* \"#utility.yul\":2098:2099   */\n      0x00\n        /* \"#utility.yul\":2091:2179   */\n      mstore\n        /* \"#utility.yul\":2198:2202   */\n      0x12\n        /* \"#utility.yul\":2195:2196   */\n      0x04\n        /* \"#utility.yul\":2188:2203   */\n      mstore\n        /* \"#utility.yul\":2222:2226   */\n      0x24\n        /* \"#utility.yul\":2219:2220   */\n      0x00\n        /* \"#utility.yul\":2212:2227   */\n      revert\n        /* \"#utility.yul\":2239:2421   */\n    tag_35:\n        /* \"#utility.yul\":2278:2279   */\n      0x00\n        /* \"#utility.yul\":2295:2314   */\n      tag_83\n        /* \"#utility.yul\":2312:2313   */\n      dup3\n        /* \"#utility.yul\":2295:2314   */\n      tag_45\n      jump\t// in\n    tag_83:\n        /* \"#utility.yul\":2290:2314   */\n      swap2\n      pop\n        /* \"#utility.yul\":2328:2347   */\n      tag_84\n        /* \"#utility.yul\":2345:2346   */\n      dup4\n        /* \"#utility.yul\":2328:2347   */\n      tag_45\n      jump\t// in\n    tag_84:\n        /* \"#utility.yul\":2323:2347   */\n      swap3\n      pop\n        /* \"#utility.yul\":2366:2367   */\n      dup3\n        /* \"#utility.yul\":2356:2391   */\n      tag_85\n      jumpi\n        /* \"#utility.yul\":2371:2389   */\n      tag_86\n      tag_50\n      jump\t// in\n    tag_86:\n        /* \"#utility.yul\":2356:2391   */\n    tag_85:\n        /* \"#utility.yul\":2413:2414   */\n      dup3\n        /* \"#utility.yul\":2410:2411   */\n      dup3\n        /* \"#utility.yul\":2406:2415   */\n      div\n        /* \"#utility.yul\":2401:2415   */\n      swap1\n      pop\n        /* \"#utility.yul\":2239:2421   */\n      swap3\n      swap2\n      pop\n      pop\n      jump\t// out\n        /* \"#utility.yul\":2427:2624   */\n    tag_39:\n        /* \"#utility.yul\":2466:2469   */\n      0x00\n        /* \"#utility.yul\":2485:2504   */\n      tag_88\n        /* \"#utility.yul\":2502:2503   */\n      dup3\n        /* \"#utility.yul\":2485:2504   */\n      tag_45\n      jump\t// in\n    tag_88:\n        /* \"#utility.yul\":2480:2504   */\n      swap2\n      pop\n        /* \"#utility.yul\":2518:2537   */\n      tag_89\n        /* \"#utility.yul\":2535:2536   */\n      dup4\n        /* \"#utility.yul\":2518:2537   */\n      tag_45\n      jump\t// in\n    tag_89:\n        /* \"#utility.yul\":2513:2537   */\n      swap3\n      pop\n        /* \"#utility.yul\":2560:2561   */\n      dup3\n        /* \"#utility.yul\":2557:2558   */\n      dup3\n        /* \"#utility.yul\":2553:2562   */\n      add\n        /* \"#utility.yul\":2546:2562   */\n      swap1\n      pop\n        /* \"#utility.yul\":2583:2593   */\n      0xffffffff\n        /* \"#utility.yul\":2578:2581   */\n      dup2\n        /* \"#utility.yul\":2575:2594   */\n      gt\n        /* \"#utility.yul\":2572:2617   */\n      iszero\n      tag_90\n      jumpi\n        /* \"#utility.yul\":2597:2615   */\n      tag_91\n      tag_49\n      jump\t// in\n    tag_91:\n        /* \"#utility.yul\":2572:2617   */\n    tag_90:\n        /* \"#utility.yul\":2427:2624   */\n      swap3\n      swap2\n      pop\n      pop\n      jump\t// out\n\n    auxdata: 0xa264697066735822122082e22817b0d43735fee2af0fd64574c244445973cff7c3eb9577c5949497680d64736f6c634300081e0033\n}\n",
				"bytecode": {
					"linkReferences": {},
					"object": "6080604052348015600e575f5ffd5b506040516104d93803806104d98339818101604052810190602e9190608a565b805f5f6101000a81548163ffffffff021916908363ffffffff1602179055505060b0565b5f5ffd5b5f63ffffffff82169050919050565b606c816056565b81146075575f5ffd5b50565b5f815190506084816065565b92915050565b5f60208284031215609c57609b6052565b5b5f60a7848285016078565b91505092915050565b61041c806100bd5f395ff3fe608060405234801561000f575f5ffd5b5060043610610055575f3560e01c806342425987146100595780635600f527146100755780636b1e99e814610091578063cbe3a072146100ad578063f2c9ecd8146100c9575b5f5ffd5b610073600480360381019061006e919061025f565b6100e7565b005b61008f600480360381019061008a919061025f565b610130565b005b6100ab60048036038101906100a6919061025f565b610179565b005b6100c760048036038101906100c2919061025f565b6101c2565b005b6100d161020b565b6040516100de9190610299565b60405180910390f35b805f5f8282829054906101000a900463ffffffff1661010691906102df565b92506101000a81548163ffffffff021916908363ffffffff16021790555061012c61020b565b5050565b805f5f8282829054906101000a900463ffffffff1661014f9190610316565b92506101000a81548163ffffffff021916908363ffffffff16021790555061017561020b565b5050565b805f5f8282829054906101000a900463ffffffff16610198919061037f565b92506101000a81548163ffffffff021916908363ffffffff1602179055506101be61020b565b5050565b805f5f8282829054906101000a900463ffffffff166101e191906103af565b92506101000a81548163ffffffff021916908363ffffffff16021790555061020761020b565b5050565b5f5f5f9054906101000a900463ffffffff16905090565b5f5ffd5b5f63ffffffff82169050919050565b61023e81610226565b8114610248575f5ffd5b50565b5f8135905061025981610235565b92915050565b5f6020828403121561027457610273610222565b5b5f6102818482850161024b565b91505092915050565b61029381610226565b82525050565b5f6020820190506102ac5f83018461028a565b92915050565b7f4e487b71000000000000000000000000000000000000000000000000000000005f52601160045260245ffd5b5f6102e982610226565b91506102f483610226565b9250828203905063ffffffff8111156103105761030f6102b2565b5b92915050565b5f61032082610226565b915061032b83610226565b925082820261033981610226565b915080821461034b5761034a6102b2565b5b5092915050565b7f4e487b71000000000000000000000000000000000000000000000000000000005f52601260045260245ffd5b5f61038982610226565b915061039483610226565b9250826103a4576103a3610352565b5b828204905092915050565b5f6103b982610226565b91506103c483610226565b9250828201905063ffffffff8111156103e0576103df6102b2565b5b9291505056fea264697066735822122082e22817b0d43735fee2af0fd64574c244445973cff7c3eb9577c5949497680d64736f6c634300081e0033",
					"opcodes": "PUSH1 0x80 PUSH1 0x40 MSTORE CALLVALUE DUP1 ISZERO PUSH1 0xE JUMPI PUSH0 PUSH0 REVERT JUMPDEST POP PUSH1 0x40 MLOAD PUSH2 0x4D9 CODESIZE SUB DUP1 PUSH2 0x4D9 DUP4 CODECOPY DUP2 DUP2 ADD PUSH1 0x40 MSTORE DUP2 ADD SWAP1 PUSH1 0x2E SWAP2 SWAP1 PUSH1 0x8A JUMP JUMPDEST DUP1 PUSH0 PUSH0 PUSH2 0x100 EXP DUP2 SLOAD DUP2 PUSH4 0xFFFFFFFF MUL NOT AND SWAP1 DUP4 PUSH4 0xFFFFFFFF AND MUL OR SWAP1 SSTORE POP POP PUSH1 0xB0 JUMP JUMPDEST PUSH0 PUSH0 REVERT JUMPDEST PUSH0 PUSH4 0xFFFFFFFF DUP3 AND SWAP1 POP SWAP2 SWAP1 POP JUMP JUMPDEST PUSH1 0x6C DUP2 PUSH1 0x56 JUMP JUMPDEST DUP2 EQ PUSH1 0x75 JUMPI PUSH0 PUSH0 REVERT JUMPDEST POP JUMP JUMPDEST PUSH0 DUP2 MLOAD SWAP1 POP PUSH1 0x84 DUP2 PUSH1 0x65 JUMP JUMPDEST SWAP3 SWAP2 POP POP JUMP JUMPDEST PUSH0 PUSH1 0x20 DUP3 DUP5 SUB SLT ISZERO PUSH1 0x9C JUMPI PUSH1 0x9B PUSH1 0x52 JUMP JUMPDEST JUMPDEST PUSH0 PUSH1 0xA7 DUP5 DUP3 DUP6 ADD PUSH1 0x78 JUMP JUMPDEST SWAP2 POP POP SWAP3 SWAP2 POP POP JUMP JUMPDEST PUSH2 0x41C DUP1 PUSH2 0xBD PUSH0 CODECOPY PUSH0 RETURN INVALID PUSH1 0x80 PUSH1 0x40 MSTORE CALLVALUE DUP1 ISZERO PUSH2 0xF JUMPI PUSH0 PUSH0 REVERT JUMPDEST POP PUSH1 0x4 CALLDATASIZE LT PUSH2 0x55 JUMPI PUSH0 CALLDATALOAD PUSH1 0xE0 SHR DUP1 PUSH4 0x42425987 EQ PUSH2 0x59 JUMPI DUP1 PUSH4 0x5600F527 EQ PUSH2 0x75 JUMPI DUP1 PUSH4 0x6B1E99E8 EQ PUSH2 0x91 JUMPI DUP1 PUSH4 0xCBE3A072 EQ PUSH2 0xAD JUMPI DUP1 PUSH4 0xF2C9ECD8 EQ PUSH2 0xC9 JUMPI JUMPDEST PUSH0 PUSH0 REVERT JUMPDEST PUSH2 0x73 PUSH1 0x4 DUP1 CALLDATASIZE SUB DUP2 ADD SWAP1 PUSH2 0x6E SWAP2 SWAP1 PUSH2 0x25F JUMP JUMPDEST PUSH2 0xE7 JUMP JUMPDEST STOP JUMPDEST PUSH2 0x8F PUSH1 0x4 DUP1 CALLDATASIZE SUB DUP2 ADD SWAP1 PUSH2 0x8A SWAP2 SWAP1 PUSH2 0x25F JUMP JUMPDEST PUSH2 0x130 JUMP JUMPDEST STOP JUMPDEST PUSH2 0xAB PUSH1 0x4 DUP1 CALLDATASIZE SUB DUP2 ADD SWAP1 PUSH2 0xA6 SWAP2 SWAP1 PUSH2 0x25F JUMP JUMPDEST PUSH2 0x179 JUMP JUMPDEST STOP JUMPDEST PUSH2 0xC7 PUSH1 0x4 DUP1 CALLDATASIZE SUB DUP2 ADD SWAP1 PUSH2 0xC2 SWAP2 SWAP1 PUSH2 0x25F JUMP JUMPDEST PUSH2 0x1C2 JUMP JUMPDEST STOP JUMPDEST PUSH2 0xD1 PUSH2 0x20B JUMP JUMPDEST PUSH1 0x40 MLOAD PUSH2 0xDE SWAP2 SWAP1 PUSH2 0x299 JUMP JUMPDEST PUSH1 0x40 MLOAD DUP1 SWAP2 SUB SWAP1 RETURN JUMPDEST DUP1 PUSH0 PUSH0 DUP3 DUP3 DUP3 SWAP1 SLOAD SWAP1 PUSH2 0x100 EXP SWAP1 DIV PUSH4 0xFFFFFFFF AND PUSH2 0x106 SWAP2 SWAP1 PUSH2 0x2DF JUMP JUMPDEST SWAP3 POP PUSH2 0x100 EXP DUP2 SLOAD DUP2 PUSH4 0xFFFFFFFF MUL NOT AND SWAP1 DUP4 PUSH4 0xFFFFFFFF AND MUL OR SWAP1 SSTORE POP PUSH2 0x12C PUSH2 0x20B JUMP JUMPDEST POP POP JUMP JUMPDEST DUP1 PUSH0 PUSH0 DUP3 DUP3 DUP3 SWAP1 SLOAD SWAP1 PUSH2 0x100 EXP SWAP1 DIV PUSH4 0xFFFFFFFF AND PUSH2 0x14F SWAP2 SWAP1 PUSH2 0x316 JUMP JUMPDEST SWAP3 POP PUSH2 0x100 EXP DUP2 SLOAD DUP2 PUSH4 0xFFFFFFFF MUL NOT AND SWAP1 DUP4 PUSH4 0xFFFFFFFF AND MUL OR SWAP1 SSTORE POP PUSH2 0x175 PUSH2 0x20B JUMP JUMPDEST POP POP JUMP JUMPDEST DUP1 PUSH0 PUSH0 DUP3 DUP3 DUP3 SWAP1 SLOAD SWAP1 PUSH2 0x100 EXP SWAP1 DIV PUSH4 0xFFFFFFFF AND PUSH2 0x198 SWAP2 SWAP1 PUSH2 0x37F JUMP JUMPDEST SWAP3 POP PUSH2 0x100 EXP DUP2 SLOAD DUP2 PUSH4 0xFFFFFFFF MUL NOT AND SWAP1 DUP4 PUSH4 0xFFFFFFFF AND MUL OR SWAP1 SSTORE POP PUSH2 0x1BE PUSH2 0x20B JUMP JUMPDEST POP POP JUMP JUMPDEST DUP1 PUSH0 PUSH0 DUP3 DUP3 DUP3 SWAP1 SLOAD SWAP1 PUSH2 0x100 EXP SWAP1 DIV PUSH4 0xFFFFFFFF AND PUSH2 0x1E1 SWAP2 SWAP1 PUSH2 0x3AF JUMP JUMPDEST SWAP3 POP PUSH2 0x100 EXP DUP2 SLOAD DUP2 PUSH4 0xFFFFFFFF MUL NOT AND SWAP1 DUP4 PUSH4 0xFFFFFFFF AND MUL OR SWAP1 SSTORE POP PUSH2 0x207 PUSH2 0x20B JUMP JUMPDEST POP POP JUMP JUMPDEST PUSH0 PUSH0 PUSH0 SWAP1 SLOAD SWAP1 PUSH2 0x100 EXP SWAP1 DIV PUSH4 0xFFFFFFFF AND SWAP1 POP SWAP1 JUMP JUMPDEST PUSH0 PUSH0 REVERT JUMPDEST PUSH0 PUSH4 0xFFFFFFFF DUP3 AND SWAP1 POP SWAP2 SWAP1 POP JUMP JUMPDEST PUSH2 0x23E DUP2 PUSH2 0x226 JUMP JUMPDEST DUP2 EQ PUSH2 0x248 JUMPI PUSH0 PUSH0 REVERT JUMPDEST POP JUMP JUMPDEST PUSH0 DUP2 CALLDATALOAD SWAP1 POP PUSH2 0x259 DUP2 PUSH2 0x235 JUMP JUMPDEST SWAP3 SWAP2 POP POP JUMP JUMPDEST PUSH0 PUSH1 0x20 DUP3 DUP5 SUB SLT ISZERO PUSH2 0x274 JUMPI PUSH2 0x273 PUSH2 0x222 JUMP JUMPDEST JUMPDEST PUSH0 PUSH2 0x281 DUP5 DUP3 DUP6 ADD PUSH2 0x24B JUMP JUMPDEST SWAP2 POP POP SWAP3 SWAP2 POP POP JUMP JUMPDEST PUSH2 0x293 DUP2 PUSH2 0x226 JUMP JUMPDEST DUP3 MSTORE POP POP JUMP JUMPDEST PUSH0 PUSH1 0x20 DUP3 ADD SWAP1 POP PUSH2 0x2AC PUSH0 DUP4 ADD DUP5 PUSH2 0x28A JUMP JUMPDEST SWAP3 SWAP2 POP POP JUMP JUMPDEST PUSH32 0x4E487B7100000000000000000000000000000000000000000000000000000000 PUSH0 MSTORE PUSH1 0x11 PUSH1 0x4 MSTORE PUSH1 0x24 PUSH0 REVERT JUMPDEST PUSH0 PUSH2 0x2E9 DUP3 PUSH2 0x226 JUMP JUMPDEST SWAP2 POP PUSH2 0x2F4 DUP4 PUSH2 0x226 JUMP JUMPDEST SWAP3 POP DUP3 DUP3 SUB SWAP1 POP PUSH4 0xFFFFFFFF DUP2 GT ISZERO PUSH2 0x310 JUMPI PUSH2 0x30F PUSH2 0x2B2 JUMP JUMPDEST JUMPDEST SWAP3 SWAP2 POP POP JUMP JUMPDEST PUSH0 PUSH2 0x320 DUP3 PUSH2 0x226 JUMP JUMPDEST SWAP2 POP PUSH2 0x32B DUP4 PUSH2 0x226 JUMP JUMPDEST SWAP3 POP DUP3 DUP3 MUL PUSH2 0x339 DUP2 PUSH2 0x226 JUMP JUMPDEST SWAP2 POP DUP1 DUP3 EQ PUSH2 0x34B JUMPI PUSH2 0x34A PUSH2 0x2B2 JUMP JUMPDEST JUMPDEST POP SWAP3 SWAP2 POP POP JUMP JUMPDEST PUSH32 0x4E487B7100000000000000000000000000000000000000000000000000000000 PUSH0 MSTORE PUSH1 0x12 PUSH1 0x4 MSTORE PUSH1 0x24 PUSH0 REVERT JUMPDEST PUSH0 PUSH2 0x389 DUP3 PUSH2 0x226 JUMP JUMPDEST SWAP2 POP PUSH2 0x394 DUP4 PUSH2 0x226 JUMP JUMPDEST SWAP3 POP DUP3 PUSH2 0x3A4 JUMPI PUSH2 0x3A3 PUSH2 0x352 JUMP JUMPDEST JUMPDEST DUP3 DUP3 DIV SWAP1 POP SWAP3 SWAP2 POP POP JUMP JUMPDEST PUSH0 PUSH2 0x3B9 DUP3 PUSH2 0x226 JUMP JUMPDEST SWAP2 POP PUSH2 0x3C4 DUP4 PUSH2 0x226 JUMP JUMPDEST SWAP3 POP DUP3 DUP3 ADD SWAP1 POP PUSH4 0xFFFFFFFF DUP2 GT ISZERO PUSH2 0x3E0 JUMPI PUSH2 0x3DF PUSH2 0x2B2 JUMP JUMPDEST JUMPDEST SWAP3 SWAP2 POP POP JUMP INVALID LOG2 PUSH5 0x6970667358 0x22 SLT KECCAK256 DUP3 0xE2 0x28 OR 0xB0 0xD4 CALLDATACOPY CALLDATALOAD INVALID 0xE2 0xAF 0xF 0xD6 GASLIMIT PUSH21 0xC244445973CFF7C3EB9577C5949497680D64736F6C PUSH4 0x4300081E STOP CALLER "
				},
				"gasEstimates": {
					"creation": {
						"codeDepositCost": "210400",
						"executionCost": "infinite",
						"totalCost": "infinite"
					},
					"external": {
						"add(uint32)": "infinite",
						"div(uint32)": "infinite",
						"getNumber()": "2538",
						"mul(uint32)": "infinite",
						"sub(uint32)": "infinite"
					}
				},
				"methodIdentifiers": {
					"add(uint32)": "cbe3a072",
					"div(uint32)": "6b1e99e8",
					"getNumber()": "f2c9ecd8",
					"mul(uint32)": "5600f527",
					"sub(uint32)": "42425987"
				}
			},
			"storageLayout": {
				"storage": [
					{
						"astId": 3,
						"contract": "contracts/1_arithematic.sol:Arithematic",
						"label": "number",
						"offset": 0,
						"slot": "0",
						"type": "t_uint32"
					}
				],
				"types": {
					"t_uint32": {
						"encoding": "inplace",
						"label": "uint32",
						"numberOfBytes": "4"
					}
				}
			},
			"userdoc": {
				"kind": "user",
				"methods": {},
				"version": 1
			}
		}
	}
}