{
	"contracts/12_token_1.sol": {
		"BirCoin": {
			"abi": [
				{
					"inputs": [],
					"stateMutability": "nonpayable",
					"type": "constructor"
				},
				{
					"anonymous": false,
					"inputs": [
						{
							"indexed": true,
							"internalType": "address",
							"name": "owner",
							"type": "address"
						},
						{
							"indexed": true,
							"internalType": "address",
							"name": "spender",
							"type": "address"
						},
						{
							"indexed": false,
							"internalType": "uint256",
							"name": "value",
							"type": "uint256"
						}
					],
					"name": "Approve",
					"type": "event"
				},
				{
					"anonymous": false,
					"inputs": [
						{
							"indexed": true,
							"internalType": "address",
							"name": "from",
							"type": "address"
						},
						{
							"indexed": true,
							"internalType": "address",
							"name": "to",
							"type": "address"
						},
						{
							"indexed": false,
							"internalType": "uint256",
							"name": "value",
							"type": "uint256"
						}
					],
					"name": "Transfer",
					"type": "event"
				},
				{
					"inputs": [
						{
							"internalType": "address",
							"name": "to",
							"type": "address"
						},
						{
							"internalType": "uint256",
							"name": "amount",
							"type": "uint256"
						}
					],
					"name": "allow",
					"outputs": [],
					"stateMutability": "nonpayable",
					"type": "function"
				},
				{
					"inputs": [
						{
							"internalType": "address",
							"name": "",
							"type": "address"
						},
						{
							"internalType": "address",
							"name": "",
							"type": "address"
						}
					],
					"name": "allowance",
					"outputs": [
						{
							"internalType": "uint256",
							"name": "",
							"type": "uint256"
						}
					],
					"stateMutability": "view",
					"type": "function"
				},
				{
					"inputs": [
						{
							"internalType": "address",
							"name": "",
							"type": "address"
						}
					],
					"name": "balances",
					"outputs": [
						{
							"internalType": "uint256",
							"name": "",
							"type": "uint256"
						}
					],
					"stateMutability": "view",
					"type": "function"
				},
				{
					"inputs": [
						{
							"internalType": "uint256",
							"name": "amount",
							"type": "uint256"
						}
					],
					"name": "burn",
					"outputs": [],
					"stateMutability": "nonpayable",
					"type": "function"
				},
				{
					"inputs": [
						{
							"internalType": "address",
							"name": "to",
							"type": "address"
						},
						{
							"internalType": "uint256",
							"name": "amount",
							"type": "uint256"
						}
					],
					"name": "mintTo",
					"outputs": [],
					"stateMutability": "nonpayable",
					"type": "function"
				},
				{
					"inputs": [],
					"name": "name",
					"outputs": [
						{
							"internalType": "string",
							"name": "",
							"type": "string"
						}
					],
					"stateMutability": "view",
					"type": "function"
				},
				{
					"inputs": [],
					"name": "owner",
					"outputs": [
						{
							"internalType": "address",
							"name": "",
							"type": "address"
						}
					],
					"stateMutability": "view",
					"type": "function"
				},
				{
					"inputs": [],
					"name": "supply",
					"outputs": [
						{
							"internalType": "uint256",
							"name": "",
							"type": "uint256"
						}
					],
					"stateMutability": "view",
					"type": "function"
				},
				{
					"inputs": [
						{
							"internalType": "address",
							"name": "to",
							"type": "address"
						},
						{
							"internalType": "uint256",
							"name": "amount",
							"type": "uint256"
						}
					],
					"name": "transfer",
					"outputs": [],
					"stateMutability": "nonpayable",
					"type": "function"
				},
				{
					"inputs": [
						{
							"internalType": "address",
							"name": "from",
							"type": "address"
						},
						{
							"internalType": "address",
							"name": "to",
							"type": "address"
						},
						{
							"internalType": "uint256",
							"name": "amount",
							"type": "uint256"
						}
					],
					"name": "transferFrom",
					"outputs": [],
					"stateMutability": "nonpayable",
					"type": "function"
				}
			],
			"devdoc": {
				"kind": "dev",
				"methods": {},
				"version": 1
			},
			"evm": {
				"assembly": "    /* \"contracts/12_token_1.sol\":162:2040  contract BirCoin {... */\n  mstore(0x40, 0x80)\n    /* \"contracts/12_token_1.sol\":185:215  string public name = \"BirCoin\" */\n  mload(0x40)\n  dup1\n  0x40\n  add\n  0x40\n  mstore\n  dup1\n  0x07\n  dup2\n  mstore\n  0x20\n  add\n  0x426972436f696e00000000000000000000000000000000000000000000000000\n  dup2\n  mstore\n  pop\n  0x00\n  swap1\n  dup2\n  tag_1\n  swap2\n  swap1\n  tag_2\n  jump\t// in\ntag_1:\n  pop\n    /* \"contracts/12_token_1.sol\":242:243  0 */\n  0x00\n    /* \"contracts/12_token_1.sol\":221:243  uint public supply = 0 */\n  0x01\n  sstore\n    /* \"contracts/12_token_1.sol\":620:668  constructor(){... */\n  callvalue\n  dup1\n  iszero\n  tag_3\n  jumpi\n  revert(0x00, 0x00)\ntag_3:\n  pop\n    /* \"contracts/12_token_1.sol\":651:661  msg.sender */\n  caller\n    /* \"contracts/12_token_1.sol\":643:648  owner */\n  0x02\n  0x00\n    /* \"contracts/12_token_1.sol\":643:661  owner = msg.sender */\n  0x0100\n  exp\n  dup2\n  sload\n  dup2\n  0xffffffffffffffffffffffffffffffffffffffff\n  mul\n  not\n  and\n  swap1\n  dup4\n  0xffffffffffffffffffffffffffffffffffffffff\n  and\n  mul\n  or\n  swap1\n  sstore\n  pop\n    /* \"contracts/12_token_1.sol\":162:2040  contract BirCoin {... */\n  jump(tag_6)\n    /* \"#utility.yul\":7:106   */\ntag_7:\n    /* \"#utility.yul\":59:65   */\n  0x00\n    /* \"#utility.yul\":93:98   */\n  dup2\n    /* \"#utility.yul\":87:99   */\n  mload\n    /* \"#utility.yul\":77:99   */\n  swap1\n  pop\n    /* \"#utility.yul\":7:106   */\n  swap2\n  swap1\n  pop\n  jump\t// out\n    /* \"#utility.yul\":112:292   */\ntag_8:\n    /* \"#utility.yul\":160:237   */\n  0x4e487b7100000000000000000000000000000000000000000000000000000000\n    /* \"#utility.yul\":157:158   */\n  0x00\n    /* \"#utility.yul\":150:238   */\n  mstore\n    /* \"#utility.yul\":257:261   */\n  0x41\n    /* \"#utility.yul\":254:255   */\n  0x04\n    /* \"#utility.yul\":247:262   */\n  mstore\n    /* \"#utility.yul\":281:285   */\n  0x24\n    /* \"#utility.yul\":278:279   */\n  0x00\n    /* \"#utility.yul\":271:286   */\n  revert\n    /* \"#utility.yul\":298:478   */\ntag_9:\n    /* \"#utility.yul\":346:423   */\n  0x4e487b7100000000000000000000000000000000000000000000000000000000\n    /* \"#utility.yul\":343:344   */\n  0x00\n    /* \"#utility.yul\":336:424   */\n  mstore\n    /* \"#utility.yul\":443:447   */\n  0x22\n    /* \"#utility.yul\":440:441   */\n  0x04\n    /* \"#utility.yul\":433:448   */\n  mstore\n    /* \"#utility.yul\":467:471   */\n  0x24\n    /* \"#utility.yul\":464:465   */\n  0x00\n    /* \"#utility.yul\":457:472   */\n  revert\n    /* \"#utility.yul\":484:804   */\ntag_10:\n    /* \"#utility.yul\":528:534   */\n  0x00\n    /* \"#utility.yul\":565:566   */\n  0x02\n    /* \"#utility.yul\":559:563   */\n  dup3\n    /* \"#utility.yul\":555:567   */\n  div\n    /* \"#utility.yul\":545:567   */\n  swap1\n  pop\n    /* \"#utility.yul\":612:613   */\n  0x01\n    /* \"#utility.yul\":606:610   */\n  dup3\n    /* \"#utility.yul\":602:614   */\n  and\n    /* \"#utility.yul\":633:651   */\n  dup1\n    /* \"#utility.yul\":623:704   */\n  tag_32\n  jumpi\n    /* \"#utility.yul\":689:693   */\n  0x7f\n    /* \"#utility.yul\":681:687   */\n  dup3\n    /* \"#utility.yul\":677:694   */\n  and\n    /* \"#utility.yul\":667:694   */\n  swap2\n  pop\n    /* \"#utility.yul\":623:704   */\ntag_32:\n    /* \"#utility.yul\":751:753   */\n  0x20\n    /* \"#utility.yul\":743:749   */\n  dup3\n    /* \"#utility.yul\":740:754   */\n  lt\n    /* \"#utility.yul\":720:738   */\n  dup2\n    /* \"#utility.yul\":717:755   */\n  sub\n    /* \"#utility.yul\":714:798   */\n  tag_33\n  jumpi\n    /* \"#utility.yul\":770:788   */\n  tag_34\n  tag_9\n  jump\t// in\ntag_34:\n    /* \"#utility.yul\":714:798   */\ntag_33:\n    /* \"#utility.yul\":535:804   */\n  pop\n    /* \"#utility.yul\":484:804   */\n  swap2\n  swap1\n  pop\n  jump\t// out\n    /* \"#utility.yul\":810:951   */\ntag_11:\n    /* \"#utility.yul\":859:863   */\n  0x00\n    /* \"#utility.yul\":882:885   */\n  dup2\n    /* \"#utility.yul\":874:885   */\n  swap1\n  pop\n    /* \"#utility.yul\":905:908   */\n  dup2\n    /* \"#utility.yul\":902:903   */\n  0x00\n    /* \"#utility.yul\":895:909   */\n  mstore\n    /* \"#utility.yul\":939:943   */\n  0x20\n    /* \"#utility.yul\":936:937   */\n  0x00\n    /* \"#utility.yul\":926:944   */\n  keccak256\n    /* \"#utility.yul\":918:944   */\n  swap1\n  pop\n    /* \"#utility.yul\":810:951   */\n  swap2\n  swap1\n  pop\n  jump\t// out\n    /* \"#utility.yul\":957:1050   */\ntag_12:\n    /* \"#utility.yul\":994:1000   */\n  0x00\n    /* \"#utility.yul\":1041:1043   */\n  0x20\n    /* \"#utility.yul\":1036:1038   */\n  0x1f\n    /* \"#utility.yul\":1029:1034   */\n  dup4\n    /* \"#utility.yul\":1025:1039   */\n  add\n    /* \"#utility.yul\":1021:1044   */\n  div\n    /* \"#utility.yul\":1011:1044   */\n  swap1\n  pop\n    /* \"#utility.yul\":957:1050   */\n  swap2\n  swap1\n  pop\n  jump\t// out\n    /* \"#utility.yul\":1056:1163   */\ntag_13:\n    /* \"#utility.yul\":1100:1108   */\n  0x00\n    /* \"#utility.yul\":1150:1155   */\n  dup3\n    /* \"#utility.yul\":1144:1148   */\n  dup3\n    /* \"#utility.yul\":1140:1156   */\n  shl\n    /* \"#utility.yul\":1119:1156   */\n  swap1\n  pop\n    /* \"#utility.yul\":1056:1163   */\n  swap3\n  swap2\n  pop\n  pop\n  jump\t// out\n    /* \"#utility.yul\":1169:1562   */\ntag_14:\n    /* \"#utility.yul\":1238:1244   */\n  0x00\n    /* \"#utility.yul\":1288:1289   */\n  0x08\n    /* \"#utility.yul\":1276:1286   */\n  dup4\n    /* \"#utility.yul\":1272:1290   */\n  mul\n    /* \"#utility.yul\":1311:1408   */\n  tag_39\n    /* \"#utility.yul\":1341:1407   */\n  0xffffffffffffffffffffffffffffffffffffffffffffffffffffffffffffffff\n    /* \"#utility.yul\":1330:1339   */\n  dup3\n    /* \"#utility.yul\":1311:1408   */\n  tag_13\n  jump\t// in\ntag_39:\n    /* \"#utility.yul\":1429:1468   */\n  tag_40\n    /* \"#utility.yul\":1459:1467   */\n  dup7\n    /* \"#utility.yul\":1448:1457   */\n  dup4\n    /* \"#utility.yul\":1429:1468   */\n  tag_13\n  jump\t// in\ntag_40:\n    /* \"#utility.yul\":1417:1468   */\n  swap6\n  pop\n    /* \"#utility.yul\":1501:1505   */\n  dup1\n    /* \"#utility.yul\":1497:1506   */\n  not\n    /* \"#utility.yul\":1490:1495   */\n  dup5\n    /* \"#utility.yul\":1486:1507   */\n  and\n    /* \"#utility.yul\":1477:1507   */\n  swap4\n  pop\n    /* \"#utility.yul\":1550:1554   */\n  dup1\n    /* \"#utility.yul\":1540:1548   */\n  dup7\n    /* \"#utility.yul\":1536:1555   */\n  and\n    /* \"#utility.yul\":1529:1534   */\n  dup5\n    /* \"#utility.yul\":1526:1556   */\n  or\n    /* \"#utility.yul\":1516:1556   */\n  swap3\n  pop\n    /* \"#utility.yul\":1245:1562   */\n  pop\n  pop\n    /* \"#utility.yul\":1169:1562   */\n  swap4\n  swap3\n  pop\n  pop\n  pop\n  jump\t// out\n    /* \"#utility.yul\":1568:1645   */\ntag_15:\n    /* \"#utility.yul\":1605:1612   */\n  0x00\n    /* \"#utility.yul\":1634:1639   */\n  dup2\n    /* \"#utility.yul\":1623:1639   */\n  swap1\n  pop\n    /* \"#utility.yul\":1568:1645   */\n  swap2\n  swap1\n  pop\n  jump\t// out\n    /* \"#utility.yul\":1651:1711   */\ntag_16:\n    /* \"#utility.yul\":1679:1682   */\n  0x00\n    /* \"#utility.yul\":1700:1705   */\n  dup2\n    /* \"#utility.yul\":1693:1705   */\n  swap1\n  pop\n    /* \"#utility.yul\":1651:1711   */\n  swap2\n  swap1\n  pop\n  jump\t// out\n    /* \"#utility.yul\":1717:1859   */\ntag_17:\n    /* \"#utility.yul\":1767:1776   */\n  0x00\n    /* \"#utility.yul\":1800:1853   */\n  tag_44\n    /* \"#utility.yul\":1818:1852   */\n  tag_45\n    /* \"#utility.yul\":1827:1851   */\n  tag_46\n    /* \"#utility.yul\":1845:1850   */\n  dup5\n    /* \"#utility.yul\":1827:1851   */\n  tag_15\n  jump\t// in\ntag_46:\n    /* \"#utility.yul\":1818:1852   */\n  tag_16\n  jump\t// in\ntag_45:\n    /* \"#utility.yul\":1800:1853   */\n  tag_15\n  jump\t// in\ntag_44:\n    /* \"#utility.yul\":1787:1853   */\n  swap1\n  pop\n    /* \"#utility.yul\":1717:1859   */\n  swap2\n  swap1\n  pop\n  jump\t// out\n    /* \"#utility.yul\":1865:1940   */\ntag_18:\n    /* \"#utility.yul\":1908:1911   */\n  0x00\n    /* \"#utility.yul\":1929:1934   */\n  dup2\n    /* \"#utility.yul\":1922:1934   */\n  swap1\n  pop\n    /* \"#utility.yul\":1865:1940   */\n  swap2\n  swap1\n  pop\n  jump\t// out\n    /* \"#utility.yul\":1946:2215   */\ntag_19:\n    /* \"#utility.yul\":2056:2095   */\n  tag_49\n    /* \"#utility.yul\":2087:2094   */\n  dup4\n    /* \"#utility.yul\":2056:2095   */\n  tag_17\n  jump\t// in\ntag_49:\n    /* \"#utility.yul\":2117:2208   */\n  tag_50\n    /* \"#utility.yul\":2166:2207   */\n  tag_51\n    /* \"#utility.yul\":2190:2206   */\n  dup3\n    /* \"#utility.yul\":2166:2207   */\n  tag_18\n  jump\t// in\ntag_51:\n    /* \"#utility.yul\":2158:2164   */\n  dup5\n    /* \"#utility.yul\":2151:2155   */\n  dup5\n    /* \"#utility.yul\":2145:2156   */\n  sload\n    /* \"#utility.yul\":2117:2208   */\n  tag_14\n  jump\t// in\ntag_50:\n    /* \"#utility.yul\":2111:2115   */\n  dup3\n    /* \"#utility.yul\":2104:2209   */\n  sstore\n    /* \"#utility.yul\":2022:2215   */\n  pop\n    /* \"#utility.yul\":1946:2215   */\n  pop\n  pop\n  pop\n  jump\t// out\n    /* \"#utility.yul\":2221:2294   */\ntag_20:\n    /* \"#utility.yul\":2266:2269   */\n  0x00\n    /* \"#utility.yul\":2287:2288   */\n  0x00\n    /* \"#utility.yul\":2280:2288   */\n  swap1\n  pop\n    /* \"#utility.yul\":2221:2294   */\n  swap1\n  jump\t// out\n    /* \"#utility.yul\":2300:2489   */\ntag_21:\n    /* \"#utility.yul\":2377:2409   */\n  tag_54\n  tag_20\n  jump\t// in\ntag_54:\n    /* \"#utility.yul\":2418:2483   */\n  tag_55\n    /* \"#utility.yul\":2476:2482   */\n  dup2\n    /* \"#utility.yul\":2468:2474   */\n  dup5\n    /* \"#utility.yul\":2462:2466   */\n  dup5\n    /* \"#utility.yul\":2418:2483   */\n  tag_19\n  jump\t// in\ntag_55:\n    /* \"#utility.yul\":2353:2489   */\n  pop\n    /* \"#utility.yul\":2300:2489   */\n  pop\n  pop\n  jump\t// out\n    /* \"#utility.yul\":2495:2681   */\ntag_22:\n    /* \"#utility.yul\":2555:2675   */\ntag_57:\n    /* \"#utility.yul\":2572:2575   */\n  dup2\n    /* \"#utility.yul\":2565:2570   */\n  dup2\n    /* \"#utility.yul\":2562:2576   */\n  lt\n    /* \"#utility.yul\":2555:2675   */\n  iszero\n  tag_59\n  jumpi\n    /* \"#utility.yul\":2626:2665   */\n  tag_60\n    /* \"#utility.yul\":2663:2664   */\n  0x00\n    /* \"#utility.yul\":2656:2661   */\n  dup3\n    /* \"#utility.yul\":2626:2665   */\n  tag_21\n  jump\t// in\ntag_60:\n    /* \"#utility.yul\":2599:2600   */\n  0x01\n    /* \"#utility.yul\":2592:2597   */\n  dup2\n    /* \"#utility.yul\":2588:2601   */\n  add\n    /* \"#utility.yul\":2579:2601   */\n  swap1\n  pop\n    /* \"#utility.yul\":2555:2675   */\n  jump(tag_57)\ntag_59:\n    /* \"#utility.yul\":2495:2681   */\n  pop\n  pop\n  jump\t// out\n    /* \"#utility.yul\":2687:3230   */\ntag_23:\n    /* \"#utility.yul\":2788:2790   */\n  0x1f\n    /* \"#utility.yul\":2783:2786   */\n  dup3\n    /* \"#utility.yul\":2780:2791   */\n  gt\n    /* \"#utility.yul\":2777:3223   */\n  iszero\n  tag_62\n  jumpi\n    /* \"#utility.yul\":2822:2860   */\n  tag_63\n    /* \"#utility.yul\":2854:2859   */\n  dup2\n    /* \"#utility.yul\":2822:2860   */\n  tag_11\n  jump\t// in\ntag_63:\n    /* \"#utility.yul\":2906:2935   */\n  tag_64\n    /* \"#utility.yul\":2924:2934   */\n  dup5\n    /* \"#utility.yul\":2906:2935   */\n  tag_12\n  jump\t// in\ntag_64:\n    /* \"#utility.yul\":2896:2904   */\n  dup2\n    /* \"#utility.yul\":2892:2936   */\n  add\n    /* \"#utility.yul\":3089:3091   */\n  0x20\n    /* \"#utility.yul\":3077:3087   */\n  dup6\n    /* \"#utility.yul\":3074:3092   */\n  lt\n    /* \"#utility.yul\":3071:3120   */\n  iszero\n  tag_65\n  jumpi\n    /* \"#utility.yul\":3110:3118   */\n  dup2\n    /* \"#utility.yul\":3095:3118   */\n  swap1\n  pop\n    /* \"#utility.yul\":3071:3120   */\ntag_65:\n    /* \"#utility.yul\":3133:3213   */\n  tag_66\n    /* \"#utility.yul\":3189:3211   */\n  tag_67\n    /* \"#utility.yul\":3207:3210   */\n  dup6\n    /* \"#utility.yul\":3189:3211   */\n  tag_12\n  jump\t// in\ntag_67:\n    /* \"#utility.yul\":3179:3187   */\n  dup4\n    /* \"#utility.yul\":3175:3212   */\n  add\n    /* \"#utility.yul\":3162:3173   */\n  dup3\n    /* \"#utility.yul\":3133:3213   */\n  tag_22\n  jump\t// in\ntag_66:\n    /* \"#utility.yul\":2792:3223   */\n  pop\n  pop\n    /* \"#utility.yul\":2777:3223   */\ntag_62:\n    /* \"#utility.yul\":2687:3230   */\n  pop\n  pop\n  pop\n  jump\t// out\n    /* \"#utility.yul\":3236:3353   */\ntag_24:\n    /* \"#utility.yul\":3290:3298   */\n  0x00\n    /* \"#utility.yul\":3340:3345   */\n  dup3\n    /* \"#utility.yul\":3334:3338   */\n  dup3\n    /* \"#utility.yul\":3330:3346   */\n  shr\n    /* \"#utility.yul\":3309:3346   */\n  swap1\n  pop\n    /* \"#utility.yul\":3236:3353   */\n  swap3\n  swap2\n  pop\n  pop\n  jump\t// out\n    /* \"#utility.yul\":3359:3528   */\ntag_25:\n    /* \"#utility.yul\":3403:3409   */\n  0x00\n    /* \"#utility.yul\":3436:3487   */\n  tag_70\n    /* \"#utility.yul\":3484:3485   */\n  0x00\n    /* \"#utility.yul\":3480:3486   */\n  not\n    /* \"#utility.yul\":3472:3477   */\n  dup5\n    /* \"#utility.yul\":3469:3470   */\n  0x08\n    /* \"#utility.yul\":3465:3478   */\n  mul\n    /* \"#utility.yul\":3436:3487   */\n  tag_24\n  jump\t// in\ntag_70:\n    /* \"#utility.yul\":3432:3488   */\n  not\n    /* \"#utility.yul\":3517:3521   */\n  dup1\n    /* \"#utility.yul\":3511:3515   */\n  dup4\n    /* \"#utility.yul\":3507:3522   */\n  and\n    /* \"#utility.yul\":3497:3522   */\n  swap2\n  pop\n    /* \"#utility.yul\":3410:3528   */\n  pop\n    /* \"#utility.yul\":3359:3528   */\n  swap3\n  swap2\n  pop\n  pop\n  jump\t// out\n    /* \"#utility.yul\":3533:3828   */\ntag_26:\n    /* \"#utility.yul\":3609:3613   */\n  0x00\n    /* \"#utility.yul\":3755:3784   */\n  tag_72\n    /* \"#utility.yul\":3780:3783   */\n  dup4\n    /* \"#utility.yul\":3774:3778   */\n  dup4\n    /* \"#utility.yul\":3755:3784   */\n  tag_25\n  jump\t// in\ntag_72:\n    /* \"#utility.yul\":3747:3784   */\n  swap2\n  pop\n    /* \"#utility.yul\":3817:3820   */\n  dup3\n    /* \"#utility.yul\":3814:3815   */\n  0x02\n    /* \"#utility.yul\":3810:3821   */\n  mul\n    /* \"#utility.yul\":3804:3808   */\n  dup3\n    /* \"#utility.yul\":3801:3822   */\n  or\n    /* \"#utility.yul\":3793:3822   */\n  swap1\n  pop\n    /* \"#utility.yul\":3533:3828   */\n  swap3\n  swap2\n  pop\n  pop\n  jump\t// out\n    /* \"#utility.yul\":3833:5228   */\ntag_2:\n    /* \"#utility.yul\":3950:3987   */\n  tag_74\n    /* \"#utility.yul\":3983:3986   */\n  dup3\n    /* \"#utility.yul\":3950:3987   */\n  tag_7\n  jump\t// in\ntag_74:\n    /* \"#utility.yul\":4052:4070   */\n  0xffffffffffffffff\n    /* \"#utility.yul\":4044:4050   */\n  dup2\n    /* \"#utility.yul\":4041:4071   */\n  gt\n    /* \"#utility.yul\":4038:4094   */\n  iszero\n  tag_75\n  jumpi\n    /* \"#utility.yul\":4074:4092   */\n  tag_76\n  tag_8\n  jump\t// in\ntag_76:\n    /* \"#utility.yul\":4038:4094   */\ntag_75:\n    /* \"#utility.yul\":4118:4156   */\n  tag_77\n    /* \"#utility.yul\":4150:4154   */\n  dup3\n    /* \"#utility.yul\":4144:4155   */\n  sload\n    /* \"#utility.yul\":4118:4156   */\n  tag_10\n  jump\t// in\ntag_77:\n    /* \"#utility.yul\":4203:4270   */\n  tag_78\n    /* \"#utility.yul\":4263:4269   */\n  dup3\n    /* \"#utility.yul\":4255:4261   */\n  dup3\n    /* \"#utility.yul\":4249:4253   */\n  dup6\n    /* \"#utility.yul\":4203:4270   */\n  tag_23\n  jump\t// in\ntag_78:\n    /* \"#utility.yul\":4297:4298   */\n  0x00\n    /* \"#utility.yul\":4321:4325   */\n  0x20\n    /* \"#utility.yul\":4308:4325   */\n  swap1\n  pop\n    /* \"#utility.yul\":4353:4355   */\n  0x1f\n    /* \"#utility.yul\":4345:4351   */\n  dup4\n    /* \"#utility.yul\":4342:4356   */\n  gt\n    /* \"#utility.yul\":4370:4371   */\n  0x01\n    /* \"#utility.yul\":4365:4983   */\n  dup2\n  eq\n  tag_80\n  jumpi\n    /* \"#utility.yul\":5027:5028   */\n  0x00\n    /* \"#utility.yul\":5044:5050   */\n  dup5\n    /* \"#utility.yul\":5041:5118   */\n  iszero\n  tag_81\n  jumpi\n    /* \"#utility.yul\":5093:5102   */\n  dup3\n    /* \"#utility.yul\":5088:5091   */\n  dup8\n    /* \"#utility.yul\":5084:5103   */\n  add\n    /* \"#utility.yul\":5078:5104   */\n  mload\n    /* \"#utility.yul\":5069:5104   */\n  swap1\n  pop\n    /* \"#utility.yul\":5041:5118   */\ntag_81:\n    /* \"#utility.yul\":5144:5211   */\n  tag_82\n    /* \"#utility.yul\":5204:5210   */\n  dup6\n    /* \"#utility.yul\":5197:5202   */\n  dup3\n    /* \"#utility.yul\":5144:5211   */\n  tag_26\n  jump\t// in\ntag_82:\n    /* \"#utility.yul\":5138:5142   */\n  dup7\n    /* \"#utility.yul\":5131:5212   */\n  sstore\n    /* \"#utility.yul\":5000:5222   */\n  pop\n    /* \"#utility.yul\":4335:5222   */\n  jump(tag_79)\n    /* \"#utility.yul\":4365:4983   */\ntag_80:\n    /* \"#utility.yul\":4417:4421   */\n  0x1f\n    /* \"#utility.yul\":4413:4422   */\n  not\n    /* \"#utility.yul\":4405:4411   */\n  dup5\n    /* \"#utility.yul\":4401:4423   */\n  and\n    /* \"#utility.yul\":4451:4488   */\n  tag_83\n    /* \"#utility.yul\":4483:4487   */\n  dup7\n    /* \"#utility.yul\":4451:4488   */\n  tag_11\n  jump\t// in\ntag_83:\n    /* \"#utility.yul\":4510:4511   */\n  0x00\n    /* \"#utility.yul\":4524:4732   */\ntag_84:\n    /* \"#utility.yul\":4538:4545   */\n  dup3\n    /* \"#utility.yul\":4535:4536   */\n  dup2\n    /* \"#utility.yul\":4532:4546   */\n  lt\n    /* \"#utility.yul\":4524:4732   */\n  iszero\n  tag_86\n  jumpi\n    /* \"#utility.yul\":4617:4626   */\n  dup5\n    /* \"#utility.yul\":4612:4615   */\n  dup10\n    /* \"#utility.yul\":4608:4627   */\n  add\n    /* \"#utility.yul\":4602:4628   */\n  mload\n    /* \"#utility.yul\":4594:4600   */\n  dup3\n    /* \"#utility.yul\":4587:4629   */\n  sstore\n    /* \"#utility.yul\":4668:4669   */\n  0x01\n    /* \"#utility.yul\":4660:4666   */\n  dup3\n    /* \"#utility.yul\":4656:4670   */\n  add\n    /* \"#utility.yul\":4646:4670   */\n  swap2\n  pop\n    /* \"#utility.yul\":4715:4717   */\n  0x20\n    /* \"#utility.yul\":4704:4713   */\n  dup6\n    /* \"#utility.yul\":4700:4718   */\n  add\n    /* \"#utility.yul\":4687:4718   */\n  swap5\n  pop\n    /* \"#utility.yul\":4561:4565   */\n  0x20\n    /* \"#utility.yul\":4558:4559   */\n  dup2\n    /* \"#utility.yul\":4554:4566   */\n  add\n    /* \"#utility.yul\":4549:4566   */\n  swap1\n  pop\n    /* \"#utility.yul\":4524:4732   */\n  jump(tag_84)\ntag_86:\n    /* \"#utility.yul\":4760:4766   */\n  dup7\n    /* \"#utility.yul\":4751:4758   */\n  dup4\n    /* \"#utility.yul\":4748:4767   */\n  lt\n    /* \"#utility.yul\":4745:4924   */\n  iszero\n  tag_87\n  jumpi\n    /* \"#utility.yul\":4818:4827   */\n  dup5\n    /* \"#utility.yul\":4813:4816   */\n  dup10\n    /* \"#utility.yul\":4809:4828   */\n  add\n    /* \"#utility.yul\":4803:4829   */\n  mload\n    /* \"#utility.yul\":4861:4909   */\n  tag_88\n    /* \"#utility.yul\":4903:4907   */\n  0x1f\n    /* \"#utility.yul\":4895:4901   */\n  dup10\n    /* \"#utility.yul\":4891:4908   */\n  and\n    /* \"#utility.yul\":4880:4889   */\n  dup3\n    /* \"#utility.yul\":4861:4909   */\n  tag_25\n  jump\t// in\ntag_88:\n    /* \"#utility.yul\":4853:4859   */\n  dup4\n    /* \"#utility.yul\":4846:4910   */\n  sstore\n    /* \"#utility.yul\":4768:4924   */\n  pop\n    /* \"#utility.yul\":4745:4924   */\ntag_87:\n    /* \"#utility.yul\":4970:4971   */\n  0x01\n    /* \"#utility.yul\":4966:4967   */\n  0x02\n    /* \"#utility.yul\":4958:4964   */\n  dup9\n    /* \"#utility.yul\":4954:4968   */\n  mul\n    /* \"#utility.yul\":4950:4972   */\n  add\n    /* \"#utility.yul\":4944:4948   */\n  dup9\n    /* \"#utility.yul\":4937:4973   */\n  sstore\n    /* \"#utility.yul\":4372:4983   */\n  pop\n  pop\n  pop\n    /* \"#utility.yul\":4335:5222   */\ntag_79:\n  pop\n    /* \"#utility.yul\":3925:5228   */\n  pop\n  pop\n  pop\n    /* \"#utility.yul\":3833:5228   */\n  pop\n  pop\n  jump\t// out\n    /* \"contracts/12_token_1.sol\":162:2040  contract BirCoin {... */\ntag_6:\n  dataSize(sub_0)\n  dup1\n  dataOffset(sub_0)\n  0x00\n  codecopy\n  0x00\n  return\nstop\n\nsub_0: assembly {\n        /* \"contracts/12_token_1.sol\":162:2040  contract BirCoin {... */\n      mstore(0x40, 0x80)\n      callvalue\n      dup1\n      iszero\n      tag_1\n      jumpi\n      revert(0x00, 0x00)\n    tag_1:\n      pop\n      jumpi(tag_2, lt(calldatasize, 0x04))\n      shr(0xe0, calldataload(0x00))\n      dup1\n      0x449a52f8\n      gt\n      tag_13\n      jumpi\n      dup1\n      0x449a52f8\n      eq\n      tag_8\n      jumpi\n      dup1\n      0x6c6f31f2\n      eq\n      tag_9\n      jumpi\n      dup1\n      0x8da5cb5b\n      eq\n      tag_10\n      jumpi\n      dup1\n      0xa9059cbb\n      eq\n      tag_11\n      jumpi\n      dup1\n      0xdd62ed3e\n      eq\n      tag_12\n      jumpi\n      jump(tag_2)\n    tag_13:\n      dup1\n      0x047fc9aa\n      eq\n      tag_3\n      jumpi\n      dup1\n      0x06fdde03\n      eq\n      tag_4\n      jumpi\n      dup1\n      0x23b872dd\n      eq\n      tag_5\n      jumpi\n      dup1\n      0x27e235e3\n      eq\n      tag_6\n      jumpi\n      dup1\n      0x42966c68\n      eq\n      tag_7\n      jumpi\n    tag_2:\n      revert(0x00, 0x00)\n        /* \"contracts/12_token_1.sol\":221:243  uint public supply = 0 */\n    tag_3:\n      tag_14\n      tag_15\n      jump\t// in\n    tag_14:\n      mload(0x40)\n      tag_16\n      swap2\n      swap1\n      tag_17\n      jump\t// in\n    tag_16:\n      mload(0x40)\n      dup1\n      swap2\n      sub\n      swap1\n      return\n        /* \"contracts/12_token_1.sol\":185:215  string public name = \"BirCoin\" */\n    tag_4:\n      tag_18\n      tag_19\n      jump\t// in\n    tag_18:\n      mload(0x40)\n      tag_20\n      swap2\n      swap1\n      tag_21\n      jump\t// in\n    tag_20:\n      mload(0x40)\n      dup1\n      swap2\n      sub\n      swap1\n      return\n        /* \"contracts/12_token_1.sol\":1164:1600  function transferFrom( address from , address to, uint amount ) public {... */\n    tag_5:\n      tag_22\n      0x04\n      dup1\n      calldatasize\n      sub\n      dup2\n      add\n      swap1\n      tag_23\n      swap2\n      swap1\n      tag_24\n      jump\t// in\n    tag_23:\n      tag_25\n      jump\t// in\n    tag_22:\n      stop\n        /* \"contracts/12_token_1.sol\":276:316  mapping(address => uint) public balances */\n    tag_6:\n      tag_26\n      0x04\n      dup1\n      calldatasize\n      sub\n      dup2\n      add\n      swap1\n      tag_27\n      swap2\n      swap1\n      tag_28\n      jump\t// in\n    tag_27:\n      tag_29\n      jump\t// in\n    tag_26:\n      mload(0x40)\n      tag_30\n      swap2\n      swap1\n      tag_17\n      jump\t// in\n    tag_30:\n      mload(0x40)\n      dup1\n      swap2\n      sub\n      swap1\n      return\n        /* \"contracts/12_token_1.sol\":1820:2037  function burn(uint amount ) public {... */\n    tag_7:\n      tag_31\n      0x04\n      dup1\n      calldatasize\n      sub\n      dup2\n      add\n      swap1\n      tag_32\n      swap2\n      swap1\n      tag_33\n      jump\t// in\n    tag_32:\n      tag_34\n      jump\t// in\n    tag_31:\n      stop\n        /* \"contracts/12_token_1.sol\":821:944  function mintTo( address to, uint amount) public onlyOwner {... */\n    tag_8:\n      tag_35\n      0x04\n      dup1\n      calldatasize\n      sub\n      dup2\n      add\n      swap1\n      tag_36\n      swap2\n      swap1\n      tag_37\n      jump\t// in\n    tag_36:\n      tag_38\n      jump\t// in\n    tag_35:\n      stop\n        /* \"contracts/12_token_1.sol\":975:1122  function allow (address to, uint amount ) public {... */\n    tag_9:\n      tag_39\n      0x04\n      dup1\n      calldatasize\n      sub\n      dup2\n      add\n      swap1\n      tag_40\n      swap2\n      swap1\n      tag_37\n      jump\t// in\n    tag_40:\n      tag_41\n      jump\t// in\n    tag_39:\n      stop\n        /* \"contracts/12_token_1.sol\":249:269  address public owner */\n    tag_10:\n      tag_42\n      tag_43\n      jump\t// in\n    tag_42:\n      mload(0x40)\n      tag_44\n      swap2\n      swap1\n      tag_45\n      jump\t// in\n    tag_44:\n      mload(0x40)\n      dup1\n      swap2\n      sub\n      swap1\n      return\n        /* \"contracts/12_token_1.sol\":1606:1814  function transfer( address to , uint amount ) public {... */\n    tag_11:\n      tag_46\n      0x04\n      dup1\n      calldatasize\n      sub\n      dup2\n      add\n      swap1\n      tag_47\n      swap2\n      swap1\n      tag_37\n      jump\t// in\n    tag_47:\n      tag_48\n      jump\t// in\n    tag_46:\n      stop\n        /* \"contracts/12_token_1.sol\":351:415  mapping(address => mapping( address => uint ) ) public allowance */\n    tag_12:\n      tag_49\n      0x04\n      dup1\n      calldatasize\n      sub\n      dup2\n      add\n      swap1\n      tag_50\n      swap2\n      swap1\n      tag_51\n      jump\t// in\n    tag_50:\n      tag_52\n      jump\t// in\n    tag_49:\n      mload(0x40)\n      tag_53\n      swap2\n      swap1\n      tag_17\n      jump\t// in\n    tag_53:\n      mload(0x40)\n      dup1\n      swap2\n      sub\n      swap1\n      return\n        /* \"contracts/12_token_1.sol\":221:243  uint public supply = 0 */\n    tag_15:\n      sload(0x01)\n      dup2\n      jump\t// out\n        /* \"contracts/12_token_1.sol\":185:215  string public name = \"BirCoin\" */\n    tag_19:\n      0x00\n      dup1\n      sload\n      tag_54\n      swap1\n      tag_55\n      jump\t// in\n    tag_54:\n      dup1\n      0x1f\n      add\n      0x20\n      dup1\n      swap2\n      div\n      mul\n      0x20\n      add\n      mload(0x40)\n      swap1\n      dup2\n      add\n      0x40\n      mstore\n      dup1\n      swap3\n      swap2\n      swap1\n      dup2\n      dup2\n      mstore\n      0x20\n      add\n      dup3\n      dup1\n      sload\n      tag_56\n      swap1\n      tag_55\n      jump\t// in\n    tag_56:\n      dup1\n      iszero\n      tag_57\n      jumpi\n      dup1\n      0x1f\n      lt\n      tag_58\n      jumpi\n      0x0100\n      dup1\n      dup4\n      sload\n      div\n      mul\n      dup4\n      mstore\n      swap2\n      0x20\n      add\n      swap2\n      jump(tag_57)\n    tag_58:\n      dup3\n      add\n      swap2\n      swap1\n      0x00\n      mstore\n      keccak256(0x00, 0x20)\n      swap1\n    tag_59:\n      dup2\n      sload\n      dup2\n      mstore\n      swap1\n      0x01\n      add\n      swap1\n      0x20\n      add\n      dup1\n      dup4\n      gt\n      tag_59\n      jumpi\n      dup3\n      swap1\n      sub\n      0x1f\n      and\n      dup3\n      add\n      swap2\n    tag_57:\n      pop\n      pop\n      pop\n      pop\n      pop\n      dup2\n      jump\t// out\n        /* \"contracts/12_token_1.sol\":1164:1600  function transferFrom( address from , address to, uint amount ) public {... */\n    tag_25:\n        /* \"contracts/12_token_1.sol\":1245:1257  uint balance */\n      0x00\n        /* \"contracts/12_token_1.sol\":1260:1268  balances */\n      0x03\n        /* \"contracts/12_token_1.sol\":1260:1274  balances[from] */\n      0x00\n        /* \"contracts/12_token_1.sol\":1269:1273  from */\n      dup6\n        /* \"contracts/12_token_1.sol\":1260:1274  balances[from] */\n      0xffffffffffffffffffffffffffffffffffffffff\n      and\n      0xffffffffffffffffffffffffffffffffffffffff\n      and\n      dup2\n      mstore\n      0x20\n      add\n      swap1\n      dup2\n      mstore\n      0x20\n      add\n      0x00\n      keccak256\n      sload\n        /* \"contracts/12_token_1.sol\":1245:1274  uint balance = balances[from] */\n      swap1\n      pop\n        /* \"contracts/12_token_1.sol\":1303:1309  amount */\n      dup2\n        /* \"contracts/12_token_1.sol\":1292:1299  balance */\n      dup2\n        /* \"contracts/12_token_1.sol\":1292:1309  balance >= amount */\n      lt\n      iszero\n        /* \"contracts/12_token_1.sol\":1284:1338  require(balance >= amount , \"Balance is insufficient\") */\n      tag_61\n      jumpi\n      mload(0x40)\n      0x08c379a000000000000000000000000000000000000000000000000000000000\n      dup2\n      mstore\n      0x04\n      add\n      tag_62\n      swap1\n      tag_63\n      jump\t// in\n    tag_62:\n      mload(0x40)\n      dup1\n      swap2\n      sub\n      swap1\n      revert\n    tag_61:\n        /* \"contracts/12_token_1.sol\":1348:1366  uint allowedAmount */\n      0x00\n        /* \"contracts/12_token_1.sol\":1369:1378  allowance */\n      0x04\n        /* \"contracts/12_token_1.sol\":1369:1384  allowance[from] */\n      0x00\n        /* \"contracts/12_token_1.sol\":1379:1383  from */\n      dup7\n        /* \"contracts/12_token_1.sol\":1369:1384  allowance[from] */\n      0xffffffffffffffffffffffffffffffffffffffff\n      and\n      0xffffffffffffffffffffffffffffffffffffffff\n      and\n      dup2\n      mstore\n      0x20\n      add\n      swap1\n      dup2\n      mstore\n      0x20\n      add\n      0x00\n      keccak256\n        /* \"contracts/12_token_1.sol\":1369:1396  allowance[from][msg.sender] */\n      0x00\n        /* \"contracts/12_token_1.sol\":1385:1395  msg.sender */\n      caller\n        /* \"contracts/12_token_1.sol\":1369:1396  allowance[from][msg.sender] */\n      0xffffffffffffffffffffffffffffffffffffffff\n      and\n      0xffffffffffffffffffffffffffffffffffffffff\n      and\n      dup2\n      mstore\n      0x20\n      add\n      swap1\n      dup2\n      mstore\n      0x20\n      add\n      0x00\n      keccak256\n      sload\n        /* \"contracts/12_token_1.sol\":1348:1396  uint allowedAmount = allowance[from][msg.sender] */\n      swap1\n      pop\n        /* \"contracts/12_token_1.sol\":1431:1437  amount */\n      dup3\n        /* \"contracts/12_token_1.sol\":1414:1427  allowedAmount */\n      dup2\n        /* \"contracts/12_token_1.sol\":1414:1437  allowedAmount >= amount */\n      lt\n      iszero\n        /* \"contracts/12_token_1.sol\":1406:1439  require(allowedAmount >= amount ) */\n      tag_64\n      jumpi\n      revert(0x00, 0x00)\n    tag_64:\n        /* \"contracts/12_token_1.sol\":1467:1473  amount */\n      dup3\n        /* \"contracts/12_token_1.sol\":1449:1457  balances */\n      0x03\n        /* \"contracts/12_token_1.sol\":1449:1463  balances[from] */\n      0x00\n        /* \"contracts/12_token_1.sol\":1458:1462  from */\n      dup8\n        /* \"contracts/12_token_1.sol\":1449:1463  balances[from] */\n      0xffffffffffffffffffffffffffffffffffffffff\n      and\n      0xffffffffffffffffffffffffffffffffffffffff\n      and\n      dup2\n      mstore\n      0x20\n      add\n      swap1\n      dup2\n      mstore\n      0x20\n      add\n      0x00\n      keccak256\n      0x00\n        /* \"contracts/12_token_1.sol\":1449:1473  balances[from] -= amount */\n      dup3\n      dup3\n      sload\n      tag_65\n      swap2\n      swap1\n      tag_66\n      jump\t// in\n    tag_65:\n      swap3\n      pop\n      pop\n      dup2\n      swap1\n      sstore\n      pop\n        /* \"contracts/12_token_1.sol\":1499:1505  amount */\n      dup3\n        /* \"contracts/12_token_1.sol\":1483:1491  balances */\n      0x03\n        /* \"contracts/12_token_1.sol\":1483:1495  balances[to] */\n      0x00\n        /* \"contracts/12_token_1.sol\":1492:1494  to */\n      dup7\n        /* \"contracts/12_token_1.sol\":1483:1495  balances[to] */\n      0xffffffffffffffffffffffffffffffffffffffff\n      and\n      0xffffffffffffffffffffffffffffffffffffffff\n      and\n      dup2\n      mstore\n      0x20\n      add\n      swap1\n      dup2\n      mstore\n      0x20\n      add\n      0x00\n      keccak256\n      0x00\n        /* \"contracts/12_token_1.sol\":1483:1505  balances[to] += amount */\n      dup3\n      dup3\n      sload\n      tag_67\n      swap2\n      swap1\n      tag_68\n      jump\t// in\n    tag_67:\n      swap3\n      pop\n      pop\n      dup2\n      swap1\n      sstore\n      pop\n        /* \"contracts/12_token_1.sol\":1546:1552  amount */\n      dup3\n        /* \"contracts/12_token_1.sol\":1515:1524  allowance */\n      0x04\n        /* \"contracts/12_token_1.sol\":1515:1530  allowance[from] */\n      0x00\n        /* \"contracts/12_token_1.sol\":1525:1529  from */\n      dup8\n        /* \"contracts/12_token_1.sol\":1515:1530  allowance[from] */\n      0xffffffffffffffffffffffffffffffffffffffff\n      and\n      0xffffffffffffffffffffffffffffffffffffffff\n      and\n      dup2\n      mstore\n      0x20\n      add\n      swap1\n      dup2\n      mstore\n      0x20\n      add\n      0x00\n      keccak256\n        /* \"contracts/12_token_1.sol\":1515:1542  allowance[from][msg.sender] */\n      0x00\n        /* \"contracts/12_token_1.sol\":1531:1541  msg.sender */\n      caller\n        /* \"contracts/12_token_1.sol\":1515:1542  allowance[from][msg.sender] */\n      0xffffffffffffffffffffffffffffffffffffffff\n      and\n      0xffffffffffffffffffffffffffffffffffffffff\n      and\n      dup2\n      mstore\n      0x20\n      add\n      swap1\n      dup2\n      mstore\n      0x20\n      add\n      0x00\n      keccak256\n      0x00\n        /* \"contracts/12_token_1.sol\":1515:1552  allowance[from][msg.sender] -= amount */\n      dup3\n      dup3\n      sload\n      tag_69\n      swap2\n      swap1\n      tag_66\n      jump\t// in\n    tag_69:\n      swap3\n      pop\n      pop\n      dup2\n      swap1\n      sstore\n      pop\n        /* \"contracts/12_token_1.sol\":1582:1584  to */\n      dup4\n        /* \"contracts/12_token_1.sol\":1567:1593  Transfer(from, to, amount) */\n      0xffffffffffffffffffffffffffffffffffffffff\n      and\n        /* \"contracts/12_token_1.sol\":1576:1580  from */\n      dup6\n        /* \"contracts/12_token_1.sol\":1567:1593  Transfer(from, to, amount) */\n      0xffffffffffffffffffffffffffffffffffffffff\n      and\n      0xddf252ad1be2c89b69c2b068fc378daa952ba7f163c4a11628f55a4df523b3ef\n        /* \"contracts/12_token_1.sol\":1586:1592  amount */\n      dup6\n        /* \"contracts/12_token_1.sol\":1567:1593  Transfer(from, to, amount) */\n      mload(0x40)\n      tag_70\n      swap2\n      swap1\n      tag_17\n      jump\t// in\n    tag_70:\n      mload(0x40)\n      dup1\n      swap2\n      sub\n      swap1\n      log3\n        /* \"contracts/12_token_1.sol\":1235:1600  {... */\n      pop\n      pop\n        /* \"contracts/12_token_1.sol\":1164:1600  function transferFrom( address from , address to, uint amount ) public {... */\n      pop\n      pop\n      pop\n      jump\t// out\n        /* \"contracts/12_token_1.sol\":276:316  mapping(address => uint) public balances */\n    tag_29:\n      mstore(0x20, 0x03)\n      dup1\n      0x00\n      mstore\n      keccak256(0x00, 0x40)\n      0x00\n      swap2\n      pop\n      swap1\n      pop\n      sload\n      dup2\n      jump\t// out\n        /* \"contracts/12_token_1.sol\":1820:2037  function burn(uint amount ) public {... */\n    tag_34:\n        /* \"contracts/12_token_1.sol\":1865:1877  uint balance */\n      0x00\n        /* \"contracts/12_token_1.sol\":1880:1888  balances */\n      0x03\n        /* \"contracts/12_token_1.sol\":1880:1900  balances[msg.sender] */\n      0x00\n        /* \"contracts/12_token_1.sol\":1889:1899  msg.sender */\n      caller\n        /* \"contracts/12_token_1.sol\":1880:1900  balances[msg.sender] */\n      0xffffffffffffffffffffffffffffffffffffffff\n      and\n      0xffffffffffffffffffffffffffffffffffffffff\n      and\n      dup2\n      mstore\n      0x20\n      add\n      swap1\n      dup2\n      mstore\n      0x20\n      add\n      0x00\n      keccak256\n      sload\n        /* \"contracts/12_token_1.sol\":1865:1900  uint balance = balances[msg.sender] */\n      swap1\n      pop\n        /* \"contracts/12_token_1.sol\":1930:1936  amount */\n      dup2\n        /* \"contracts/12_token_1.sol\":1919:1926  balance */\n      dup2\n        /* \"contracts/12_token_1.sol\":1919:1936  balance >= amount */\n      lt\n      iszero\n        /* \"contracts/12_token_1.sol\":1910:1964  require (balance >= amount, \"Balance is insufficient\") */\n      tag_72\n      jumpi\n      mload(0x40)\n      0x08c379a000000000000000000000000000000000000000000000000000000000\n      dup2\n      mstore\n      0x04\n      add\n      tag_73\n      swap1\n      tag_63\n      jump\t// in\n    tag_73:\n      mload(0x40)\n      dup1\n      swap2\n      sub\n      swap1\n      revert\n    tag_72:\n        /* \"contracts/12_token_1.sol\":1998:2004  amount */\n      dup2\n        /* \"contracts/12_token_1.sol\":1974:1982  balances */\n      0x03\n        /* \"contracts/12_token_1.sol\":1974:1994  balances[msg.sender] */\n      0x00\n        /* \"contracts/12_token_1.sol\":1983:1993  msg.sender */\n      caller\n        /* \"contracts/12_token_1.sol\":1974:1994  balances[msg.sender] */\n      0xffffffffffffffffffffffffffffffffffffffff\n      and\n      0xffffffffffffffffffffffffffffffffffffffff\n      and\n      dup2\n      mstore\n      0x20\n      add\n      swap1\n      dup2\n      mstore\n      0x20\n      add\n      0x00\n      keccak256\n      0x00\n        /* \"contracts/12_token_1.sol\":1974:2004  balances[msg.sender] -= amount */\n      dup3\n      dup3\n      sload\n      tag_74\n      swap2\n      swap1\n      tag_66\n      jump\t// in\n    tag_74:\n      swap3\n      pop\n      pop\n      dup2\n      swap1\n      sstore\n      pop\n        /* \"contracts/12_token_1.sol\":2024:2030  amount */\n      dup2\n        /* \"contracts/12_token_1.sol\":2014:2020  supply */\n      0x01\n      0x00\n        /* \"contracts/12_token_1.sol\":2014:2030  supply -= amount */\n      dup3\n      dup3\n      sload\n      tag_75\n      swap2\n      swap1\n      tag_66\n      jump\t// in\n    tag_75:\n      swap3\n      pop\n      pop\n      dup2\n      swap1\n      sstore\n      pop\n        /* \"contracts/12_token_1.sol\":1855:2037  {... */\n      pop\n        /* \"contracts/12_token_1.sol\":1820:2037  function burn(uint amount ) public {... */\n      pop\n      jump\t// out\n        /* \"contracts/12_token_1.sol\":821:944  function mintTo( address to, uint amount) public onlyOwner {... */\n    tag_38:\n        /* \"contracts/12_token_1.sol\":748:753  owner */\n      0x02\n      0x00\n      swap1\n      sload\n      swap1\n      0x0100\n      exp\n      swap1\n      div\n      0xffffffffffffffffffffffffffffffffffffffff\n      and\n        /* \"contracts/12_token_1.sol\":734:753  msg.sender == owner */\n      0xffffffffffffffffffffffffffffffffffffffff\n      and\n        /* \"contracts/12_token_1.sol\":734:744  msg.sender */\n      caller\n        /* \"contracts/12_token_1.sol\":734:753  msg.sender == owner */\n      0xffffffffffffffffffffffffffffffffffffffff\n      and\n      eq\n        /* \"contracts/12_token_1.sol\":724:796  require ( msg.sender == owner, \"Only owner can perform this operation.\") */\n      tag_77\n      jumpi\n      mload(0x40)\n      0x08c379a000000000000000000000000000000000000000000000000000000000\n      dup2\n      mstore\n      0x04\n      add\n      tag_78\n      swap1\n      tag_79\n      jump\t// in\n    tag_78:\n      mload(0x40)\n      dup1\n      swap2\n      sub\n      swap1\n      revert\n    tag_77:\n        /* \"contracts/12_token_1.sol\":906:912  amount */\n      dup1\n        /* \"contracts/12_token_1.sol\":890:898  balances */\n      0x03\n        /* \"contracts/12_token_1.sol\":890:902  balances[to] */\n      0x00\n        /* \"contracts/12_token_1.sol\":899:901  to */\n      dup5\n        /* \"contracts/12_token_1.sol\":890:902  balances[to] */\n      0xffffffffffffffffffffffffffffffffffffffff\n      and\n      0xffffffffffffffffffffffffffffffffffffffff\n      and\n      dup2\n      mstore\n      0x20\n      add\n      swap1\n      dup2\n      mstore\n      0x20\n      add\n      0x00\n      keccak256\n      0x00\n        /* \"contracts/12_token_1.sol\":890:912  balances[to] += amount */\n      dup3\n      dup3\n      sload\n      tag_81\n      swap2\n      swap1\n      tag_68\n      jump\t// in\n    tag_81:\n      swap3\n      pop\n      pop\n      dup2\n      swap1\n      sstore\n      pop\n        /* \"contracts/12_token_1.sol\":931:937  amount */\n      dup1\n        /* \"contracts/12_token_1.sol\":922:928  supply */\n      0x01\n      0x00\n        /* \"contracts/12_token_1.sol\":922:937  supply+= amount */\n      dup3\n      dup3\n      sload\n      tag_82\n      swap2\n      swap1\n      tag_68\n      jump\t// in\n    tag_82:\n      swap3\n      pop\n      pop\n      dup2\n      swap1\n      sstore\n      pop\n        /* \"contracts/12_token_1.sol\":821:944  function mintTo( address to, uint amount) public onlyOwner {... */\n      pop\n      pop\n      jump\t// out\n        /* \"contracts/12_token_1.sol\":975:1122  function allow (address to, uint amount ) public {... */\n    tag_41:\n        /* \"contracts/12_token_1.sol\":1063:1069  amount */\n      dup1\n        /* \"contracts/12_token_1.sol\":1034:1043  allowance */\n      0x04\n        /* \"contracts/12_token_1.sol\":1034:1055  allowance[msg.sender] */\n      0x00\n        /* \"contracts/12_token_1.sol\":1044:1054  msg.sender */\n      caller\n        /* \"contracts/12_token_1.sol\":1034:1055  allowance[msg.sender] */\n      0xffffffffffffffffffffffffffffffffffffffff\n      and\n      0xffffffffffffffffffffffffffffffffffffffff\n      and\n      dup2\n      mstore\n      0x20\n      add\n      swap1\n      dup2\n      mstore\n      0x20\n      add\n      0x00\n      keccak256\n        /* \"contracts/12_token_1.sol\":1034:1059  allowance[msg.sender][to] */\n      0x00\n        /* \"contracts/12_token_1.sol\":1056:1058  to */\n      dup5\n        /* \"contracts/12_token_1.sol\":1034:1059  allowance[msg.sender][to] */\n      0xffffffffffffffffffffffffffffffffffffffff\n      and\n      0xffffffffffffffffffffffffffffffffffffffff\n      and\n      dup2\n      mstore\n      0x20\n      add\n      swap1\n      dup2\n      mstore\n      0x20\n      add\n      0x00\n      keccak256\n      0x00\n        /* \"contracts/12_token_1.sol\":1034:1069  allowance[msg.sender][to] += amount */\n      dup3\n      dup3\n      sload\n      tag_84\n      swap2\n      swap1\n      tag_68\n      jump\t// in\n    tag_84:\n      swap3\n      pop\n      pop\n      dup2\n      swap1\n      sstore\n      pop\n        /* \"contracts/12_token_1.sol\":1104:1106  to */\n      dup2\n        /* \"contracts/12_token_1.sol\":1084:1115  Approve(msg.sender, to, amount) */\n      0xffffffffffffffffffffffffffffffffffffffff\n      and\n        /* \"contracts/12_token_1.sol\":1092:1102  msg.sender */\n      caller\n        /* \"contracts/12_token_1.sol\":1084:1115  Approve(msg.sender, to, amount) */\n      0xffffffffffffffffffffffffffffffffffffffff\n      and\n      0x6e11fb1b7f119e3f2fa29896ef5fdf8b8a2d0d4df6fe90ba8668e7d8b2ffa25e\n        /* \"contracts/12_token_1.sol\":1108:1114  amount */\n      dup4\n        /* \"contracts/12_token_1.sol\":1084:1115  Approve(msg.sender, to, amount) */\n      mload(0x40)\n      tag_85\n      swap2\n      swap1\n      tag_17\n      jump\t// in\n    tag_85:\n      mload(0x40)\n      dup1\n      swap2\n      sub\n      swap1\n      log3\n        /* \"contracts/12_token_1.sol\":975:1122  function allow (address to, uint amount ) public {... */\n      pop\n      pop\n      jump\t// out\n        /* \"contracts/12_token_1.sol\":249:269  address public owner */\n    tag_43:\n      0x02\n      0x00\n      swap1\n      sload\n      swap1\n      0x0100\n      exp\n      swap1\n      div\n      0xffffffffffffffffffffffffffffffffffffffff\n      and\n      dup2\n      jump\t// out\n        /* \"contracts/12_token_1.sol\":1606:1814  function transfer( address to , uint amount ) public {... */\n    tag_48:\n        /* \"contracts/12_token_1.sol\":1688:1696  balances */\n      0x03\n        /* \"contracts/12_token_1.sol\":1688:1708  balances[msg.sender] */\n      0x00\n        /* \"contracts/12_token_1.sol\":1697:1707  msg.sender */\n      caller\n        /* \"contracts/12_token_1.sol\":1688:1708  balances[msg.sender] */\n      0xffffffffffffffffffffffffffffffffffffffff\n      and\n      0xffffffffffffffffffffffffffffffffffffffff\n      and\n      dup2\n      mstore\n      0x20\n      add\n      swap1\n      dup2\n      mstore\n      0x20\n      add\n      0x00\n      keccak256\n      sload\n        /* \"contracts/12_token_1.sol\":1678:1684  amount */\n      dup2\n        /* \"contracts/12_token_1.sol\":1678:1708  amount <= balances[msg.sender] */\n      gt\n      iszero\n        /* \"contracts/12_token_1.sol\":1669:1736  require (amount <= balances[msg.sender], \"Balance is insufficient\") */\n      tag_87\n      jumpi\n      mload(0x40)\n      0x08c379a000000000000000000000000000000000000000000000000000000000\n      dup2\n      mstore\n      0x04\n      add\n      tag_88\n      swap1\n      tag_63\n      jump\t// in\n    tag_88:\n      mload(0x40)\n      dup1\n      swap2\n      sub\n      swap1\n      revert\n    tag_87:\n        /* \"contracts/12_token_1.sol\":1769:1775  amount */\n      dup1\n        /* \"contracts/12_token_1.sol\":1746:1754  balances */\n      0x03\n        /* \"contracts/12_token_1.sol\":1746:1766  balances[msg.sender] */\n      0x00\n        /* \"contracts/12_token_1.sol\":1755:1765  msg.sender */\n      caller\n        /* \"contracts/12_token_1.sol\":1746:1766  balances[msg.sender] */\n      0xffffffffffffffffffffffffffffffffffffffff\n      and\n      0xffffffffffffffffffffffffffffffffffffffff\n      and\n      dup2\n      mstore\n      0x20\n      add\n      swap1\n      dup2\n      mstore\n      0x20\n      add\n      0x00\n      keccak256\n      0x00\n        /* \"contracts/12_token_1.sol\":1746:1775  balances[msg.sender] -=amount */\n      dup3\n      dup3\n      sload\n      tag_89\n      swap2\n      swap1\n      tag_66\n      jump\t// in\n    tag_89:\n      swap3\n      pop\n      pop\n      dup2\n      swap1\n      sstore\n      pop\n        /* \"contracts/12_token_1.sol\":1801:1807  amount */\n      dup1\n        /* \"contracts/12_token_1.sol\":1785:1793  balances */\n      0x03\n        /* \"contracts/12_token_1.sol\":1785:1797  balances[to] */\n      0x00\n        /* \"contracts/12_token_1.sol\":1794:1796  to */\n      dup5\n        /* \"contracts/12_token_1.sol\":1785:1797  balances[to] */\n      0xffffffffffffffffffffffffffffffffffffffff\n      and\n      0xffffffffffffffffffffffffffffffffffffffff\n      and\n      dup2\n      mstore\n      0x20\n      add\n      swap1\n      dup2\n      mstore\n      0x20\n      add\n      0x00\n      keccak256\n      0x00\n        /* \"contracts/12_token_1.sol\":1785:1807  balances[to] += amount */\n      dup3\n      dup3\n      sload\n      tag_90\n      swap2\n      swap1\n      tag_68\n      jump\t// in\n    tag_90:\n      swap3\n      pop\n      pop\n      dup2\n      swap1\n      sstore\n      pop\n        /* \"contracts/12_token_1.sol\":1606:1814  function transfer( address to , uint amount ) public {... */\n      pop\n      pop\n      jump\t// out\n        /* \"contracts/12_token_1.sol\":351:415  mapping(address => mapping( address => uint ) ) public allowance */\n    tag_52:\n      mstore(0x20, 0x04)\n      dup2\n      0x00\n      mstore\n      mstore(0x20, keccak256(0x00, 0x40))\n      dup1\n      0x00\n      mstore\n      keccak256(0x00, 0x40)\n      0x00\n      swap2\n      pop\n      swap2\n      pop\n      pop\n      sload\n      dup2\n      jump\t// out\n        /* \"#utility.yul\":7:84   */\n    tag_91:\n        /* \"#utility.yul\":44:51   */\n      0x00\n        /* \"#utility.yul\":73:78   */\n      dup2\n        /* \"#utility.yul\":62:78   */\n      swap1\n      pop\n        /* \"#utility.yul\":7:84   */\n      swap2\n      swap1\n      pop\n      jump\t// out\n        /* \"#utility.yul\":90:208   */\n    tag_92:\n        /* \"#utility.yul\":177:201   */\n      tag_117\n        /* \"#utility.yul\":195:200   */\n      dup2\n        /* \"#utility.yul\":177:201   */\n      tag_91\n      jump\t// in\n    tag_117:\n        /* \"#utility.yul\":172:175   */\n      dup3\n        /* \"#utility.yul\":165:202   */\n      mstore\n        /* \"#utility.yul\":90:208   */\n      pop\n      pop\n      jump\t// out\n        /* \"#utility.yul\":214:436   */\n    tag_17:\n        /* \"#utility.yul\":307:311   */\n      0x00\n        /* \"#utility.yul\":345:347   */\n      0x20\n        /* \"#utility.yul\":334:343   */\n      dup3\n        /* \"#utility.yul\":330:348   */\n      add\n        /* \"#utility.yul\":322:348   */\n      swap1\n      pop\n        /* \"#utility.yul\":358:429   */\n      tag_119\n        /* \"#utility.yul\":426:427   */\n      0x00\n        /* \"#utility.yul\":415:424   */\n      dup4\n        /* \"#utility.yul\":411:428   */\n      add\n        /* \"#utility.yul\":402:408   */\n      dup5\n        /* \"#utility.yul\":358:429   */\n      tag_92\n      jump\t// in\n    tag_119:\n        /* \"#utility.yul\":214:436   */\n      swap3\n      swap2\n      pop\n      pop\n      jump\t// out\n        /* \"#utility.yul\":442:541   */\n    tag_93:\n        /* \"#utility.yul\":494:500   */\n      0x00\n        /* \"#utility.yul\":528:533   */\n      dup2\n        /* \"#utility.yul\":522:534   */\n      mload\n        /* \"#utility.yul\":512:534   */\n      swap1\n      pop\n        /* \"#utility.yul\":442:541   */\n      swap2\n      swap1\n      pop\n      jump\t// out\n        /* \"#utility.yul\":547:716   */\n    tag_94:\n        /* \"#utility.yul\":631:642   */\n      0x00\n        /* \"#utility.yul\":665:671   */\n      dup3\n        /* \"#utility.yul\":660:663   */\n      dup3\n        /* \"#utility.yul\":653:672   */\n      mstore\n        /* \"#utility.yul\":705:709   */\n      0x20\n        /* \"#utility.yul\":700:703   */\n      dup3\n        /* \"#utility.yul\":696:710   */\n      add\n        /* \"#utility.yul\":681:710   */\n      swap1\n      pop\n        /* \"#utility.yul\":547:716   */\n      swap3\n      swap2\n      pop\n      pop\n      jump\t// out\n        /* \"#utility.yul\":722:861   */\n    tag_95:\n        /* \"#utility.yul\":811:817   */\n      dup3\n        /* \"#utility.yul\":806:809   */\n      dup2\n        /* \"#utility.yul\":801:804   */\n      dup4\n        /* \"#utility.yul\":795:818   */\n      mcopy\n        /* \"#utility.yul\":852:853   */\n      0x00\n        /* \"#utility.yul\":843:849   */\n      dup4\n        /* \"#utility.yul\":838:841   */\n      dup4\n        /* \"#utility.yul\":834:850   */\n      add\n        /* \"#utility.yul\":827:854   */\n      mstore\n        /* \"#utility.yul\":722:861   */\n      pop\n      pop\n      pop\n      jump\t// out\n        /* \"#utility.yul\":867:969   */\n    tag_96:\n        /* \"#utility.yul\":908:914   */\n      0x00\n        /* \"#utility.yul\":959:961   */\n      0x1f\n        /* \"#utility.yul\":955:962   */\n      not\n        /* \"#utility.yul\":950:952   */\n      0x1f\n        /* \"#utility.yul\":943:948   */\n      dup4\n        /* \"#utility.yul\":939:953   */\n      add\n        /* \"#utility.yul\":935:963   */\n      and\n        /* \"#utility.yul\":925:963   */\n      swap1\n      pop\n        /* \"#utility.yul\":867:969   */\n      swap2\n      swap1\n      pop\n      jump\t// out\n        /* \"#utility.yul\":975:1352   */\n    tag_97:\n        /* \"#utility.yul\":1063:1066   */\n      0x00\n        /* \"#utility.yul\":1091:1130   */\n      tag_125\n        /* \"#utility.yul\":1124:1129   */\n      dup3\n        /* \"#utility.yul\":1091:1130   */\n      tag_93\n      jump\t// in\n    tag_125:\n        /* \"#utility.yul\":1146:1217   */\n      tag_126\n        /* \"#utility.yul\":1210:1216   */\n      dup2\n        /* \"#utility.yul\":1205:1208   */\n      dup6\n        /* \"#utility.yul\":1146:1217   */\n      tag_94\n      jump\t// in\n    tag_126:\n        /* \"#utility.yul\":1139:1217   */\n      swap4\n      pop\n        /* \"#utility.yul\":1226:1291   */\n      tag_127\n        /* \"#utility.yul\":1284:1290   */\n      dup2\n        /* \"#utility.yul\":1279:1282   */\n      dup6\n        /* \"#utility.yul\":1272:1276   */\n      0x20\n        /* \"#utility.yul\":1265:1270   */\n      dup7\n        /* \"#utility.yul\":1261:1277   */\n      add\n        /* \"#utility.yul\":1226:1291   */\n      tag_95\n      jump\t// in\n    tag_127:\n        /* \"#utility.yul\":1316:1345   */\n      tag_128\n        /* \"#utility.yul\":1338:1344   */\n      dup2\n        /* \"#utility.yul\":1316:1345   */\n      tag_96\n      jump\t// in\n    tag_128:\n        /* \"#utility.yul\":1311:1314   */\n      dup5\n        /* \"#utility.yul\":1307:1346   */\n      add\n        /* \"#utility.yul\":1300:1346   */\n      swap2\n      pop\n        /* \"#utility.yul\":1067:1352   */\n      pop\n        /* \"#utility.yul\":975:1352   */\n      swap3\n      swap2\n      pop\n      pop\n      jump\t// out\n        /* \"#utility.yul\":1358:1671   */\n    tag_21:\n        /* \"#utility.yul\":1471:1475   */\n      0x00\n        /* \"#utility.yul\":1509:1511   */\n      0x20\n        /* \"#utility.yul\":1498:1507   */\n      dup3\n        /* \"#utility.yul\":1494:1512   */\n      add\n        /* \"#utility.yul\":1486:1512   */\n      swap1\n      pop\n        /* \"#utility.yul\":1558:1567   */\n      dup2\n        /* \"#utility.yul\":1552:1556   */\n      dup2\n        /* \"#utility.yul\":1548:1568   */\n      sub\n        /* \"#utility.yul\":1544:1545   */\n      0x00\n        /* \"#utility.yul\":1533:1542   */\n      dup4\n        /* \"#utility.yul\":1529:1546   */\n      add\n        /* \"#utility.yul\":1522:1569   */\n      mstore\n        /* \"#utility.yul\":1586:1664   */\n      tag_130\n        /* \"#utility.yul\":1659:1663   */\n      dup2\n        /* \"#utility.yul\":1650:1656   */\n      dup5\n        /* \"#utility.yul\":1586:1664   */\n      tag_97\n      jump\t// in\n    tag_130:\n        /* \"#utility.yul\":1578:1664   */\n      swap1\n      pop\n        /* \"#utility.yul\":1358:1671   */\n      swap3\n      swap2\n      pop\n      pop\n      jump\t// out\n        /* \"#utility.yul\":1758:1875   */\n    tag_99:\n        /* \"#utility.yul\":1867:1868   */\n      0x00\n        /* \"#utility.yul\":1864:1865   */\n      0x00\n        /* \"#utility.yul\":1857:1869   */\n      revert\n        /* \"#utility.yul\":2004:2130   */\n    tag_101:\n        /* \"#utility.yul\":2041:2048   */\n      0x00\n        /* \"#utility.yul\":2081:2123   */\n      0xffffffffffffffffffffffffffffffffffffffff\n        /* \"#utility.yul\":2074:2079   */\n      dup3\n        /* \"#utility.yul\":2070:2124   */\n      and\n        /* \"#utility.yul\":2059:2124   */\n      swap1\n      pop\n        /* \"#utility.yul\":2004:2130   */\n      swap2\n      swap1\n      pop\n      jump\t// out\n        /* \"#utility.yul\":2136:2232   */\n    tag_102:\n        /* \"#utility.yul\":2173:2180   */\n      0x00\n        /* \"#utility.yul\":2202:2226   */\n      tag_136\n        /* \"#utility.yul\":2220:2225   */\n      dup3\n        /* \"#utility.yul\":2202:2226   */\n      tag_101\n      jump\t// in\n    tag_136:\n        /* \"#utility.yul\":2191:2226   */\n      swap1\n      pop\n        /* \"#utility.yul\":2136:2232   */\n      swap2\n      swap1\n      pop\n      jump\t// out\n        /* \"#utility.yul\":2238:2360   */\n    tag_103:\n        /* \"#utility.yul\":2311:2335   */\n      tag_138\n        /* \"#utility.yul\":2329:2334   */\n      dup2\n        /* \"#utility.yul\":2311:2335   */\n      tag_102\n      jump\t// in\n    tag_138:\n        /* \"#utility.yul\":2304:2309   */\n      dup2\n        /* \"#utility.yul\":2301:2336   */\n      eq\n        /* \"#utility.yul\":2291:2354   */\n      tag_139\n      jumpi\n        /* \"#utility.yul\":2350:2351   */\n      0x00\n        /* \"#utility.yul\":2347:2348   */\n      0x00\n        /* \"#utility.yul\":2340:2352   */\n      revert\n        /* \"#utility.yul\":2291:2354   */\n    tag_139:\n        /* \"#utility.yul\":2238:2360   */\n      pop\n      jump\t// out\n        /* \"#utility.yul\":2366:2505   */\n    tag_104:\n        /* \"#utility.yul\":2412:2417   */\n      0x00\n        /* \"#utility.yul\":2450:2456   */\n      dup2\n        /* \"#utility.yul\":2437:2457   */\n      calldataload\n        /* \"#utility.yul\":2428:2457   */\n      swap1\n      pop\n        /* \"#utility.yul\":2466:2499   */\n      tag_141\n        /* \"#utility.yul\":2493:2498   */\n      dup2\n        /* \"#utility.yul\":2466:2499   */\n      tag_103\n      jump\t// in\n    tag_141:\n        /* \"#utility.yul\":2366:2505   */\n      swap3\n      swap2\n      pop\n      pop\n      jump\t// out\n        /* \"#utility.yul\":2511:2633   */\n    tag_105:\n        /* \"#utility.yul\":2584:2608   */\n      tag_143\n        /* \"#utility.yul\":2602:2607   */\n      dup2\n        /* \"#utility.yul\":2584:2608   */\n      tag_91\n      jump\t// in\n    tag_143:\n        /* \"#utility.yul\":2577:2582   */\n      dup2\n        /* \"#utility.yul\":2574:2609   */\n      eq\n        /* \"#utility.yul\":2564:2627   */\n      tag_144\n      jumpi\n        /* \"#utility.yul\":2623:2624   */\n      0x00\n        /* \"#utility.yul\":2620:2621   */\n      0x00\n        /* \"#utility.yul\":2613:2625   */\n      revert\n        /* \"#utility.yul\":2564:2627   */\n    tag_144:\n        /* \"#utility.yul\":2511:2633   */\n      pop\n      jump\t// out\n        /* \"#utility.yul\":2639:2778   */\n    tag_106:\n        /* \"#utility.yul\":2685:2690   */\n      0x00\n        /* \"#utility.yul\":2723:2729   */\n      dup2\n        /* \"#utility.yul\":2710:2730   */\n      calldataload\n        /* \"#utility.yul\":2701:2730   */\n      swap1\n      pop\n        /* \"#utility.yul\":2739:2772   */\n      tag_146\n        /* \"#utility.yul\":2766:2771   */\n      dup2\n        /* \"#utility.yul\":2739:2772   */\n      tag_105\n      jump\t// in\n    tag_146:\n        /* \"#utility.yul\":2639:2778   */\n      swap3\n      swap2\n      pop\n      pop\n      jump\t// out\n        /* \"#utility.yul\":2784:3403   */\n    tag_24:\n        /* \"#utility.yul\":2861:2867   */\n      0x00\n        /* \"#utility.yul\":2869:2875   */\n      0x00\n        /* \"#utility.yul\":2877:2883   */\n      0x00\n        /* \"#utility.yul\":2926:2928   */\n      0x60\n        /* \"#utility.yul\":2914:2923   */\n      dup5\n        /* \"#utility.yul\":2905:2912   */\n      dup7\n        /* \"#utility.yul\":2901:2924   */\n      sub\n        /* \"#utility.yul\":2897:2929   */\n      slt\n        /* \"#utility.yul\":2894:3013   */\n      iszero\n      tag_148\n      jumpi\n        /* \"#utility.yul\":2932:3011   */\n      tag_149\n      tag_99\n      jump\t// in\n    tag_149:\n        /* \"#utility.yul\":2894:3013   */\n    tag_148:\n        /* \"#utility.yul\":3052:3053   */\n      0x00\n        /* \"#utility.yul\":3077:3130   */\n      tag_150\n        /* \"#utility.yul\":3122:3129   */\n      dup7\n        /* \"#utility.yul\":3113:3119   */\n      dup3\n        /* \"#utility.yul\":3102:3111   */\n      dup8\n        /* \"#utility.yul\":3098:3120   */\n      add\n        /* \"#utility.yul\":3077:3130   */\n      tag_104\n      jump\t// in\n    tag_150:\n        /* \"#utility.yul\":3067:3130   */\n      swap4\n      pop\n        /* \"#utility.yul\":3023:3140   */\n      pop\n        /* \"#utility.yul\":3179:3181   */\n      0x20\n        /* \"#utility.yul\":3205:3258   */\n      tag_151\n        /* \"#utility.yul\":3250:3257   */\n      dup7\n        /* \"#utility.yul\":3241:3247   */\n      dup3\n        /* \"#utility.yul\":3230:3239   */\n      dup8\n        /* \"#utility.yul\":3226:3248   */\n      add\n        /* \"#utility.yul\":3205:3258   */\n      tag_104\n      jump\t// in\n    tag_151:\n        /* \"#utility.yul\":3195:3258   */\n      swap3\n      pop\n        /* \"#utility.yul\":3150:3268   */\n      pop\n        /* \"#utility.yul\":3307:3309   */\n      0x40\n        /* \"#utility.yul\":3333:3386   */\n      tag_152\n        /* \"#utility.yul\":3378:3385   */\n      dup7\n        /* \"#utility.yul\":3369:3375   */\n      dup3\n        /* \"#utility.yul\":3358:3367   */\n      dup8\n        /* \"#utility.yul\":3354:3376   */\n      add\n        /* \"#utility.yul\":3333:3386   */\n      tag_106\n      jump\t// in\n    tag_152:\n        /* \"#utility.yul\":3323:3386   */\n      swap2\n      pop\n        /* \"#utility.yul\":3278:3396   */\n      pop\n        /* \"#utility.yul\":2784:3403   */\n      swap3\n      pop\n      swap3\n      pop\n      swap3\n      jump\t// out\n        /* \"#utility.yul\":3409:3738   */\n    tag_28:\n        /* \"#utility.yul\":3468:3474   */\n      0x00\n        /* \"#utility.yul\":3517:3519   */\n      0x20\n        /* \"#utility.yul\":3505:3514   */\n      dup3\n        /* \"#utility.yul\":3496:3503   */\n      dup5\n        /* \"#utility.yul\":3492:3515   */\n      sub\n        /* \"#utility.yul\":3488:3520   */\n      slt\n        /* \"#utility.yul\":3485:3604   */\n      iszero\n      tag_154\n      jumpi\n        /* \"#utility.yul\":3523:3602   */\n      tag_155\n      tag_99\n      jump\t// in\n    tag_155:\n        /* \"#utility.yul\":3485:3604   */\n    tag_154:\n        /* \"#utility.yul\":3643:3644   */\n      0x00\n        /* \"#utility.yul\":3668:3721   */\n      tag_156\n        /* \"#utility.yul\":3713:3720   */\n      dup5\n        /* \"#utility.yul\":3704:3710   */\n      dup3\n        /* \"#utility.yul\":3693:3702   */\n      dup6\n        /* \"#utility.yul\":3689:3711   */\n      add\n        /* \"#utility.yul\":3668:3721   */\n      tag_104\n      jump\t// in\n    tag_156:\n        /* \"#utility.yul\":3658:3721   */\n      swap2\n      pop\n        /* \"#utility.yul\":3614:3731   */\n      pop\n        /* \"#utility.yul\":3409:3738   */\n      swap3\n      swap2\n      pop\n      pop\n      jump\t// out\n        /* \"#utility.yul\":3744:4073   */\n    tag_33:\n        /* \"#utility.yul\":3803:3809   */\n      0x00\n        /* \"#utility.yul\":3852:3854   */\n      0x20\n        /* \"#utility.yul\":3840:3849   */\n      dup3\n        /* \"#utility.yul\":3831:3838   */\n      dup5\n        /* \"#utility.yul\":3827:3850   */\n      sub\n        /* \"#utility.yul\":3823:3855   */\n      slt\n        /* \"#utility.yul\":3820:3939   */\n      iszero\n      tag_158\n      jumpi\n        /* \"#utility.yul\":3858:3937   */\n      tag_159\n      tag_99\n      jump\t// in\n    tag_159:\n        /* \"#utility.yul\":3820:3939   */\n    tag_158:\n        /* \"#utility.yul\":3978:3979   */\n      0x00\n        /* \"#utility.yul\":4003:4056   */\n      tag_160\n        /* \"#utility.yul\":4048:4055   */\n      dup5\n        /* \"#utility.yul\":4039:4045   */\n      dup3\n        /* \"#utility.yul\":4028:4037   */\n      dup6\n        /* \"#utility.yul\":4024:4046   */\n      add\n        /* \"#utility.yul\":4003:4056   */\n      tag_106\n      jump\t// in\n    tag_160:\n        /* \"#utility.yul\":3993:4056   */\n      swap2\n      pop\n        /* \"#utility.yul\":3949:4066   */\n      pop\n        /* \"#utility.yul\":3744:4073   */\n      swap3\n      swap2\n      pop\n      pop\n      jump\t// out\n        /* \"#utility.yul\":4079:4553   */\n    tag_37:\n        /* \"#utility.yul\":4147:4153   */\n      0x00\n        /* \"#utility.yul\":4155:4161   */\n      0x00\n        /* \"#utility.yul\":4204:4206   */\n      0x40\n        /* \"#utility.yul\":4192:4201   */\n      dup4\n        /* \"#utility.yul\":4183:4190   */\n      dup6\n        /* \"#utility.yul\":4179:4202   */\n      sub\n        /* \"#utility.yul\":4175:4207   */\n      slt\n        /* \"#utility.yul\":4172:4291   */\n      iszero\n      tag_162\n      jumpi\n        /* \"#utility.yul\":4210:4289   */\n      tag_163\n      tag_99\n      jump\t// in\n    tag_163:\n        /* \"#utility.yul\":4172:4291   */\n    tag_162:\n        /* \"#utility.yul\":4330:4331   */\n      0x00\n        /* \"#utility.yul\":4355:4408   */\n      tag_164\n        /* \"#utility.yul\":4400:4407   */\n      dup6\n        /* \"#utility.yul\":4391:4397   */\n      dup3\n        /* \"#utility.yul\":4380:4389   */\n      dup7\n        /* \"#utility.yul\":4376:4398   */\n      add\n        /* \"#utility.yul\":4355:4408   */\n      tag_104\n      jump\t// in\n    tag_164:\n        /* \"#utility.yul\":4345:4408   */\n      swap3\n      pop\n        /* \"#utility.yul\":4301:4418   */\n      pop\n        /* \"#utility.yul\":4457:4459   */\n      0x20\n        /* \"#utility.yul\":4483:4536   */\n      tag_165\n        /* \"#utility.yul\":4528:4535   */\n      dup6\n        /* \"#utility.yul\":4519:4525   */\n      dup3\n        /* \"#utility.yul\":4508:4517   */\n      dup7\n        /* \"#utility.yul\":4504:4526   */\n      add\n        /* \"#utility.yul\":4483:4536   */\n      tag_106\n      jump\t// in\n    tag_165:\n        /* \"#utility.yul\":4473:4536   */\n      swap2\n      pop\n        /* \"#utility.yul\":4428:4546   */\n      pop\n        /* \"#utility.yul\":4079:4553   */\n      swap3\n      pop\n      swap3\n      swap1\n      pop\n      jump\t// out\n        /* \"#utility.yul\":4559:4677   */\n    tag_107:\n        /* \"#utility.yul\":4646:4670   */\n      tag_167\n        /* \"#utility.yul\":4664:4669   */\n      dup2\n        /* \"#utility.yul\":4646:4670   */\n      tag_102\n      jump\t// in\n    tag_167:\n        /* \"#utility.yul\":4641:4644   */\n      dup3\n        /* \"#utility.yul\":4634:4671   */\n      mstore\n        /* \"#utility.yul\":4559:4677   */\n      pop\n      pop\n      jump\t// out\n        /* \"#utility.yul\":4683:4905   */\n    tag_45:\n        /* \"#utility.yul\":4776:4780   */\n      0x00\n        /* \"#utility.yul\":4814:4816   */\n      0x20\n        /* \"#utility.yul\":4803:4812   */\n      dup3\n        /* \"#utility.yul\":4799:4817   */\n      add\n        /* \"#utility.yul\":4791:4817   */\n      swap1\n      pop\n        /* \"#utility.yul\":4827:4898   */\n      tag_169\n        /* \"#utility.yul\":4895:4896   */\n      0x00\n        /* \"#utility.yul\":4884:4893   */\n      dup4\n        /* \"#utility.yul\":4880:4897   */\n      add\n        /* \"#utility.yul\":4871:4877   */\n      dup5\n        /* \"#utility.yul\":4827:4898   */\n      tag_107\n      jump\t// in\n    tag_169:\n        /* \"#utility.yul\":4683:4905   */\n      swap3\n      swap2\n      pop\n      pop\n      jump\t// out\n        /* \"#utility.yul\":4911:5385   */\n    tag_51:\n        /* \"#utility.yul\":4979:4985   */\n      0x00\n        /* \"#utility.yul\":4987:4993   */\n      0x00\n        /* \"#utility.yul\":5036:5038   */\n      0x40\n        /* \"#utility.yul\":5024:5033   */\n      dup4\n        /* \"#utility.yul\":5015:5022   */\n      dup6\n        /* \"#utility.yul\":5011:5034   */\n      sub\n        /* \"#utility.yul\":5007:5039   */\n      slt\n        /* \"#utility.yul\":5004:5123   */\n      iszero\n      tag_171\n      jumpi\n        /* \"#utility.yul\":5042:5121   */\n      tag_172\n      tag_99\n      jump\t// in\n    tag_172:\n        /* \"#utility.yul\":5004:5123   */\n    tag_171:\n        /* \"#utility.yul\":5162:5163   */\n      0x00\n        /* \"#utility.yul\":5187:5240   */\n      tag_173\n        /* \"#utility.yul\":5232:5239   */\n      dup6\n        /* \"#utility.yul\":5223:5229   */\n      dup3\n        /* \"#utility.yul\":5212:5221   */\n      dup7\n        /* \"#utility.yul\":5208:5230   */\n      add\n        /* \"#utility.yul\":5187:5240   */\n      tag_104\n      jump\t// in\n    tag_173:\n        /* \"#utility.yul\":5177:5240   */\n      swap3\n      pop\n        /* \"#utility.yul\":5133:5250   */\n      pop\n        /* \"#utility.yul\":5289:5291   */\n      0x20\n        /* \"#utility.yul\":5315:5368   */\n      tag_174\n        /* \"#utility.yul\":5360:5367   */\n      dup6\n        /* \"#utility.yul\":5351:5357   */\n      dup3\n        /* \"#utility.yul\":5340:5349   */\n      dup7\n        /* \"#utility.yul\":5336:5358   */\n      add\n        /* \"#utility.yul\":5315:5368   */\n      tag_104\n      jump\t// in\n    tag_174:\n        /* \"#utility.yul\":5305:5368   */\n      swap2\n      pop\n        /* \"#utility.yul\":5260:5378   */\n      pop\n        /* \"#utility.yul\":4911:5385   */\n      swap3\n      pop\n      swap3\n      swap1\n      pop\n      jump\t// out\n        /* \"#utility.yul\":5391:5571   */\n    tag_108:\n        /* \"#utility.yul\":5439:5516   */\n      0x4e487b7100000000000000000000000000000000000000000000000000000000\n        /* \"#utility.yul\":5436:5437   */\n      0x00\n        /* \"#utility.yul\":5429:5517   */\n      mstore\n        /* \"#utility.yul\":5536:5540   */\n      0x22\n        /* \"#utility.yul\":5533:5534   */\n      0x04\n        /* \"#utility.yul\":5526:5541   */\n      mstore\n        /* \"#utility.yul\":5560:5564   */\n      0x24\n        /* \"#utility.yul\":5557:5558   */\n      0x00\n        /* \"#utility.yul\":5550:5565   */\n      revert\n        /* \"#utility.yul\":5577:5897   */\n    tag_55:\n        /* \"#utility.yul\":5621:5627   */\n      0x00\n        /* \"#utility.yul\":5658:5659   */\n      0x02\n        /* \"#utility.yul\":5652:5656   */\n      dup3\n        /* \"#utility.yul\":5648:5660   */\n      div\n        /* \"#utility.yul\":5638:5660   */\n      swap1\n      pop\n        /* \"#utility.yul\":5705:5706   */\n      0x01\n        /* \"#utility.yul\":5699:5703   */\n      dup3\n        /* \"#utility.yul\":5695:5707   */\n      and\n        /* \"#utility.yul\":5726:5744   */\n      dup1\n        /* \"#utility.yul\":5716:5797   */\n      tag_177\n      jumpi\n        /* \"#utility.yul\":5782:5786   */\n      0x7f\n        /* \"#utility.yul\":5774:5780   */\n      dup3\n        /* \"#utility.yul\":5770:5787   */\n      and\n        /* \"#utility.yul\":5760:5787   */\n      swap2\n      pop\n        /* \"#utility.yul\":5716:5797   */\n    tag_177:\n        /* \"#utility.yul\":5844:5846   */\n      0x20\n        /* \"#utility.yul\":5836:5842   */\n      dup3\n        /* \"#utility.yul\":5833:5847   */\n      lt\n        /* \"#utility.yul\":5813:5831   */\n      dup2\n        /* \"#utility.yul\":5810:5848   */\n      sub\n        /* \"#utility.yul\":5807:5891   */\n      tag_178\n      jumpi\n        /* \"#utility.yul\":5863:5881   */\n      tag_179\n      tag_108\n      jump\t// in\n    tag_179:\n        /* \"#utility.yul\":5807:5891   */\n    tag_178:\n        /* \"#utility.yul\":5628:5897   */\n      pop\n        /* \"#utility.yul\":5577:5897   */\n      swap2\n      swap1\n      pop\n      jump\t// out\n        /* \"#utility.yul\":5903:6076   */\n    tag_109:\n        /* \"#utility.yul\":6043:6068   */\n      0x42616c616e636520697320696e73756666696369656e74000000000000000000\n        /* \"#utility.yul\":6039:6040   */\n      0x00\n        /* \"#utility.yul\":6031:6037   */\n      dup3\n        /* \"#utility.yul\":6027:6041   */\n      add\n        /* \"#utility.yul\":6020:6069   */\n      mstore\n        /* \"#utility.yul\":5903:6076   */\n      pop\n      jump\t// out\n        /* \"#utility.yul\":6082:6448   */\n    tag_110:\n        /* \"#utility.yul\":6224:6227   */\n      0x00\n        /* \"#utility.yul\":6245:6312   */\n      tag_182\n        /* \"#utility.yul\":6309:6311   */\n      0x17\n        /* \"#utility.yul\":6304:6307   */\n      dup4\n        /* \"#utility.yul\":6245:6312   */\n      tag_94\n      jump\t// in\n    tag_182:\n        /* \"#utility.yul\":6238:6312   */\n      swap2\n      pop\n        /* \"#utility.yul\":6321:6414   */\n      tag_183\n        /* \"#utility.yul\":6410:6413   */\n      dup3\n        /* \"#utility.yul\":6321:6414   */\n      tag_109\n      jump\t// in\n    tag_183:\n        /* \"#utility.yul\":6439:6441   */\n      0x20\n        /* \"#utility.yul\":6434:6437   */\n      dup3\n        /* \"#utility.yul\":6430:6442   */\n      add\n        /* \"#utility.yul\":6423:6442   */\n      swap1\n      pop\n        /* \"#utility.yul\":6082:6448   */\n      swap2\n      swap1\n      pop\n      jump\t// out\n        /* \"#utility.yul\":6454:6873   */\n    tag_63:\n        /* \"#utility.yul\":6620:6624   */\n      0x00\n        /* \"#utility.yul\":6658:6660   */\n      0x20\n        /* \"#utility.yul\":6647:6656   */\n      dup3\n        /* \"#utility.yul\":6643:6661   */\n      add\n        /* \"#utility.yul\":6635:6661   */\n      swap1\n      pop\n        /* \"#utility.yul\":6707:6716   */\n      dup2\n        /* \"#utility.yul\":6701:6705   */\n      dup2\n        /* \"#utility.yul\":6697:6717   */\n      sub\n        /* \"#utility.yul\":6693:6694   */\n      0x00\n        /* \"#utility.yul\":6682:6691   */\n      dup4\n        /* \"#utility.yul\":6678:6695   */\n      add\n        /* \"#utility.yul\":6671:6718   */\n      mstore\n        /* \"#utility.yul\":6735:6866   */\n      tag_185\n        /* \"#utility.yul\":6861:6865   */\n      dup2\n        /* \"#utility.yul\":6735:6866   */\n      tag_110\n      jump\t// in\n    tag_185:\n        /* \"#utility.yul\":6727:6866   */\n      swap1\n      pop\n        /* \"#utility.yul\":6454:6873   */\n      swap2\n      swap1\n      pop\n      jump\t// out\n        /* \"#utility.yul\":6879:7059   */\n    tag_111:\n        /* \"#utility.yul\":6927:7004   */\n      0x4e487b7100000000000000000000000000000000000000000000000000000000\n        /* \"#utility.yul\":6924:6925   */\n      0x00\n        /* \"#utility.yul\":6917:7005   */\n      mstore\n        /* \"#utility.yul\":7024:7028   */\n      0x11\n        /* \"#utility.yul\":7021:7022   */\n      0x04\n        /* \"#utility.yul\":7014:7029   */\n      mstore\n        /* \"#utility.yul\":7048:7052   */\n      0x24\n        /* \"#utility.yul\":7045:7046   */\n      0x00\n        /* \"#utility.yul\":7038:7053   */\n      revert\n        /* \"#utility.yul\":7065:7259   */\n    tag_66:\n        /* \"#utility.yul\":7105:7109   */\n      0x00\n        /* \"#utility.yul\":7125:7145   */\n      tag_188\n        /* \"#utility.yul\":7143:7144   */\n      dup3\n        /* \"#utility.yul\":7125:7145   */\n      tag_91\n      jump\t// in\n    tag_188:\n        /* \"#utility.yul\":7120:7145   */\n      swap2\n      pop\n        /* \"#utility.yul\":7159:7179   */\n      tag_189\n        /* \"#utility.yul\":7177:7178   */\n      dup4\n        /* \"#utility.yul\":7159:7179   */\n      tag_91\n      jump\t// in\n    tag_189:\n        /* \"#utility.yul\":7154:7179   */\n      swap3\n      pop\n        /* \"#utility.yul\":7203:7204   */\n      dup3\n        /* \"#utility.yul\":7200:7201   */\n      dup3\n        /* \"#utility.yul\":7196:7205   */\n      sub\n        /* \"#utility.yul\":7188:7205   */\n      swap1\n      pop\n        /* \"#utility.yul\":7227:7228   */\n      dup2\n        /* \"#utility.yul\":7221:7225   */\n      dup2\n        /* \"#utility.yul\":7218:7229   */\n      gt\n        /* \"#utility.yul\":7215:7252   */\n      iszero\n      tag_190\n      jumpi\n        /* \"#utility.yul\":7232:7250   */\n      tag_191\n      tag_111\n      jump\t// in\n    tag_191:\n        /* \"#utility.yul\":7215:7252   */\n    tag_190:\n        /* \"#utility.yul\":7065:7259   */\n      swap3\n      swap2\n      pop\n      pop\n      jump\t// out\n        /* \"#utility.yul\":7265:7456   */\n    tag_68:\n        /* \"#utility.yul\":7305:7308   */\n      0x00\n        /* \"#utility.yul\":7324:7344   */\n      tag_193\n        /* \"#utility.yul\":7342:7343   */\n      dup3\n        /* \"#utility.yul\":7324:7344   */\n      tag_91\n      jump\t// in\n    tag_193:\n        /* \"#utility.yul\":7319:7344   */\n      swap2\n      pop\n        /* \"#utility.yul\":7358:7378   */\n      tag_194\n        /* \"#utility.yul\":7376:7377   */\n      dup4\n        /* \"#utility.yul\":7358:7378   */\n      tag_91\n      jump\t// in\n    tag_194:\n        /* \"#utility.yul\":7353:7378   */\n      swap3\n      pop\n        /* \"#utility.yul\":7401:7402   */\n      dup3\n        /* \"#utility.yul\":7398:7399   */\n      dup3\n        /* \"#utility.yul\":7394:7403   */\n      add\n        /* \"#utility.yul\":7387:7403   */\n      swap1\n      pop\n        /* \"#utility.yul\":7422:7425   */\n      dup1\n        /* \"#utility.yul\":7419:7420   */\n      dup3\n        /* \"#utility.yul\":7416:7426   */\n      gt\n        /* \"#utility.yul\":7413:7449   */\n      iszero\n      tag_195\n      jumpi\n        /* \"#utility.yul\":7429:7447   */\n      tag_196\n      tag_111\n      jump\t// in\n    tag_196:\n        /* \"#utility.yul\":7413:7449   */\n    tag_195:\n        /* \"#utility.yul\":7265:7456   */\n      swap3\n      swap2\n      pop\n      pop\n      jump\t// out\n        /* \"#utility.yul\":7462:7687   */\n    tag_112:\n        /* \"#utility.yul\":7602:7636   */\n      0x4f6e6c79206f776e65722063616e20706572666f726d2074686973206f706572\n        /* \"#utility.yul\":7598:7599   */\n      0x00\n        /* \"#utility.yul\":7590:7596   */\n      dup3\n        /* \"#utility.yul\":7586:7600   */\n      add\n        /* \"#utility.yul\":7579:7637   */\n      mstore\n        /* \"#utility.yul\":7671:7679   */\n      0x6174696f6e2e0000000000000000000000000000000000000000000000000000\n        /* \"#utility.yul\":7666:7668   */\n      0x20\n        /* \"#utility.yul\":7658:7664   */\n      dup3\n        /* \"#utility.yul\":7654:7669   */\n      add\n        /* \"#utility.yul\":7647:7680   */\n      mstore\n        /* \"#utility.yul\":7462:7687   */\n      pop\n      jump\t// out\n        /* \"#utility.yul\":7693:8059   */\n    tag_113:\n        /* \"#utility.yul\":7835:7838   */\n      0x00\n        /* \"#utility.yul\":7856:7923   */\n      tag_199\n        /* \"#utility.yul\":7920:7922   */\n      0x26\n        /* \"#utility.yul\":7915:7918   */\n      dup4\n        /* \"#utility.yul\":7856:7923   */\n      tag_94\n      jump\t// in\n    tag_199:\n        /* \"#utility.yul\":7849:7923   */\n      swap2\n      pop\n        /* \"#utility.yul\":7932:8025   */\n      tag_200\n        /* \"#utility.yul\":8021:8024   */\n      dup3\n        /* \"#utility.yul\":7932:8025   */\n      tag_112\n      jump\t// in\n    tag_200:\n        /* \"#utility.yul\":8050:8052   */\n      0x40\n        /* \"#utility.yul\":8045:8048   */\n      dup3\n        /* \"#utility.yul\":8041:8053   */\n      add\n        /* \"#utility.yul\":8034:8053   */\n      swap1\n      pop\n        /* \"#utility.yul\":7693:8059   */\n      swap2\n      swap1\n      pop\n      jump\t// out\n        /* \"#utility.yul\":8065:8484   */\n    tag_79:\n        /* \"#utility.yul\":8231:8235   */\n      0x00\n        /* \"#utility.yul\":8269:8271   */\n      0x20\n        /* \"#utility.yul\":8258:8267   */\n      dup3\n        /* \"#utility.yul\":8254:8272   */\n      add\n        /* \"#utility.yul\":8246:8272   */\n      swap1\n      pop\n        /* \"#utility.yul\":8318:8327   */\n      dup2\n        /* \"#utility.yul\":8312:8316   */\n      dup2\n        /* \"#utility.yul\":8308:8328   */\n      sub\n        /* \"#utility.yul\":8304:8305   */\n      0x00\n        /* \"#utility.yul\":8293:8302   */\n      dup4\n        /* \"#utility.yul\":8289:8306   */\n      add\n        /* \"#utility.yul\":8282:8329   */\n      mstore\n        /* \"#utility.yul\":8346:8477   */\n      tag_202\n        /* \"#utility.yul\":8472:8476   */\n      dup2\n        /* \"#utility.yul\":8346:8477   */\n      tag_113\n      jump\t// in\n    tag_202:\n        /* \"#utility.yul\":8338:8477   */\n      swap1\n      pop\n        /* \"#utility.yul\":8065:8484   */\n      swap2\n      swap1\n      pop\n      jump\t// out\n\n    auxdata: 0xa26469706673582212203ce551318dcf5920bd4dc46c0b46659c464a6e8917bbf16d2478767812d7156d64736f6c634300081e0033\n}\n",
				"bytecode": {
					"linkReferences": {},
					"object": "60806040526040518060400160405280600781526020017f426972436f696e000000000000000000000000000000000000000000000000008152505f908161004791906102da565b505f600155348015610057575f5ffd5b503360025f6101000a81548173ffffffffffffffffffffffffffffffffffffffff021916908373ffffffffffffffffffffffffffffffffffffffff1602179055506103a9565b5f81519050919050565b7f4e487b71000000000000000000000000000000000000000000000000000000005f52604160045260245ffd5b7f4e487b71000000000000000000000000000000000000000000000000000000005f52602260045260245ffd5b5f600282049050600182168061011857607f821691505b60208210810361012b5761012a6100d4565b5b50919050565b5f819050815f5260205f209050919050565b5f6020601f8301049050919050565b5f82821b905092915050565b5f6008830261018d7fffffffffffffffffffffffffffffffffffffffffffffffffffffffffffffffff82610152565b6101978683610152565b95508019841693508086168417925050509392505050565b5f819050919050565b5f819050919050565b5f6101db6101d66101d1846101af565b6101b8565b6101af565b9050919050565b5f819050919050565b6101f4836101c1565b610208610200826101e2565b84845461015e565b825550505050565b5f5f905090565b61021f610210565b61022a8184846101eb565b505050565b5b8181101561024d576102425f82610217565b600181019050610230565b5050565b601f8211156102925761026381610131565b61026c84610143565b8101602085101561027b578190505b61028f61028785610143565b83018261022f565b50505b505050565b5f82821c905092915050565b5f6102b25f1984600802610297565b1980831691505092915050565b5f6102ca83836102a3565b9150826002028217905092915050565b6102e38261009d565b67ffffffffffffffff8111156102fc576102fb6100a7565b5b6103068254610101565b610311828285610251565b5f60209050601f831160018114610342575f8415610330578287015190505b61033a85826102bf565b8655506103a1565b601f19841661035086610131565b5f5b8281101561037757848901518255600182019150602085019450602081019050610352565b868310156103945784890151610390601f8916826102a3565b8355505b6001600288020188555050505b505050505050565b610e3e806103b65f395ff3fe608060405234801561000f575f5ffd5b506004361061009c575f3560e01c8063449a52f811610064578063449a52f8146101445780636c6f31f2146101605780638da5cb5b1461017c578063a9059cbb1461019a578063dd62ed3e146101b65761009c565b8063047fc9aa146100a057806306fdde03146100be57806323b872dd146100dc57806327e235e3146100f857806342966c6814610128575b5f5ffd5b6100a86101e6565b6040516100b591906109a7565b60405180910390f35b6100c66101ec565b6040516100d39190610a30565b60405180910390f35b6100f660048036038101906100f19190610ad8565b610277565b005b610112600480360381019061010d9190610b28565b610523565b60405161011f91906109a7565b60405180910390f35b610142600480360381019061013d9190610b53565b610538565b005b61015e60048036038101906101599190610b7e565b61062b565b005b61017a60048036038101906101759190610b7e565b610729565b005b610184610820565b6040516101919190610bcb565b60405180910390f35b6101b460048036038101906101af9190610b7e565b610845565b005b6101d060048036038101906101cb9190610be4565b61096f565b6040516101dd91906109a7565b60405180910390f35b60015481565b5f80546101f890610c4f565b80601f016020809104026020016040519081016040528092919081815260200182805461022490610c4f565b801561026f5780601f106102465761010080835404028352916020019161026f565b820191905f5260205f20905b81548152906001019060200180831161025257829003601f168201915b505050505081565b5f60035f8573ffffffffffffffffffffffffffffffffffffffff1673ffffffffffffffffffffffffffffffffffffffff1681526020019081526020015f20549050818110156102fb576040517f08c379a00000000000000000000000000000000000000000000000000000000081526004016102f290610cc9565b60405180910390fd5b5f60045f8673ffffffffffffffffffffffffffffffffffffffff1673ffffffffffffffffffffffffffffffffffffffff1681526020019081526020015f205f3373ffffffffffffffffffffffffffffffffffffffff1673ffffffffffffffffffffffffffffffffffffffff1681526020019081526020015f2054905082811015610383575f5ffd5b8260035f8773ffffffffffffffffffffffffffffffffffffffff1673ffffffffffffffffffffffffffffffffffffffff1681526020019081526020015f205f8282546103cf9190610d14565b925050819055508260035f8673ffffffffffffffffffffffffffffffffffffffff1673ffffffffffffffffffffffffffffffffffffffff1681526020019081526020015f205f8282546104229190610d47565b925050819055508260045f8773ffffffffffffffffffffffffffffffffffffffff1673ffffffffffffffffffffffffffffffffffffffff1681526020019081526020015f205f3373ffffffffffffffffffffffffffffffffffffffff1673ffffffffffffffffffffffffffffffffffffffff1681526020019081526020015f205f8282546104b09190610d14565b925050819055508373ffffffffffffffffffffffffffffffffffffffff168573ffffffffffffffffffffffffffffffffffffffff167fddf252ad1be2c89b69c2b068fc378daa952ba7f163c4a11628f55a4df523b3ef8560405161051491906109a7565b60405180910390a35050505050565b6003602052805f5260405f205f915090505481565b5f60035f3373ffffffffffffffffffffffffffffffffffffffff1673ffffffffffffffffffffffffffffffffffffffff1681526020019081526020015f20549050818110156105bc576040517f08c379a00000000000000000000000000000000000000000000000000000000081526004016105b390610cc9565b60405180910390fd5b8160035f3373ffffffffffffffffffffffffffffffffffffffff1673ffffffffffffffffffffffffffffffffffffffff1681526020019081526020015f205f8282546106089190610d14565b925050819055508160015f8282546106209190610d14565b925050819055505050565b60025f9054906101000a900473ffffffffffffffffffffffffffffffffffffffff1673ffffffffffffffffffffffffffffffffffffffff163373ffffffffffffffffffffffffffffffffffffffff16146106ba576040517f08c379a00000000000000000000000000000000000000000000000000000000081526004016106b190610dea565b60405180910390fd5b8060035f8473ffffffffffffffffffffffffffffffffffffffff1673ffffffffffffffffffffffffffffffffffffffff1681526020019081526020015f205f8282546107069190610d47565b925050819055508060015f82825461071e9190610d47565b925050819055505050565b8060045f3373ffffffffffffffffffffffffffffffffffffffff1673ffffffffffffffffffffffffffffffffffffffff1681526020019081526020015f205f8473ffffffffffffffffffffffffffffffffffffffff1673ffffffffffffffffffffffffffffffffffffffff1681526020019081526020015f205f8282546107b09190610d47565b925050819055508173ffffffffffffffffffffffffffffffffffffffff163373ffffffffffffffffffffffffffffffffffffffff167f6e11fb1b7f119e3f2fa29896ef5fdf8b8a2d0d4df6fe90ba8668e7d8b2ffa25e8360405161081491906109a7565b60405180910390a35050565b60025f9054906101000a900473ffffffffffffffffffffffffffffffffffffffff1681565b60035f3373ffffffffffffffffffffffffffffffffffffffff1673ffffffffffffffffffffffffffffffffffffffff1681526020019081526020015f20548111156108c5576040517f08c379a00000000000000000000000000000000000000000000000000000000081526004016108bc90610cc9565b60405180910390fd5b8060035f3373ffffffffffffffffffffffffffffffffffffffff1673ffffffffffffffffffffffffffffffffffffffff1681526020019081526020015f205f8282546109119190610d14565b925050819055508060035f8473ffffffffffffffffffffffffffffffffffffffff1673ffffffffffffffffffffffffffffffffffffffff1681526020019081526020015f205f8282546109649190610d47565b925050819055505050565b6004602052815f5260405f20602052805f5260405f205f91509150505481565b5f819050919050565b6109a18161098f565b82525050565b5f6020820190506109ba5f830184610998565b92915050565b5f81519050919050565b5f82825260208201905092915050565b8281835e5f83830152505050565b5f601f19601f8301169050919050565b5f610a02826109c0565b610a0c81856109ca565b9350610a1c8185602086016109da565b610a25816109e8565b840191505092915050565b5f6020820190508181035f830152610a4881846109f8565b905092915050565b5f5ffd5b5f73ffffffffffffffffffffffffffffffffffffffff82169050919050565b5f610a7d82610a54565b9050919050565b610a8d81610a73565b8114610a97575f5ffd5b50565b5f81359050610aa881610a84565b92915050565b610ab78161098f565b8114610ac1575f5ffd5b50565b5f81359050610ad281610aae565b92915050565b5f5f5f60608486031215610aef57610aee610a50565b5b5f610afc86828701610a9a565b9350506020610b0d86828701610a9a565b9250506040610b1e86828701610ac4565b9150509250925092565b5f60208284031215610b3d57610b3c610a50565b5b5f610b4a84828501610a9a565b91505092915050565b5f60208284031215610b6857610b67610a50565b5b5f610b7584828501610ac4565b91505092915050565b5f5f60408385031215610b9457610b93610a50565b5b5f610ba185828601610a9a565b9250506020610bb285828601610ac4565b9150509250929050565b610bc581610a73565b82525050565b5f602082019050610bde5f830184610bbc565b92915050565b5f5f60408385031215610bfa57610bf9610a50565b5b5f610c0785828601610a9a565b9250506020610c1885828601610a9a565b9150509250929050565b7f4e487b71000000000000000000000000000000000000000000000000000000005f52602260045260245ffd5b5f6002820490506001821680610c6657607f821691505b602082108103610c7957610c78610c22565b5b50919050565b7f42616c616e636520697320696e73756666696369656e740000000000000000005f82015250565b5f610cb36017836109ca565b9150610cbe82610c7f565b602082019050919050565b5f6020820190508181035f830152610ce081610ca7565b9050919050565b7f4e487b71000000000000000000000000000000000000000000000000000000005f52601160045260245ffd5b5f610d1e8261098f565b9150610d298361098f565b9250828203905081811115610d4157610d40610ce7565b5b92915050565b5f610d518261098f565b9150610d5c8361098f565b9250828201905080821115610d7457610d73610ce7565b5b92915050565b7f4f6e6c79206f776e65722063616e20706572666f726d2074686973206f7065725f8201527f6174696f6e2e0000000000000000000000000000000000000000000000000000602082015250565b5f610dd46026836109ca565b9150610ddf82610d7a565b604082019050919050565b5f6020820190508181035f830152610e0181610dc8565b905091905056fea26469706673582212203ce551318dcf5920bd4dc46c0b46659c464a6e8917bbf16d2478767812d7156d64736f6c634300081e0033",
					"opcodes": "PUSH1 0x80 PUSH1 0x40 MSTORE PUSH1 0x40 MLOAD DUP1 PUSH1 0x40 ADD PUSH1 0x40 MSTORE DUP1 PUSH1 0x7 DUP2 MSTORE PUSH1 0x20 ADD PUSH32 0x426972436F696E00000000000000000000000000000000000000000000000000 DUP2 MSTORE POP PUSH0 SWAP1 DUP2 PUSH2 0x47 SWAP2 SWAP1 PUSH2 0x2DA JUMP JUMPDEST POP PUSH0 PUSH1 0x1 SSTORE CALLVALUE DUP1 ISZERO PUSH2 0x57 JUMPI PUSH0 PUSH0 REVERT JUMPDEST POP CALLER PUSH1 0x2 PUSH0 PUSH2 0x100 EXP DUP2 SLOAD DUP2 PUSH20 0xFFFFFFFFFFFFFFFFFFFFFFFFFFFFFFFFFFFFFFFF MUL NOT AND SWAP1 DUP4 PUSH20 0xFFFFFFFFFFFFFFFFFFFFFFFFFFFFFFFFFFFFFFFF AND MUL OR SWAP1 SSTORE POP PUSH2 0x3A9 JUMP JUMPDEST PUSH0 DUP2 MLOAD SWAP1 POP SWAP2 SWAP1 POP JUMP JUMPDEST PUSH32 0x4E487B7100000000000000000000000000000000000000000000000000000000 PUSH0 MSTORE PUSH1 0x41 PUSH1 0x4 MSTORE PUSH1 0x24 PUSH0 REVERT JUMPDEST PUSH32 0x4E487B7100000000000000000000000000000000000000000000000000000000 PUSH0 MSTORE PUSH1 0x22 PUSH1 0x4 MSTORE PUSH1 0x24 PUSH0 REVERT JUMPDEST PUSH0 PUSH1 0x2 DUP3 DIV SWAP1 POP PUSH1 0x1 DUP3 AND DUP1 PUSH2 0x118 JUMPI PUSH1 0x7F DUP3 AND SWAP2 POP JUMPDEST PUSH1 0x20 DUP3 LT DUP2 SUB PUSH2 0x12B JUMPI PUSH2 0x12A PUSH2 0xD4 JUMP JUMPDEST JUMPDEST POP SWAP2 SWAP1 POP JUMP JUMPDEST PUSH0 DUP2 SWAP1 POP DUP2 PUSH0 MSTORE PUSH1 0x20 PUSH0 KECCAK256 SWAP1 POP SWAP2 SWAP1 POP JUMP JUMPDEST PUSH0 PUSH1 0x20 PUSH1 0x1F DUP4 ADD DIV SWAP1 POP SWAP2 SWAP1 POP JUMP JUMPDEST PUSH0 DUP3 DUP3 SHL SWAP1 POP SWAP3 SWAP2 POP POP JUMP JUMPDEST PUSH0 PUSH1 0x8 DUP4 MUL PUSH2 0x18D PUSH32 0xFFFFFFFFFFFFFFFFFFFFFFFFFFFFFFFFFFFFFFFFFFFFFFFFFFFFFFFFFFFFFFFF DUP3 PUSH2 0x152 JUMP JUMPDEST PUSH2 0x197 DUP7 DUP4 PUSH2 0x152 JUMP JUMPDEST SWAP6 POP DUP1 NOT DUP5 AND SWAP4 POP DUP1 DUP7 AND DUP5 OR SWAP3 POP POP POP SWAP4 SWAP3 POP POP POP JUMP JUMPDEST PUSH0 DUP2 SWAP1 POP SWAP2 SWAP1 POP JUMP JUMPDEST PUSH0 DUP2 SWAP1 POP SWAP2 SWAP1 POP JUMP JUMPDEST PUSH0 PUSH2 0x1DB PUSH2 0x1D6 PUSH2 0x1D1 DUP5 PUSH2 0x1AF JUMP JUMPDEST PUSH2 0x1B8 JUMP JUMPDEST PUSH2 0x1AF JUMP JUMPDEST SWAP1 POP SWAP2 SWAP1 POP JUMP JUMPDEST PUSH0 DUP2 SWAP1 POP SWAP2 SWAP1 POP JUMP JUMPDEST PUSH2 0x1F4 DUP4 PUSH2 0x1C1 JUMP JUMPDEST PUSH2 0x208 PUSH2 0x200 DUP3 PUSH2 0x1E2 JUMP JUMPDEST DUP5 DUP5 SLOAD PUSH2 0x15E JUMP JUMPDEST DUP3 SSTORE POP POP POP POP JUMP JUMPDEST PUSH0 PUSH0 SWAP1 POP SWAP1 JUMP JUMPDEST PUSH2 0x21F PUSH2 0x210 JUMP JUMPDEST PUSH2 0x22A DUP2 DUP5 DUP5 PUSH2 0x1EB JUMP JUMPDEST POP POP POP JUMP JUMPDEST JUMPDEST DUP2 DUP2 LT ISZERO PUSH2 0x24D JUMPI PUSH2 0x242 PUSH0 DUP3 PUSH2 0x217 JUMP JUMPDEST PUSH1 0x1 DUP2 ADD SWAP1 POP PUSH2 0x230 JUMP JUMPDEST POP POP JUMP JUMPDEST PUSH1 0x1F DUP3 GT ISZERO PUSH2 0x292 JUMPI PUSH2 0x263 DUP2 PUSH2 0x131 JUMP JUMPDEST PUSH2 0x26C DUP5 PUSH2 0x143 JUMP JUMPDEST DUP2 ADD PUSH1 0x20 DUP6 LT ISZERO PUSH2 0x27B JUMPI DUP2 SWAP1 POP JUMPDEST PUSH2 0x28F PUSH2 0x287 DUP6 PUSH2 0x143 JUMP JUMPDEST DUP4 ADD DUP3 PUSH2 0x22F JUMP JUMPDEST POP POP JUMPDEST POP POP POP JUMP JUMPDEST PUSH0 DUP3 DUP3 SHR SWAP1 POP SWAP3 SWAP2 POP POP JUMP JUMPDEST PUSH0 PUSH2 0x2B2 PUSH0 NOT DUP5 PUSH1 0x8 MUL PUSH2 0x297 JUMP JUMPDEST NOT DUP1 DUP4 AND SWAP2 POP POP SWAP3 SWAP2 POP POP JUMP JUMPDEST PUSH0 PUSH2 0x2CA DUP4 DUP4 PUSH2 0x2A3 JUMP JUMPDEST SWAP2 POP DUP3 PUSH1 0x2 MUL DUP3 OR SWAP1 POP SWAP3 SWAP2 POP POP JUMP JUMPDEST PUSH2 0x2E3 DUP3 PUSH2 0x9D JUMP JUMPDEST PUSH8 0xFFFFFFFFFFFFFFFF DUP2 GT ISZERO PUSH2 0x2FC JUMPI PUSH2 0x2FB PUSH2 0xA7 JUMP JUMPDEST JUMPDEST PUSH2 0x306 DUP3 SLOAD PUSH2 0x101 JUMP JUMPDEST PUSH2 0x311 DUP3 DUP3 DUP6 PUSH2 0x251 JUMP JUMPDEST PUSH0 PUSH1 0x20 SWAP1 POP PUSH1 0x1F DUP4 GT PUSH1 0x1 DUP2 EQ PUSH2 0x342 JUMPI PUSH0 DUP5 ISZERO PUSH2 0x330 JUMPI DUP3 DUP8 ADD MLOAD SWAP1 POP JUMPDEST PUSH2 0x33A DUP6 DUP3 PUSH2 0x2BF JUMP JUMPDEST DUP7 SSTORE POP PUSH2 0x3A1 JUMP JUMPDEST PUSH1 0x1F NOT DUP5 AND PUSH2 0x350 DUP7 PUSH2 0x131 JUMP JUMPDEST PUSH0 JUMPDEST DUP3 DUP2 LT ISZERO PUSH2 0x377 JUMPI DUP5 DUP10 ADD MLOAD DUP3 SSTORE PUSH1 0x1 DUP3 ADD SWAP2 POP PUSH1 0x20 DUP6 ADD SWAP5 POP PUSH1 0x20 DUP2 ADD SWAP1 POP PUSH2 0x352 JUMP JUMPDEST DUP7 DUP4 LT ISZERO PUSH2 0x394 JUMPI DUP5 DUP10 ADD MLOAD PUSH2 0x390 PUSH1 0x1F DUP10 AND DUP3 PUSH2 0x2A3 JUMP JUMPDEST DUP4 SSTORE POP JUMPDEST PUSH1 0x1 PUSH1 0x2 DUP9 MUL ADD DUP9 SSTORE POP POP POP JUMPDEST POP POP POP POP POP POP JUMP JUMPDEST PUSH2 0xE3E DUP1 PUSH2 0x3B6 PUSH0 CODECOPY PUSH0 RETURN INVALID PUSH1 0x80 PUSH1 0x40 MSTORE CALLVALUE DUP1 ISZERO PUSH2 0xF JUMPI PUSH0 PUSH0 REVERT JUMPDEST POP PUSH1 0x4 CALLDATASIZE LT PUSH2 0x9C JUMPI PUSH0 CALLDATALOAD PUSH1 0xE0 SHR DUP1 PUSH4 0x449A52F8 GT PUSH2 0x64 JUMPI DUP1 PUSH4 0x449A52F8 EQ PUSH2 0x144 JUMPI DUP1 PUSH4 0x6C6F31F2 EQ PUSH2 0x160 JUMPI DUP1 PUSH4 0x8DA5CB5B EQ PUSH2 0x17C JUMPI DUP1 PUSH4 0xA9059CBB EQ PUSH2 0x19A JUMPI DUP1 PUSH4 0xDD62ED3E EQ PUSH2 0x1B6 JUMPI PUSH2 0x9C JUMP JUMPDEST DUP1 PUSH4 0x47FC9AA EQ PUSH2 0xA0 JUMPI DUP1 PUSH4 0x6FDDE03 EQ PUSH2 0xBE JUMPI DUP1 PUSH4 0x23B872DD EQ PUSH2 0xDC JUMPI DUP1 PUSH4 0x27E235E3 EQ PUSH2 0xF8 JUMPI DUP1 PUSH4 0x42966C68 EQ PUSH2 0x128 JUMPI JUMPDEST PUSH0 PUSH0 REVERT JUMPDEST PUSH2 0xA8 PUSH2 0x1E6 JUMP JUMPDEST PUSH1 0x40 MLOAD PUSH2 0xB5 SWAP2 SWAP1 PUSH2 0x9A7 JUMP JUMPDEST PUSH1 0x40 MLOAD DUP1 SWAP2 SUB SWAP1 RETURN JUMPDEST PUSH2 0xC6 PUSH2 0x1EC JUMP JUMPDEST PUSH1 0x40 MLOAD PUSH2 0xD3 SWAP2 SWAP1 PUSH2 0xA30 JUMP JUMPDEST PUSH1 0x40 MLOAD DUP1 SWAP2 SUB SWAP1 RETURN JUMPDEST PUSH2 0xF6 PUSH1 0x4 DUP1 CALLDATASIZE SUB DUP2 ADD SWAP1 PUSH2 0xF1 SWAP2 SWAP1 PUSH2 0xAD8 JUMP JUMPDEST PUSH2 0x277 JUMP JUMPDEST STOP JUMPDEST PUSH2 0x112 PUSH1 0x4 DUP1 CALLDATASIZE SUB DUP2 ADD SWAP1 PUSH2 0x10D SWAP2 SWAP1 PUSH2 0xB28 JUMP JUMPDEST PUSH2 0x523 JUMP JUMPDEST PUSH1 0x40 MLOAD PUSH2 0x11F SWAP2 SWAP1 PUSH2 0x9A7 JUMP JUMPDEST PUSH1 0x40 MLOAD DUP1 SWAP2 SUB SWAP1 RETURN JUMPDEST PUSH2 0x142 PUSH1 0x4 DUP1 CALLDATASIZE SUB DUP2 ADD SWAP1 PUSH2 0x13D SWAP2 SWAP1 PUSH2 0xB53 JUMP JUMPDEST PUSH2 0x538 JUMP JUMPDEST STOP JUMPDEST PUSH2 0x15E PUSH1 0x4 DUP1 CALLDATASIZE SUB DUP2 ADD SWAP1 PUSH2 0x159 SWAP2 SWAP1 PUSH2 0xB7E JUMP JUMPDEST PUSH2 0x62B JUMP JUMPDEST STOP JUMPDEST PUSH2 0x17A PUSH1 0x4 DUP1 CALLDATASIZE SUB DUP2 ADD SWAP1 PUSH2 0x175 SWAP2 SWAP1 PUSH2 0xB7E JUMP JUMPDEST PUSH2 0x729 JUMP JUMPDEST STOP JUMPDEST PUSH2 0x184 PUSH2 0x820 JUMP JUMPDEST PUSH1 0x40 MLOAD PUSH2 0x191 SWAP2 SWAP1 PUSH2 0xBCB JUMP JUMPDEST PUSH1 0x40 MLOAD DUP1 SWAP2 SUB SWAP1 RETURN JUMPDEST PUSH2 0x1B4 PUSH1 0x4 DUP1 CALLDATASIZE SUB DUP2 ADD SWAP1 PUSH2 0x1AF SWAP2 SWAP1 PUSH2 0xB7E JUMP JUMPDEST PUSH2 0x845 JUMP JUMPDEST STOP JUMPDEST PUSH2 0x1D0 PUSH1 0x4 DUP1 CALLDATASIZE SUB DUP2 ADD SWAP1 PUSH2 0x1CB SWAP2 SWAP1 PUSH2 0xBE4 JUMP JUMPDEST PUSH2 0x96F JUMP JUMPDEST PUSH1 0x40 MLOAD PUSH2 0x1DD SWAP2 SWAP1 PUSH2 0x9A7 JUMP JUMPDEST PUSH1 0x40 MLOAD DUP1 SWAP2 SUB SWAP1 RETURN JUMPDEST PUSH1 0x1 SLOAD DUP2 JUMP JUMPDEST PUSH0 DUP1 SLOAD PUSH2 0x1F8 SWAP1 PUSH2 0xC4F JUMP JUMPDEST DUP1 PUSH1 0x1F ADD PUSH1 0x20 DUP1 SWAP2 DIV MUL PUSH1 0x20 ADD PUSH1 0x40 MLOAD SWAP1 DUP2 ADD PUSH1 0x40 MSTORE DUP1 SWAP3 SWAP2 SWAP1 DUP2 DUP2 MSTORE PUSH1 0x20 ADD DUP3 DUP1 SLOAD PUSH2 0x224 SWAP1 PUSH2 0xC4F JUMP JUMPDEST DUP1 ISZERO PUSH2 0x26F JUMPI DUP1 PUSH1 0x1F LT PUSH2 0x246 JUMPI PUSH2 0x100 DUP1 DUP4 SLOAD DIV MUL DUP4 MSTORE SWAP2 PUSH1 0x20 ADD SWAP2 PUSH2 0x26F JUMP JUMPDEST DUP3 ADD SWAP2 SWAP1 PUSH0 MSTORE PUSH1 0x20 PUSH0 KECCAK256 SWAP1 JUMPDEST DUP2 SLOAD DUP2 MSTORE SWAP1 PUSH1 0x1 ADD SWAP1 PUSH1 0x20 ADD DUP1 DUP4 GT PUSH2 0x252 JUMPI DUP3 SWAP1 SUB PUSH1 0x1F AND DUP3 ADD SWAP2 JUMPDEST POP POP POP POP POP DUP2 JUMP JUMPDEST PUSH0 PUSH1 0x3 PUSH0 DUP6 PUSH20 0xFFFFFFFFFFFFFFFFFFFFFFFFFFFFFFFFFFFFFFFF AND PUSH20 0xFFFFFFFFFFFFFFFFFFFFFFFFFFFFFFFFFFFFFFFF AND DUP2 MSTORE PUSH1 0x20 ADD SWAP1 DUP2 MSTORE PUSH1 0x20 ADD PUSH0 KECCAK256 SLOAD SWAP1 POP DUP2 DUP2 LT ISZERO PUSH2 0x2FB JUMPI PUSH1 0x40 MLOAD PUSH32 0x8C379A000000000000000000000000000000000000000000000000000000000 DUP2 MSTORE PUSH1 0x4 ADD PUSH2 0x2F2 SWAP1 PUSH2 0xCC9 JUMP JUMPDEST PUSH1 0x40 MLOAD DUP1 SWAP2 SUB SWAP1 REVERT JUMPDEST PUSH0 PUSH1 0x4 PUSH0 DUP7 PUSH20 0xFFFFFFFFFFFFFFFFFFFFFFFFFFFFFFFFFFFFFFFF AND PUSH20 0xFFFFFFFFFFFFFFFFFFFFFFFFFFFFFFFFFFFFFFFF AND DUP2 MSTORE PUSH1 0x20 ADD SWAP1 DUP2 MSTORE PUSH1 0x20 ADD PUSH0 KECCAK256 PUSH0 CALLER PUSH20 0xFFFFFFFFFFFFFFFFFFFFFFFFFFFFFFFFFFFFFFFF AND PUSH20 0xFFFFFFFFFFFFFFFFFFFFFFFFFFFFFFFFFFFFFFFF AND DUP2 MSTORE PUSH1 0x20 ADD SWAP1 DUP2 MSTORE PUSH1 0x20 ADD PUSH0 KECCAK256 SLOAD SWAP1 POP DUP3 DUP2 LT ISZERO PUSH2 0x383 JUMPI PUSH0 PUSH0 REVERT JUMPDEST DUP3 PUSH1 0x3 PUSH0 DUP8 PUSH20 0xFFFFFFFFFFFFFFFFFFFFFFFFFFFFFFFFFFFFFFFF AND PUSH20 0xFFFFFFFFFFFFFFFFFFFFFFFFFFFFFFFFFFFFFFFF AND DUP2 MSTORE PUSH1 0x20 ADD SWAP1 DUP2 MSTORE PUSH1 0x20 ADD PUSH0 KECCAK256 PUSH0 DUP3 DUP3 SLOAD PUSH2 0x3CF SWAP2 SWAP1 PUSH2 0xD14 JUMP JUMPDEST SWAP3 POP POP DUP2 SWAP1 SSTORE POP DUP3 PUSH1 0x3 PUSH0 DUP7 PUSH20 0xFFFFFFFFFFFFFFFFFFFFFFFFFFFFFFFFFFFFFFFF AND PUSH20 0xFFFFFFFFFFFFFFFFFFFFFFFFFFFFFFFFFFFFFFFF AND DUP2 MSTORE PUSH1 0x20 ADD SWAP1 DUP2 MSTORE PUSH1 0x20 ADD PUSH0 KECCAK256 PUSH0 DUP3 DUP3 SLOAD PUSH2 0x422 SWAP2 SWAP1 PUSH2 0xD47 JUMP JUMPDEST SWAP3 POP POP DUP2 SWAP1 SSTORE POP DUP3 PUSH1 0x4 PUSH0 DUP8 PUSH20 0xFFFFFFFFFFFFFFFFFFFFFFFFFFFFFFFFFFFFFFFF AND PUSH20 0xFFFFFFFFFFFFFFFFFFFFFFFFFFFFFFFFFFFFFFFF AND DUP2 MSTORE PUSH1 0x20 ADD SWAP1 DUP2 MSTORE PUSH1 0x20 ADD PUSH0 KECCAK256 PUSH0 CALLER PUSH20 0xFFFFFFFFFFFFFFFFFFFFFFFFFFFFFFFFFFFFFFFF AND PUSH20 0xFFFFFFFFFFFFFFFFFFFFFFFFFFFFFFFFFFFFFFFF AND DUP2 MSTORE PUSH1 0x20 ADD SWAP1 DUP2 MSTORE PUSH1 0x20 ADD PUSH0 KECCAK256 PUSH0 DUP3 DUP3 SLOAD PUSH2 0x4B0 SWAP2 SWAP1 PUSH2 0xD14 JUMP JUMPDEST SWAP3 POP POP DUP2 SWAP1 SSTORE POP DUP4 PUSH20 0xFFFFFFFFFFFFFFFFFFFFFFFFFFFFFFFFFFFFFFFF AND DUP6 PUSH20 0xFFFFFFFFFFFFFFFFFFFFFFFFFFFFFFFFFFFFFFFF AND PUSH32 0xDDF252AD1BE2C89B69C2B068FC378DAA952BA7F163C4A11628F55A4DF523B3EF DUP6 PUSH1 0x40 MLOAD PUSH2 0x514 SWAP2 SWAP1 PUSH2 0x9A7 JUMP JUMPDEST PUSH1 0x40 MLOAD DUP1 SWAP2 SUB SWAP1 LOG3 POP POP POP POP POP JUMP JUMPDEST PUSH1 0x3 PUSH1 0x20 MSTORE DUP1 PUSH0 MSTORE PUSH1 0x40 PUSH0 KECCAK256 PUSH0 SWAP2 POP SWAP1 POP SLOAD DUP2 JUMP JUMPDEST PUSH0 PUSH1 0x3 PUSH0 CALLER PUSH20 0xFFFFFFFFFFFFFFFFFFFFFFFFFFFFFFFFFFFFFFFF AND PUSH20 0xFFFFFFFFFFFFFFFFFFFFFFFFFFFFFFFFFFFFFFFF AND DUP2 MSTORE PUSH1 0x20 ADD SWAP1 DUP2 MSTORE PUSH1 0x20 ADD PUSH0 KECCAK256 SLOAD SWAP1 POP DUP2 DUP2 LT ISZERO PUSH2 0x5BC JUMPI PUSH1 0x40 MLOAD PUSH32 0x8C379A000000000000000000000000000000000000000000000000000000000 DUP2 MSTORE PUSH1 0x4 ADD PUSH2 0x5B3 SWAP1 PUSH2 0xCC9 JUMP JUMPDEST PUSH1 0x40 MLOAD DUP1 SWAP2 SUB SWAP1 REVERT JUMPDEST DUP2 PUSH1 0x3 PUSH0 CALLER PUSH20 0xFFFFFFFFFFFFFFFFFFFFFFFFFFFFFFFFFFFFFFFF AND PUSH20 0xFFFFFFFFFFFFFFFFFFFFFFFFFFFFFFFFFFFFFFFF AND DUP2 MSTORE PUSH1 0x20 ADD SWAP1 DUP2 MSTORE PUSH1 0x20 ADD PUSH0 KECCAK256 PUSH0 DUP3 DUP3 SLOAD PUSH2 0x608 SWAP2 SWAP1 PUSH2 0xD14 JUMP JUMPDEST SWAP3 POP POP DUP2 SWAP1 SSTORE POP DUP2 PUSH1 0x1 PUSH0 DUP3 DUP3 SLOAD PUSH2 0x620 SWAP2 SWAP1 PUSH2 0xD14 JUMP JUMPDEST SWAP3 POP POP DUP2 SWAP1 SSTORE POP POP POP JUMP JUMPDEST PUSH1 0x2 PUSH0 SWAP1 SLOAD SWAP1 PUSH2 0x100 EXP SWAP1 DIV PUSH20 0xFFFFFFFFFFFFFFFFFFFFFFFFFFFFFFFFFFFFFFFF AND PUSH20 0xFFFFFFFFFFFFFFFFFFFFFFFFFFFFFFFFFFFFFFFF AND CALLER PUSH20 0xFFFFFFFFFFFFFFFFFFFFFFFFFFFFFFFFFFFFFFFF AND EQ PUSH2 0x6BA JUMPI PUSH1 0x40 MLOAD PUSH32 0x8C379A000000000000000000000000000000000000000000000000000000000 DUP2 MSTORE PUSH1 0x4 ADD PUSH2 0x6B1 SWAP1 PUSH2 0xDEA JUMP JUMPDEST PUSH1 0x40 MLOAD DUP1 SWAP2 SUB SWAP1 REVERT JUMPDEST DUP1 PUSH1 0x3 PUSH0 DUP5 PUSH20 0xFFFFFFFFFFFFFFFFFFFFFFFFFFFFFFFFFFFFFFFF AND PUSH20 0xFFFFFFFFFFFFFFFFFFFFFFFFFFFFFFFFFFFFFFFF AND DUP2 MSTORE PUSH1 0x20 ADD SWAP1 DUP2 MSTORE PUSH1 0x20 ADD PUSH0 KECCAK256 PUSH0 DUP3 DUP3 SLOAD PUSH2 0x706 SWAP2 SWAP1 PUSH2 0xD47 JUMP JUMPDEST SWAP3 POP POP DUP2 SWAP1 SSTORE POP DUP1 PUSH1 0x1 PUSH0 DUP3 DUP3 SLOAD PUSH2 0x71E SWAP2 SWAP1 PUSH2 0xD47 JUMP JUMPDEST SWAP3 POP POP DUP2 SWAP1 SSTORE POP POP POP JUMP JUMPDEST DUP1 PUSH1 0x4 PUSH0 CALLER PUSH20 0xFFFFFFFFFFFFFFFFFFFFFFFFFFFFFFFFFFFFFFFF AND PUSH20 0xFFFFFFFFFFFFFFFFFFFFFFFFFFFFFFFFFFFFFFFF AND DUP2 MSTORE PUSH1 0x20 ADD SWAP1 DUP2 MSTORE PUSH1 0x20 ADD PUSH0 KECCAK256 PUSH0 DUP5 PUSH20 0xFFFFFFFFFFFFFFFFFFFFFFFFFFFFFFFFFFFFFFFF AND PUSH20 0xFFFFFFFFFFFFFFFFFFFFFFFFFFFFFFFFFFFFFFFF AND DUP2 MSTORE PUSH1 0x20 ADD SWAP1 DUP2 MSTORE PUSH1 0x20 ADD PUSH0 KECCAK256 PUSH0 DUP3 DUP3 SLOAD PUSH2 0x7B0 SWAP2 SWAP1 PUSH2 0xD47 JUMP JUMPDEST SWAP3 POP POP DUP2 SWAP1 SSTORE POP DUP2 PUSH20 0xFFFFFFFFFFFFFFFFFFFFFFFFFFFFFFFFFFFFFFFF AND CALLER PUSH20 0xFFFFFFFFFFFFFFFFFFFFFFFFFFFFFFFFFFFFFFFF AND PUSH32 0x6E11FB1B7F119E3F2FA29896EF5FDF8B8A2D0D4DF6FE90BA8668E7D8B2FFA25E DUP4 PUSH1 0x40 MLOAD PUSH2 0x814 SWAP2 SWAP1 PUSH2 0x9A7 JUMP JUMPDEST PUSH1 0x40 MLOAD DUP1 SWAP2 SUB SWAP1 LOG3 POP POP JUMP JUMPDEST PUSH1 0x2 PUSH0 SWAP1 SLOAD SWAP1 PUSH2 0x100 EXP SWAP1 DIV PUSH20 0xFFFFFFFFFFFFFFFFFFFFFFFFFFFFFFFFFFFFFFFF AND DUP2 JUMP JUMPDEST PUSH1 0x3 PUSH0 CALLER PUSH20 0xFFFFFFFFFFFFFFFFFFFFFFFFFFFFFFFFFFFFFFFF AND PUSH20 0xFFFFFFFFFFFFFFFFFFFFFFFFFFFFFFFFFFFFFFFF AND DUP2 MSTORE PUSH1 0x20 ADD SWAP1 DUP2 MSTORE PUSH1 0x20 ADD PUSH0 KECCAK256 SLOAD DUP2 GT ISZERO PUSH2 0x8C5 JUMPI PUSH1 0x40 MLOAD PUSH32 0x8C379A000000000000000000000000000000000000000000000000000000000 DUP2 MSTORE PUSH1 0x4 ADD PUSH2 0x8BC SWAP1 PUSH2 0xCC9 JUMP JUMPDEST PUSH1 0x40 MLOAD DUP1 SWAP2 SUB SWAP1 REVERT JUMPDEST DUP1 PUSH1 0x3 PUSH0 CALLER PUSH20 0xFFFFFFFFFFFFFFFFFFFFFFFFFFFFFFFFFFFFFFFF AND PUSH20 0xFFFFFFFFFFFFFFFFFFFFFFFFFFFFFFFFFFFFFFFF AND DUP2 MSTORE PUSH1 0x20 ADD SWAP1 DUP2 MSTORE PUSH1 0x20 ADD PUSH0 KECCAK256 PUSH0 DUP3 DUP3 SLOAD PUSH2 0x911 SWAP2 SWAP1 PUSH2 0xD14 JUMP JUMPDEST SWAP3 POP POP DUP2 SWAP1 SSTORE POP DUP1 PUSH1 0x3 PUSH0 DUP5 PUSH20 0xFFFFFFFFFFFFFFFFFFFFFFFFFFFFFFFFFFFFFFFF AND PUSH20 0xFFFFFFFFFFFFFFFFFFFFFFFFFFFFFFFFFFFFFFFF AND DUP2 MSTORE PUSH1 0x20 ADD SWAP1 DUP2 MSTORE PUSH1 0x20 ADD PUSH0 KECCAK256 PUSH0 DUP3 DUP3 SLOAD PUSH2 0x964 SWAP2 SWAP1 PUSH2 0xD47 JUMP JUMPDEST SWAP3 POP POP DUP2 SWAP1 SSTORE POP POP POP JUMP JUMPDEST PUSH1 0x4 PUSH1 0x20 MSTORE DUP2 PUSH0 MSTORE PUSH1 0x40 PUSH0 KECCAK256 PUSH1 0x20 MSTORE DUP1 PUSH0 MSTORE PUSH1 0x40 PUSH0 KECCAK256 PUSH0 SWAP2 POP SWAP2 POP POP SLOAD DUP2 JUMP JUMPDEST PUSH0 DUP2 SWAP1 POP SWAP2 SWAP1 POP JUMP JUMPDEST PUSH2 0x9A1 DUP2 PUSH2 0x98F JUMP JUMPDEST DUP3 MSTORE POP POP JUMP JUMPDEST PUSH0 PUSH1 0x20 DUP3 ADD SWAP1 POP PUSH2 0x9BA PUSH0 DUP4 ADD DUP5 PUSH2 0x998 JUMP JUMPDEST SWAP3 SWAP2 POP POP JUMP JUMPDEST PUSH0 DUP2 MLOAD SWAP1 POP SWAP2 SWAP1 POP JUMP JUMPDEST PUSH0 DUP3 DUP3 MSTORE PUSH1 0x20 DUP3 ADD SWAP1 POP SWAP3 SWAP2 POP POP JUMP JUMPDEST DUP3 DUP2 DUP4 MCOPY PUSH0 DUP4 DUP4 ADD MSTORE POP POP POP JUMP JUMPDEST PUSH0 PUSH1 0x1F NOT PUSH1 0x1F DUP4 ADD AND SWAP1 POP SWAP2 SWAP1 POP JUMP JUMPDEST PUSH0 PUSH2 0xA02 DUP3 PUSH2 0x9C0 JUMP JUMPDEST PUSH2 0xA0C DUP2 DUP6 PUSH2 0x9CA JUMP JUMPDEST SWAP4 POP PUSH2 0xA1C DUP2 DUP6 PUSH1 0x20 DUP7 ADD PUSH2 0x9DA JUMP JUMPDEST PUSH2 0xA25 DUP2 PUSH2 0x9E8 JUMP JUMPDEST DUP5 ADD SWAP2 POP POP SWAP3 SWAP2 POP POP JUMP JUMPDEST PUSH0 PUSH1 0x20 DUP3 ADD SWAP1 POP DUP2 DUP2 SUB PUSH0 DUP4 ADD MSTORE PUSH2 0xA48 DUP2 DUP5 PUSH2 0x9F8 JUMP JUMPDEST SWAP1 POP SWAP3 SWAP2 POP POP JUMP JUMPDEST PUSH0 PUSH0 REVERT JUMPDEST PUSH0 PUSH20 0xFFFFFFFFFFFFFFFFFFFFFFFFFFFFFFFFFFFFFFFF DUP3 AND SWAP1 POP SWAP2 SWAP1 POP JUMP JUMPDEST PUSH0 PUSH2 0xA7D DUP3 PUSH2 0xA54 JUMP JUMPDEST SWAP1 POP SWAP2 SWAP1 POP JUMP JUMPDEST PUSH2 0xA8D DUP2 PUSH2 0xA73 JUMP JUMPDEST DUP2 EQ PUSH2 0xA97 JUMPI PUSH0 PUSH0 REVERT JUMPDEST POP JUMP JUMPDEST PUSH0 DUP2 CALLDATALOAD SWAP1 POP PUSH2 0xAA8 DUP2 PUSH2 0xA84 JUMP JUMPDEST SWAP3 SWAP2 POP POP JUMP JUMPDEST PUSH2 0xAB7 DUP2 PUSH2 0x98F JUMP JUMPDEST DUP2 EQ PUSH2 0xAC1 JUMPI PUSH0 PUSH0 REVERT JUMPDEST POP JUMP JUMPDEST PUSH0 DUP2 CALLDATALOAD SWAP1 POP PUSH2 0xAD2 DUP2 PUSH2 0xAAE JUMP JUMPDEST SWAP3 SWAP2 POP POP JUMP JUMPDEST PUSH0 PUSH0 PUSH0 PUSH1 0x60 DUP5 DUP7 SUB SLT ISZERO PUSH2 0xAEF JUMPI PUSH2 0xAEE PUSH2 0xA50 JUMP JUMPDEST JUMPDEST PUSH0 PUSH2 0xAFC DUP7 DUP3 DUP8 ADD PUSH2 0xA9A JUMP JUMPDEST SWAP4 POP POP PUSH1 0x20 PUSH2 0xB0D DUP7 DUP3 DUP8 ADD PUSH2 0xA9A JUMP JUMPDEST SWAP3 POP POP PUSH1 0x40 PUSH2 0xB1E DUP7 DUP3 DUP8 ADD PUSH2 0xAC4 JUMP JUMPDEST SWAP2 POP POP SWAP3 POP SWAP3 POP SWAP3 JUMP JUMPDEST PUSH0 PUSH1 0x20 DUP3 DUP5 SUB SLT ISZERO PUSH2 0xB3D JUMPI PUSH2 0xB3C PUSH2 0xA50 JUMP JUMPDEST JUMPDEST PUSH0 PUSH2 0xB4A DUP5 DUP3 DUP6 ADD PUSH2 0xA9A JUMP JUMPDEST SWAP2 POP POP SWAP3 SWAP2 POP POP JUMP JUMPDEST PUSH0 PUSH1 0x20 DUP3 DUP5 SUB SLT ISZERO PUSH2 0xB68 JUMPI PUSH2 0xB67 PUSH2 0xA50 JUMP JUMPDEST JUMPDEST PUSH0 PUSH2 0xB75 DUP5 DUP3 DUP6 ADD PUSH2 0xAC4 JUMP JUMPDEST SWAP2 POP POP SWAP3 SWAP2 POP POP JUMP JUMPDEST PUSH0 PUSH0 PUSH1 0x40 DUP4 DUP6 SUB SLT ISZERO PUSH2 0xB94 JUMPI PUSH2 0xB93 PUSH2 0xA50 JUMP JUMPDEST JUMPDEST PUSH0 PUSH2 0xBA1 DUP6 DUP3 DUP7 ADD PUSH2 0xA9A JUMP JUMPDEST SWAP3 POP POP PUSH1 0x20 PUSH2 0xBB2 DUP6 DUP3 DUP7 ADD PUSH2 0xAC4 JUMP JUMPDEST SWAP2 POP POP SWAP3 POP SWAP3 SWAP1 POP JUMP JUMPDEST PUSH2 0xBC5 DUP2 PUSH2 0xA73 JUMP JUMPDEST DUP3 MSTORE POP POP JUMP JUMPDEST PUSH0 PUSH1 0x20 DUP3 ADD SWAP1 POP PUSH2 0xBDE PUSH0 DUP4 ADD DUP5 PUSH2 0xBBC JUMP JUMPDEST SWAP3 SWAP2 POP POP JUMP JUMPDEST PUSH0 PUSH0 PUSH1 0x40 DUP4 DUP6 SUB SLT ISZERO PUSH2 0xBFA JUMPI PUSH2 0xBF9 PUSH2 0xA50 JUMP JUMPDEST JUMPDEST PUSH0 PUSH2 0xC07 DUP6 DUP3 DUP7 ADD PUSH2 0xA9A JUMP JUMPDEST SWAP3 POP POP PUSH1 0x20 PUSH2 0xC18 DUP6 DUP3 DUP7 ADD PUSH2 0xA9A JUMP JUMPDEST SWAP2 POP POP SWAP3 POP SWAP3 SWAP1 POP JUMP JUMPDEST PUSH32 0x4E487B7100000000000000000000000000000000000000000000000000000000 PUSH0 MSTORE PUSH1 0x22 PUSH1 0x4 MSTORE PUSH1 0x24 PUSH0 REVERT JUMPDEST PUSH0 PUSH1 0x2 DUP3 DIV SWAP1 POP PUSH1 0x1 DUP3 AND DUP1 PUSH2 0xC66 JUMPI PUSH1 0x7F DUP3 AND SWAP2 POP JUMPDEST PUSH1 0x20 DUP3 LT DUP2 SUB PUSH2 0xC79 JUMPI PUSH2 0xC78 PUSH2 0xC22 JUMP JUMPDEST JUMPDEST POP SWAP2 SWAP1 POP JUMP JUMPDEST PUSH32 0x42616C616E636520697320696E73756666696369656E74000000000000000000 PUSH0 DUP3 ADD MSTORE POP JUMP JUMPDEST PUSH0 PUSH2 0xCB3 PUSH1 0x17 DUP4 PUSH2 0x9CA JUMP JUMPDEST SWAP2 POP PUSH2 0xCBE DUP3 PUSH2 0xC7F JUMP JUMPDEST PUSH1 0x20 DUP3 ADD SWAP1 POP SWAP2 SWAP1 POP JUMP JUMPDEST PUSH0 PUSH1 0x20 DUP3 ADD SWAP1 POP DUP2 DUP2 SUB PUSH0 DUP4 ADD MSTORE PUSH2 0xCE0 DUP2 PUSH2 0xCA7 JUMP JUMPDEST SWAP1 POP SWAP2 SWAP1 POP JUMP JUMPDEST PUSH32 0x4E487B7100000000000000000000000000000000000000000000000000000000 PUSH0 MSTORE PUSH1 0x11 PUSH1 0x4 MSTORE PUSH1 0x24 PUSH0 REVERT JUMPDEST PUSH0 PUSH2 0xD1E DUP3 PUSH2 0x98F JUMP JUMPDEST SWAP2 POP PUSH2 0xD29 DUP4 PUSH2 0x98F JUMP JUMPDEST SWAP3 POP DUP3 DUP3 SUB SWAP1 POP DUP2 DUP2 GT ISZERO PUSH2 0xD41 JUMPI PUSH2 0xD40 PUSH2 0xCE7 JUMP JUMPDEST JUMPDEST SWAP3 SWAP2 POP POP JUMP JUMPDEST PUSH0 PUSH2 0xD51 DUP3 PUSH2 0x98F JUMP JUMPDEST SWAP2 POP PUSH2 0xD5C DUP4 PUSH2 0x98F JUMP JUMPDEST SWAP3 POP DUP3 DUP3 ADD SWAP1 POP DUP1 DUP3 GT ISZERO PUSH2 0xD74 JUMPI PUSH2 0xD73 PUSH2 0xCE7 JUMP JUMPDEST JUMPDEST SWAP3 SWAP2 POP POP JUMP JUMPDEST PUSH32 0x4F6E6C79206F776E65722063616E20706572666F726D2074686973206F706572 PUSH0 DUP3 ADD MSTORE PUSH32 0x6174696F6E2E0000000000000000000000000000000000000000000000000000 PUSH1 0x20 DUP3 ADD MSTORE POP JUMP JUMPDEST PUSH0 PUSH2 0xDD4 PUSH1 0x26 DUP4 PUSH2 0x9CA JUMP JUMPDEST SWAP2 POP PUSH2 0xDDF DUP3 PUSH2 0xD7A JUMP JUMPDEST PUSH1 0x40 DUP3 ADD SWAP1 POP SWAP2 SWAP1 POP JUMP JUMPDEST PUSH0 PUSH1 0x20 DUP3 ADD SWAP1 POP DUP2 DUP2 SUB PUSH0 DUP4 ADD MSTORE PUSH2 0xE01 DUP2 PUSH2 0xDC8 JUMP JUMPDEST SWAP1 POP SWAP2 SWAP1 POP JUMP INVALID LOG2 PUSH5 0x6970667358 0x22 SLT KECCAK256 EXTCODECOPY JUMPF 0x5131 DUP14 0xCF MSIZE KECCAK256 0xBD 0x4D 0xC4 PUSH13 0xB46659C464A6E8917BBF16D24 PUSH25 0x767812D7156D64736F6C634300081E00330000000000000000 "
				},
				"gasEstimates": {
					"creation": {
						"codeDepositCost": "729200",
						"executionCost": "infinite",
						"totalCost": "infinite"
					},
					"external": {
						"allow(address,uint256)": "infinite",
						"allowance(address,address)": "infinite",
						"balances(address)": "2869",
						"burn(uint256)": "infinite",
						"mintTo(address,uint256)": "infinite",
						"name()": "infinite",
						"owner()": "2552",
						"supply()": "2426",
						"transfer(address,uint256)": "infinite",
						"transferFrom(address,address,uint256)": "infinite"
					}
				},
				"methodIdentifiers": {
					"allow(address,uint256)": "6c6f31f2",
					"allowance(address,address)": "dd62ed3e",
					"balances(address)": "27e235e3",
					"burn(uint256)": "42966c68",
					"mintTo(address,uint256)": "449a52f8",
					"name()": "06fdde03",
					"owner()": "8da5cb5b",
					"supply()": "047fc9aa",
					"transfer(address,uint256)": "a9059cbb",
					"transferFrom(address,address,uint256)": "23b872dd"
				}
			},
			"storageLayout": {
				"storage": [
					{
						"astId": 4,
						"contract": "contracts/12_token_1.sol:BirCoin",
						"label": "name",
						"offset": 0,
						"slot": "0",
						"type": "t_string_storage"
					},
					{
						"astId": 7,
						"contract": "contracts/12_token_1.sol:BirCoin",
						"label": "supply",
						"offset": 0,
						"slot": "1",
						"type": "t_uint256"
					},
					{
						"astId": 9,
						"contract": "contracts/12_token_1.sol:BirCoin",
						"label": "owner",
						"offset": 0,
						"slot": "2",
						"type": "t_address"
					},
					{
						"astId": 13,
						"contract": "contracts/12_token_1.sol:BirCoin",
						"label": "balances",
						"offset": 0,
						"slot": "3",
						"type": "t_mapping(t_address,t_uint256)"
					},
					{
						"astId": 19,
						"contract": "contracts/12_token_1.sol:BirCoin",
						"label": "allowance",
						"offset": 0,
						"slot": "4",
						"type": "t_mapping(t_address,t_mapping(t_address,t_uint256))"
					}
				],
				"types": {
					"t_address": {
						"encoding": "inplace",
						"label": "address",
						"numberOfBytes": "20"
					},
					"t_mapping(t_address,t_mapping(t_address,t_uint256))": {
						"encoding": "mapping",
						"key": "t_address",
						"label": "mapping(address => mapping(address => uint256))",
						"numberOfBytes": "32",
						"value": "t_mapping(t_address,t_uint256)"
					},
					"t_mapping(t_address,t_uint256)": {
						"encoding": "mapping",
						"key": "t_address",
						"label": "mapping(address => uint256)",
						"numberOfBytes": "32",
						"value": "t_uint256"
					},
					"t_string_storage": {
						"encoding": "bytes",
						"label": "string",
						"numberOfBytes": "32"
					},
					"t_uint256": {
						"encoding": "inplace",
						"label": "uint256",
						"numberOfBytes": "32"
					}
				}
			},
			"userdoc": {
				"kind": "user",
				"methods": {},
				"version": 1
			}
		}
	}
}