{
	"data": {
		"bytecode": {
			"linkReferences": {},
			"object": "6080604052348015600e575f5ffd5b506040516104d93803806104d98339818101604052810190602e9190608a565b805f5f6101000a81548163ffffffff021916908363ffffffff1602179055505060b0565b5f5ffd5b5f63ffffffff82169050919050565b606c816056565b81146075575f5ffd5b50565b5f815190506084816065565b92915050565b5f60208284031215609c57609b6052565b5b5f60a7848285016078565b91505092915050565b61041c806100bd5f395ff3fe608060405234801561000f575f5ffd5b5060043610610055575f3560e01c806342425987146100595780635600f527146100755780636b1e99e814610091578063cbe3a072146100ad578063f2c9ecd8146100c9575b5f5ffd5b610073600480360381019061006e919061025f565b6100e7565b005b61008f600480360381019061008a919061025f565b610130565b005b6100ab60048036038101906100a6919061025f565b610179565b005b6100c760048036038101906100c2919061025f565b6101c2565b005b6100d161020b565b6040516100de9190610299565b60405180910390f35b805f5f8282829054906101000a900463ffffffff1661010691906102df565b92506101000a81548163ffffffff021916908363ffffffff16021790555061012c61020b565b5050565b805f5f8282829054906101000a900463ffffffff1661014f9190610316565b92506101000a81548163ffffffff021916908363ffffffff16021790555061017561020b565b5050565b805f5f8282829054906101000a900463ffffffff16610198919061037f565b92506101000a81548163ffffffff021916908363ffffffff1602179055506101be61020b565b5050565b805f5f8282829054906101000a900463ffffffff166101e191906103af565b92506101000a81548163ffffffff021916908363ffffffff16021790555061020761020b565b5050565b5f5f5f9054906101000a900463ffffffff16905090565b5f5ffd5b5f63ffffffff82169050919050565b61023e81610226565b8114610248575f5ffd5b50565b5f8135905061025981610235565b92915050565b5f6020828403121561027457610273610222565b5b5f6102818482850161024b565b91505092915050565b61029381610226565b82525050565b5f6020820190506102ac5f83018461028a565b92915050565b7f4e487b71000000000000000000000000000000000000000000000000000000005f52601160045260245ffd5b5f6102e982610226565b91506102f483610226565b9250828203905063ffffffff8111156103105761030f6102b2565b5b92915050565b5f61032082610226565b915061032b83610226565b925082820261033981610226565b915080821461034b5761034a6102b2565b5b5092915050565b7f4e487b71000000000000000000000000000000000000000000000000000000005f52601260045260245ffd5b5f61038982610226565b915061039483610226565b9250826103a4576103a3610352565b5b828204905092915050565b5f6103b982610226565b91506103c483610226565b9250828201905063ffffffff8111156103e0576103df6102b2565b5b9291505056fea264697066735822122082e22817b0d43735fee2af0fd64574c244445973cff7c3eb9577c5949497680d64736f6c634300081e0033",
			"opcodes": "PUSH1 0x80 PUSH1 0x40 MSTORE CALLVALUE DUP1 ISZERO PUSH1 0xE JUMPI PUSH0 PUSH0 REVERT JUMPDEST POP PUSH1 0x40 MLOAD PUSH2 0x4D9 CODESIZE SUB DUP1 PUSH2 0x4D9 DUP4 CODECOPY DUP2 DUP2 ADD PUSH1 0x40 MSTORE DUP2 ADD SWAP1 PUSH1 0x2E SWAP2 SWAP1 PUSH1 0x8A JUMP JUMPDEST DUP1 PUSH0 PUSH0 PUSH2 0x100 EXP DUP2 SLOAD DUP2 PUSH4 0xFFFFFFFF MUL NOT AND SWAP1 DUP4 PUSH4 0xFFFFFFFF AND MUL OR SWAP1 SSTORE POP POP PUSH1 0xB0 JUMP JUMPDEST PUSH0 PUSH0 REVERT JUMPDEST PUSH0 PUSH4 0xFFFFFFFF DUP3 AND SWAP1 POP SWAP2 SWAP1 POP JUMP JUMPDEST PUSH1 0x6C DUP2 PUSH1 0x56 JUMP JUMPDEST DUP2 EQ PUSH1 0x75 JUMPI PUSH0 PUSH0 REVERT JUMPDEST POP JUMP JUMPDEST PUSH0 DUP2 MLOAD SWAP1 POP PUSH1 0x84 DUP2 PUSH1 0x65 JUMP JUMPDEST SWAP3 SWAP2 POP POP JUMP JUMPDEST PUSH0 PUSH1 0x20 DUP3 DUP5 SUB SLT ISZERO PUSH1 0x9C JUMPI PUSH1 0x9B PUSH1 0x52 JUMP JUMPDEST JUMPDEST PUSH0 PUSH1 0xA7 DUP5 DUP3 DUP6 ADD PUSH1 0x78 JUMP JUMPDEST SWAP2 POP POP SWAP3 SWAP2 POP POP JUMP JUMPDEST PUSH2 0x41C DUP1 PUSH2 0xBD PUSH0 CODECOPY PUSH0 RETURN INVALID PUSH1 0x80 PUSH1 0x40 MSTORE CALLVALUE DUP1 ISZERO PUSH2 0xF JUMPI PUSH0 PUSH0 REVERT JUMPDEST POP PUSH1 0x4 CALLDATASIZE LT PUSH2 0x55 JUMPI PUSH0 CALLDATALOAD PUSH1 0xE0 SHR DUP1 PUSH4 0x42425987 EQ PUSH2 0x59 JUMPI DUP1 PUSH4 0x5600F527 EQ PUSH2 0x75 JUMPI DUP1 PUSH4 0x6B1E99E8 EQ PUSH2 0x91 JUMPI DUP1 PUSH4 0xCBE3A072 EQ PUSH2 0xAD JUMPI DUP1 PUSH4 0xF2C9ECD8 EQ PUSH2 0xC9 JUMPI JUMPDEST PUSH0 PUSH0 REVERT JUMPDEST PUSH2 0x73 PUSH1 0x4 DUP1 CALLDATASIZE SUB DUP2 ADD SWAP1 PUSH2 0x6E SWAP2 SWAP1 PUSH2 0x25F JUMP JUMPDEST PUSH2 0xE7 JUMP JUMPDEST STOP JUMPDEST PUSH2 0x8F PUSH1 0x4 DUP1 CALLDATASIZE SUB DUP2 ADD SWAP1 PUSH2 0x8A SWAP2 SWAP1 PUSH2 0x25F JUMP JUMPDEST PUSH2 0x130 JUMP JUMPDEST STOP JUMPDEST PUSH2 0xAB PUSH1 0x4 DUP1 CALLDATASIZE SUB DUP2 ADD SWAP1 PUSH2 0xA6 SWAP2 SWAP1 PUSH2 0x25F JUMP JUMPDEST PUSH2 0x179 JUMP JUMPDEST STOP JUMPDEST PUSH2 0xC7 PUSH1 0x4 DUP1 CALLDATASIZE SUB DUP2 ADD SWAP1 PUSH2 0xC2 SWAP2 SWAP1 PUSH2 0x25F JUMP JUMPDEST PUSH2 0x1C2 JUMP JUMPDEST STOP JUMPDEST PUSH2 0xD1 PUSH2 0x20B JUMP JUMPDEST PUSH1 0x40 MLOAD PUSH2 0xDE SWAP2 SWAP1 PUSH2 0x299 JUMP JUMPDEST PUSH1 0x40 MLOAD DUP1 SWAP2 SUB SWAP1 RETURN JUMPDEST DUP1 PUSH0 PUSH0 DUP3 DUP3 DUP3 SWAP1 SLOAD SWAP1 PUSH2 0x100 EXP SWAP1 DIV PUSH4 0xFFFFFFFF AND PUSH2 0x106 SWAP2 SWAP1 PUSH2 0x2DF JUMP JUMPDEST SWAP3 POP PUSH2 0x100 EXP DUP2 SLOAD DUP2 PUSH4 0xFFFFFFFF MUL NOT AND SWAP1 DUP4 PUSH4 0xFFFFFFFF AND MUL OR SWAP1 SSTORE POP PUSH2 0x12C PUSH2 0x20B JUMP JUMPDEST POP POP JUMP JUMPDEST DUP1 PUSH0 PUSH0 DUP3 DUP3 DUP3 SWAP1 SLOAD SWAP1 PUSH2 0x100 EXP SWAP1 DIV PUSH4 0xFFFFFFFF AND PUSH2 0x14F SWAP2 SWAP1 PUSH2 0x316 JUMP JUMPDEST SWAP3 POP PUSH2 0x100 EXP DUP2 SLOAD DUP2 PUSH4 0xFFFFFFFF MUL NOT AND SWAP1 DUP4 PUSH4 0xFFFFFFFF AND MUL OR SWAP1 SSTORE POP PUSH2 0x175 PUSH2 0x20B JUMP JUMPDEST POP POP JUMP JUMPDEST DUP1 PUSH0 PUSH0 DUP3 DUP3 DUP3 SWAP1 SLOAD SWAP1 PUSH2 0x100 EXP SWAP1 DIV PUSH4 0xFFFFFFFF AND PUSH2 0x198 SWAP2 SWAP1 PUSH2 0x37F JUMP JUMPDEST SWAP3 POP PUSH2 0x100 EXP DUP2 SLOAD DUP2 PUSH4 0xFFFFFFFF MUL NOT AND SWAP1 DUP4 PUSH4 0xFFFFFFFF AND MUL OR SWAP1 SSTORE POP PUSH2 0x1BE PUSH2 0x20B JUMP JUMPDEST POP POP JUMP JUMPDEST DUP1 PUSH0 PUSH0 DUP3 DUP3 DUP3 SWAP1 SLOAD SWAP1 PUSH2 0x100 EXP SWAP1 DIV PUSH4 0xFFFFFFFF AND PUSH2 0x1E1 SWAP2 SWAP1 PUSH2 0x3AF JUMP JUMPDEST SWAP3 POP PUSH2 0x100 EXP DUP2 SLOAD DUP2 PUSH4 0xFFFFFFFF MUL NOT AND SWAP1 DUP4 PUSH4 0xFFFFFFFF AND MUL OR SWAP1 SSTORE POP PUSH2 0x207 PUSH2 0x20B JUMP JUMPDEST POP POP JUMP JUMPDEST PUSH0 PUSH0 PUSH0 SWAP1 SLOAD SWAP1 PUSH2 0x100 EXP SWAP1 DIV PUSH4 0xFFFFFFFF AND SWAP1 POP SWAP1 JUMP JUMPDEST PUSH0 PUSH0 REVERT JUMPDEST PUSH0 PUSH4 0xFFFFFFFF DUP3 AND SWAP1 POP SWAP2 SWAP1 POP JUMP JUMPDEST PUSH2 0x23E DUP2 PUSH2 0x226 JUMP JUMPDEST DUP2 EQ PUSH2 0x248 JUMPI PUSH0 PUSH0 REVERT JUMPDEST POP JUMP JUMPDEST PUSH0 DUP2 CALLDATALOAD SWAP1 POP PUSH2 0x259 DUP2 PUSH2 0x235 JUMP JUMPDEST SWAP3 SWAP2 POP POP JUMP JUMPDEST PUSH0 PUSH1 0x20 DUP3 DUP5 SUB SLT ISZERO PUSH2 0x274 JUMPI PUSH2 0x273 PUSH2 0x222 JUMP JUMPDEST JUMPDEST PUSH0 PUSH2 0x281 DUP5 DUP3 DUP6 ADD PUSH2 0x24B JUMP JUMPDEST SWAP2 POP POP SWAP3 SWAP2 POP POP JUMP JUMPDEST PUSH2 0x293 DUP2 PUSH2 0x226 JUMP JUMPDEST DUP3 MSTORE POP POP JUMP JUMPDEST PUSH0 PUSH1 0x20 DUP3 ADD SWAP1 POP PUSH2 0x2AC PUSH0 DUP4 ADD DUP5 PUSH2 0x28A JUMP JUMPDEST SWAP3 SWAP2 POP POP JUMP JUMPDEST PUSH32 0x4E487B7100000000000000000000000000000000000000000000000000000000 PUSH0 MSTORE PUSH1 0x11 PUSH1 0x4 MSTORE PUSH1 0x24 PUSH0 REVERT JUMPDEST PUSH0 PUSH2 0x2E9 DUP3 PUSH2 0x226 JUMP JUMPDEST SWAP2 POP PUSH2 0x2F4 DUP4 PUSH2 0x226 JUMP JUMPDEST SWAP3 POP DUP3 DUP3 SUB SWAP1 POP PUSH4 0xFFFFFFFF DUP2 GT ISZERO PUSH2 0x310 JUMPI PUSH2 0x30F PUSH2 0x2B2 JUMP JUMPDEST JUMPDEST SWAP3 SWAP2 POP POP JUMP JUMPDEST PUSH0 PUSH2 0x320 DUP3 PUSH2 0x226 JUMP JUMPDEST SWAP2 POP PUSH2 0x32B DUP4 PUSH2 0x226 JUMP JUMPDEST SWAP3 POP DUP3 DUP3 MUL PUSH2 0x339 DUP2 PUSH2 0x226 JUMP JUMPDEST SWAP2 POP DUP1 DUP3 EQ PUSH2 0x34B JUMPI PUSH2 0x34A PUSH2 0x2B2 JUMP JUMPDEST JUMPDEST POP SWAP3 SWAP2 POP POP JUMP JUMPDEST PUSH32 0x4E487B7100000000000000000000000000000000000000000000000000000000 PUSH0 MSTORE PUSH1 0x12 PUSH1 0x4 MSTORE PUSH1 0x24 PUSH0 REVERT JUMPDEST PUSH0 PUSH2 0x389 DUP3 PUSH2 0x226 JUMP JUMPDEST SWAP2 POP PUSH2 0x394 DUP4 PUSH2 0x226 JUMP JUMPDEST SWAP3 POP DUP3 PUSH2 0x3A4 JUMPI PUSH2 0x3A3 PUSH2 0x352 JUMP JUMPDEST JUMPDEST DUP3 DUP3 DIV SWAP1 POP SWAP3 SWAP2 POP POP JUMP JUMPDEST PUSH0 PUSH2 0x3B9 DUP3 PUSH2 0x226 JUMP JUMPDEST SWAP2 POP PUSH2 0x3C4 DUP4 PUSH2 0x226 JUMP JUMPDEST SWAP3 POP DUP3 DUP3 ADD SWAP1 POP PUSH4 0xFFFFFFFF DUP2 GT ISZERO PUSH2 0x3E0 JUMPI PUSH2 0x3DF PUSH2 0x2B2 JUMP JUMPDEST JUMPDEST SWAP3 SWAP2 POP POP JUMP INVALID LOG2 PUSH5 0x6970667358 0x22 SLT KECCAK256 DUP3 0xE2 0x28 OR 0xB0 0xD4 CALLDATACOPY CALLDATALOAD INVALID 0xE2 0xAF 0xF 0xD6 GASLIMIT PUSH21 0xC244445973CFF7C3EB9577C5949497680D64736F6C PUSH4 0x4300081E STOP CALLER "
		},
		"gasEstimates": {
			"creation": {
				"codeDepositCost": "210400",
				"executionCost": "infinite",
				"totalCost": "infinite"
			},
			"external": {
				"add(uint32)": "infinite",
				"div(uint32)": "infinite",
				"getNumber()": "2538",
				"mul(uint32)": "infinite",
				"sub(uint32)": "infinite"
			}
		},
		"methodIdentifiers": {
			"add(uint32)": "cbe3a072",
			"div(uint32)": "6b1e99e8",
			"getNumber()": "f2c9ecd8",
			"mul(uint32)": "5600f527",
			"sub(uint32)": "42425987"
		}
	},
	"abi": [
		{
			"inputs": [
				{
					"internalType": "uint32",
					"name": "_initNumber",
					"type": "uint32"
				}
			],
			"stateMutability": "nonpayable",
			"type": "constructor"
		},
		{
			"inputs": [
				{
					"internalType": "uint32",
					"name": "_addNumber",
					"type": "uint32"
				}
			],
			"name": "add",
			"outputs": [],
			"stateMutability": "nonpayable",
			"type": "function"
		},
		{
			"inputs": [
				{
					"internalType": "uint32",
					"name": "_divNumber",
					"type": "uint32"
				}
			],
			"name": "div",
			"outputs": [],
			"stateMutability": "nonpayable",
			"type": "function"
		},
		{
			"inputs": [],
			"name": "getNumber",
			"outputs": [
				{
					"internalType": "uint32",
					"name": "",
					"type": "uint32"
				}
			],
			"stateMutability": "view",
			"type": "function"
		},
		{
			"inputs": [
				{
					"internalType": "uint32",
					"name": "_mulNumber",
					"type": "uint32"
				}
			],
			"name": "mul",
			"outputs": [],
			"stateMutability": "nonpayable",
			"type": "function"
		},
		{
			"inputs": [
				{
					"internalType": "uint32",
					"name": "_subNumber",
					"type": "uint32"
				}
			],
			"name": "sub",
			"outputs": [],
			"stateMutability": "nonpayable",
			"type": "function"
		}
	]
}