{
	"data": {
		"bytecode": {
			"linkReferences": {},
			"object": "6080604052348015600e575f5ffd5b506108688061001c5f395ff3fe608060405234801561000f575f5ffd5b5060043610610034575f3560e01c80632fda437e146100385780638ec4dc9514610054575b5f5ffd5b610052600480360381019061004d9190610422565b610074565b005b61005c61014c565b60405161006b9392919061052a565b60405180910390f35b60405180606001604052808381526020018281526020013373ffffffffffffffffffffffffffffffffffffffff168152505f5f3373ffffffffffffffffffffffffffffffffffffffff1673ffffffffffffffffffffffffffffffffffffffff1681526020019081526020015f205f820151815f0190816100f49190610763565b50602082015181600101556040820151816002015f6101000a81548173ffffffffffffffffffffffffffffffffffffffff021916908373ffffffffffffffffffffffffffffffffffffffff1602179055509050505050565b60605f5f5f5f5f3373ffffffffffffffffffffffffffffffffffffffff1673ffffffffffffffffffffffffffffffffffffffff1681526020019081526020015f206040518060600160405290815f820180546101a790610593565b80601f01602080910402602001604051908101604052809291908181526020018280546101d390610593565b801561021e5780601f106101f55761010080835404028352916020019161021e565b820191905f5260205f20905b81548152906001019060200180831161020157829003601f168201915b5050505050815260200160018201548152602001600282015f9054906101000a900473ffffffffffffffffffffffffffffffffffffffff1673ffffffffffffffffffffffffffffffffffffffff1673ffffffffffffffffffffffffffffffffffffffff16815250509050805f01518160200151826040015193509350935050909192565b5f604051905090565b5f5ffd5b5f5ffd5b5f5ffd5b5f5ffd5b5f601f19601f8301169050919050565b7f4e487b71000000000000000000000000000000000000000000000000000000005f52604160045260245ffd5b610301826102bb565b810181811067ffffffffffffffff821117156103205761031f6102cb565b5b80604052505050565b5f6103326102a2565b905061033e82826102f8565b919050565b5f67ffffffffffffffff82111561035d5761035c6102cb565b5b610366826102bb565b9050602081019050919050565b828183375f83830152505050565b5f61039361038e84610343565b610329565b9050828152602081018484840111156103af576103ae6102b7565b5b6103ba848285610373565b509392505050565b5f82601f8301126103d6576103d56102b3565b5b81356103e6848260208601610381565b91505092915050565b5f819050919050565b610401816103ef565b811461040b575f5ffd5b50565b5f8135905061041c816103f8565b92915050565b5f5f60408385031215610438576104376102ab565b5b5f83013567ffffffffffffffff811115610455576104546102af565b5b610461858286016103c2565b92505060206104728582860161040e565b9150509250929050565b5f81519050919050565b5f82825260208201905092915050565b8281835e5f83830152505050565b5f6104ae8261047c565b6104b88185610486565b93506104c8818560208601610496565b6104d1816102bb565b840191505092915050565b6104e5816103ef565b82525050565b5f73ffffffffffffffffffffffffffffffffffffffff82169050919050565b5f610514826104eb565b9050919050565b6105248161050a565b82525050565b5f6060820190508181035f83015261054281866104a4565b905061055160208301856104dc565b61055e604083018461051b565b949350505050565b7f4e487b71000000000000000000000000000000000000000000000000000000005f52602260045260245ffd5b5f60028204905060018216806105aa57607f821691505b6020821081036105bd576105bc610566565b5b50919050565b5f819050815f5260205f209050919050565b5f6020601f8301049050919050565b5f82821b905092915050565b5f6008830261061f7fffffffffffffffffffffffffffffffffffffffffffffffffffffffffffffffff826105e4565b61062986836105e4565b95508019841693508086168417925050509392505050565b5f819050919050565b5f61066461065f61065a846103ef565b610641565b6103ef565b9050919050565b5f819050919050565b61067d8361064a565b6106916106898261066b565b8484546105f0565b825550505050565b5f5f905090565b6106a8610699565b6106b3818484610674565b505050565b5b818110156106d6576106cb5f826106a0565b6001810190506106b9565b5050565b601f82111561071b576106ec816105c3565b6106f5846105d5565b81016020851015610704578190505b610718610710856105d5565b8301826106b8565b50505b505050565b5f82821c905092915050565b5f61073b5f1984600802610720565b1980831691505092915050565b5f610753838361072c565b9150826002028217905092915050565b61076c8261047c565b67ffffffffffffffff811115610785576107846102cb565b5b61078f8254610593565b61079a8282856106da565b5f60209050601f8311600181146107cb575f84156107b9578287015190505b6107c38582610748565b86555061082a565b601f1984166107d9866105c3565b5f5b82811015610800578489015182556001820191506020850194506020810190506107db565b8683101561081d5784890151610819601f89168261072c565b8355505b6001600288020188555050505b50505050505056fea26469706673582212204cf14aba57d81ad41645704e7cc814aced42af99887284e1b5fdf37681b549d164736f6c634300081e0033",
			"opcodes": "PUSH1 0x80 PUSH1 0x40 MSTORE CALLVALUE DUP1 ISZERO PUSH1 0xE JUMPI PUSH0 PUSH0 REVERT JUMPDEST POP PUSH2 0x868 DUP1 PUSH2 0x1C PUSH0 CODECOPY PUSH0 RETURN INVALID PUSH1 0x80 PUSH1 0x40 MSTORE CALLVALUE DUP1 ISZERO PUSH2 0xF JUMPI PUSH0 PUSH0 REVERT JUMPDEST POP PUSH1 0x4 CALLDATASIZE LT PUSH2 0x34 JUMPI PUSH0 CALLDATALOAD PUSH1 0xE0 SHR DUP1 PUSH4 0x2FDA437E EQ PUSH2 0x38 JUMPI DUP1 PUSH4 0x8EC4DC95 EQ PUSH2 0x54 JUMPI JUMPDEST PUSH0 PUSH0 REVERT JUMPDEST PUSH2 0x52 PUSH1 0x4 DUP1 CALLDATASIZE SUB DUP2 ADD SWAP1 PUSH2 0x4D SWAP2 SWAP1 PUSH2 0x422 JUMP JUMPDEST PUSH2 0x74 JUMP JUMPDEST STOP JUMPDEST PUSH2 0x5C PUSH2 0x14C JUMP JUMPDEST PUSH1 0x40 MLOAD PUSH2 0x6B SWAP4 SWAP3 SWAP2 SWAP1 PUSH2 0x52A JUMP JUMPDEST PUSH1 0x40 MLOAD DUP1 SWAP2 SUB SWAP1 RETURN JUMPDEST PUSH1 0x40 MLOAD DUP1 PUSH1 0x60 ADD PUSH1 0x40 MSTORE DUP1 DUP4 DUP2 MSTORE PUSH1 0x20 ADD DUP3 DUP2 MSTORE PUSH1 0x20 ADD CALLER PUSH20 0xFFFFFFFFFFFFFFFFFFFFFFFFFFFFFFFFFFFFFFFF AND DUP2 MSTORE POP PUSH0 PUSH0 CALLER PUSH20 0xFFFFFFFFFFFFFFFFFFFFFFFFFFFFFFFFFFFFFFFF AND PUSH20 0xFFFFFFFFFFFFFFFFFFFFFFFFFFFFFFFFFFFFFFFF AND DUP2 MSTORE PUSH1 0x20 ADD SWAP1 DUP2 MSTORE PUSH1 0x20 ADD PUSH0 KECCAK256 PUSH0 DUP3 ADD MLOAD DUP2 PUSH0 ADD SWAP1 DUP2 PUSH2 0xF4 SWAP2 SWAP1 PUSH2 0x763 JUMP JUMPDEST POP PUSH1 0x20 DUP3 ADD MLOAD DUP2 PUSH1 0x1 ADD SSTORE PUSH1 0x40 DUP3 ADD MLOAD DUP2 PUSH1 0x2 ADD PUSH0 PUSH2 0x100 EXP DUP2 SLOAD DUP2 PUSH20 0xFFFFFFFFFFFFFFFFFFFFFFFFFFFFFFFFFFFFFFFF MUL NOT AND SWAP1 DUP4 PUSH20 0xFFFFFFFFFFFFFFFFFFFFFFFFFFFFFFFFFFFFFFFF AND MUL OR SWAP1 SSTORE POP SWAP1 POP POP POP POP JUMP JUMPDEST PUSH1 0x60 PUSH0 PUSH0 PUSH0 PUSH0 PUSH0 CALLER PUSH20 0xFFFFFFFFFFFFFFFFFFFFFFFFFFFFFFFFFFFFFFFF AND PUSH20 0xFFFFFFFFFFFFFFFFFFFFFFFFFFFFFFFFFFFFFFFF AND DUP2 MSTORE PUSH1 0x20 ADD SWAP1 DUP2 MSTORE PUSH1 0x20 ADD PUSH0 KECCAK256 PUSH1 0x40 MLOAD DUP1 PUSH1 0x60 ADD PUSH1 0x40 MSTORE SWAP1 DUP2 PUSH0 DUP3 ADD DUP1 SLOAD PUSH2 0x1A7 SWAP1 PUSH2 0x593 JUMP JUMPDEST DUP1 PUSH1 0x1F ADD PUSH1 0x20 DUP1 SWAP2 DIV MUL PUSH1 0x20 ADD PUSH1 0x40 MLOAD SWAP1 DUP2 ADD PUSH1 0x40 MSTORE DUP1 SWAP3 SWAP2 SWAP1 DUP2 DUP2 MSTORE PUSH1 0x20 ADD DUP3 DUP1 SLOAD PUSH2 0x1D3 SWAP1 PUSH2 0x593 JUMP JUMPDEST DUP1 ISZERO PUSH2 0x21E JUMPI DUP1 PUSH1 0x1F LT PUSH2 0x1F5 JUMPI PUSH2 0x100 DUP1 DUP4 SLOAD DIV MUL DUP4 MSTORE SWAP2 PUSH1 0x20 ADD SWAP2 PUSH2 0x21E JUMP JUMPDEST DUP3 ADD SWAP2 SWAP1 PUSH0 MSTORE PUSH1 0x20 PUSH0 KECCAK256 SWAP1 JUMPDEST DUP2 SLOAD DUP2 MSTORE SWAP1 PUSH1 0x1 ADD SWAP1 PUSH1 0x20 ADD DUP1 DUP4 GT PUSH2 0x201 JUMPI DUP3 SWAP1 SUB PUSH1 0x1F AND DUP3 ADD SWAP2 JUMPDEST POP POP POP POP POP DUP2 MSTORE PUSH1 0x20 ADD PUSH1 0x1 DUP3 ADD SLOAD DUP2 MSTORE PUSH1 0x20 ADD PUSH1 0x2 DUP3 ADD PUSH0 SWAP1 SLOAD SWAP1 PUSH2 0x100 EXP SWAP1 DIV PUSH20 0xFFFFFFFFFFFFFFFFFFFFFFFFFFFFFFFFFFFFFFFF AND PUSH20 0xFFFFFFFFFFFFFFFFFFFFFFFFFFFFFFFFFFFFFFFF AND PUSH20 0xFFFFFFFFFFFFFFFFFFFFFFFFFFFFFFFFFFFFFFFF AND DUP2 MSTORE POP POP SWAP1 POP DUP1 PUSH0 ADD MLOAD DUP2 PUSH1 0x20 ADD MLOAD DUP3 PUSH1 0x40 ADD MLOAD SWAP4 POP SWAP4 POP SWAP4 POP POP SWAP1 SWAP2 SWAP3 JUMP JUMPDEST PUSH0 PUSH1 0x40 MLOAD SWAP1 POP SWAP1 JUMP JUMPDEST PUSH0 PUSH0 REVERT JUMPDEST PUSH0 PUSH0 REVERT JUMPDEST PUSH0 PUSH0 REVERT JUMPDEST PUSH0 PUSH0 REVERT JUMPDEST PUSH0 PUSH1 0x1F NOT PUSH1 0x1F DUP4 ADD AND SWAP1 POP SWAP2 SWAP1 POP JUMP JUMPDEST PUSH32 0x4E487B7100000000000000000000000000000000000000000000000000000000 PUSH0 MSTORE PUSH1 0x41 PUSH1 0x4 MSTORE PUSH1 0x24 PUSH0 REVERT JUMPDEST PUSH2 0x301 DUP3 PUSH2 0x2BB JUMP JUMPDEST DUP2 ADD DUP2 DUP2 LT PUSH8 0xFFFFFFFFFFFFFFFF DUP3 GT OR ISZERO PUSH2 0x320 JUMPI PUSH2 0x31F PUSH2 0x2CB JUMP JUMPDEST JUMPDEST DUP1 PUSH1 0x40 MSTORE POP POP POP JUMP JUMPDEST PUSH0 PUSH2 0x332 PUSH2 0x2A2 JUMP JUMPDEST SWAP1 POP PUSH2 0x33E DUP3 DUP3 PUSH2 0x2F8 JUMP JUMPDEST SWAP2 SWAP1 POP JUMP JUMPDEST PUSH0 PUSH8 0xFFFFFFFFFFFFFFFF DUP3 GT ISZERO PUSH2 0x35D JUMPI PUSH2 0x35C PUSH2 0x2CB JUMP JUMPDEST JUMPDEST PUSH2 0x366 DUP3 PUSH2 0x2BB JUMP JUMPDEST SWAP1 POP PUSH1 0x20 DUP2 ADD SWAP1 POP SWAP2 SWAP1 POP JUMP JUMPDEST DUP3 DUP2 DUP4 CALLDATACOPY PUSH0 DUP4 DUP4 ADD MSTORE POP POP POP JUMP JUMPDEST PUSH0 PUSH2 0x393 PUSH2 0x38E DUP5 PUSH2 0x343 JUMP JUMPDEST PUSH2 0x329 JUMP JUMPDEST SWAP1 POP DUP3 DUP2 MSTORE PUSH1 0x20 DUP2 ADD DUP5 DUP5 DUP5 ADD GT ISZERO PUSH2 0x3AF JUMPI PUSH2 0x3AE PUSH2 0x2B7 JUMP JUMPDEST JUMPDEST PUSH2 0x3BA DUP5 DUP3 DUP6 PUSH2 0x373 JUMP JUMPDEST POP SWAP4 SWAP3 POP POP POP JUMP JUMPDEST PUSH0 DUP3 PUSH1 0x1F DUP4 ADD SLT PUSH2 0x3D6 JUMPI PUSH2 0x3D5 PUSH2 0x2B3 JUMP JUMPDEST JUMPDEST DUP2 CALLDATALOAD PUSH2 0x3E6 DUP5 DUP3 PUSH1 0x20 DUP7 ADD PUSH2 0x381 JUMP JUMPDEST SWAP2 POP POP SWAP3 SWAP2 POP POP JUMP JUMPDEST PUSH0 DUP2 SWAP1 POP SWAP2 SWAP1 POP JUMP JUMPDEST PUSH2 0x401 DUP2 PUSH2 0x3EF JUMP JUMPDEST DUP2 EQ PUSH2 0x40B JUMPI PUSH0 PUSH0 REVERT JUMPDEST POP JUMP JUMPDEST PUSH0 DUP2 CALLDATALOAD SWAP1 POP PUSH2 0x41C DUP2 PUSH2 0x3F8 JUMP JUMPDEST SWAP3 SWAP2 POP POP JUMP JUMPDEST PUSH0 PUSH0 PUSH1 0x40 DUP4 DUP6 SUB SLT ISZERO PUSH2 0x438 JUMPI PUSH2 0x437 PUSH2 0x2AB JUMP JUMPDEST JUMPDEST PUSH0 DUP4 ADD CALLDATALOAD PUSH8 0xFFFFFFFFFFFFFFFF DUP2 GT ISZERO PUSH2 0x455 JUMPI PUSH2 0x454 PUSH2 0x2AF JUMP JUMPDEST JUMPDEST PUSH2 0x461 DUP6 DUP3 DUP7 ADD PUSH2 0x3C2 JUMP JUMPDEST SWAP3 POP POP PUSH1 0x20 PUSH2 0x472 DUP6 DUP3 DUP7 ADD PUSH2 0x40E JUMP JUMPDEST SWAP2 POP POP SWAP3 POP SWAP3 SWAP1 POP JUMP JUMPDEST PUSH0 DUP2 MLOAD SWAP1 POP SWAP2 SWAP1 POP JUMP JUMPDEST PUSH0 DUP3 DUP3 MSTORE PUSH1 0x20 DUP3 ADD SWAP1 POP SWAP3 SWAP2 POP POP JUMP JUMPDEST DUP3 DUP2 DUP4 MCOPY PUSH0 DUP4 DUP4 ADD MSTORE POP POP POP JUMP JUMPDEST PUSH0 PUSH2 0x4AE DUP3 PUSH2 0x47C JUMP JUMPDEST PUSH2 0x4B8 DUP2 DUP6 PUSH2 0x486 JUMP JUMPDEST SWAP4 POP PUSH2 0x4C8 DUP2 DUP6 PUSH1 0x20 DUP7 ADD PUSH2 0x496 JUMP JUMPDEST PUSH2 0x4D1 DUP2 PUSH2 0x2BB JUMP JUMPDEST DUP5 ADD SWAP2 POP POP SWAP3 SWAP2 POP POP JUMP JUMPDEST PUSH2 0x4E5 DUP2 PUSH2 0x3EF JUMP JUMPDEST DUP3 MSTORE POP POP JUMP JUMPDEST PUSH0 PUSH20 0xFFFFFFFFFFFFFFFFFFFFFFFFFFFFFFFFFFFFFFFF DUP3 AND SWAP1 POP SWAP2 SWAP1 POP JUMP JUMPDEST PUSH0 PUSH2 0x514 DUP3 PUSH2 0x4EB JUMP JUMPDEST SWAP1 POP SWAP2 SWAP1 POP JUMP JUMPDEST PUSH2 0x524 DUP2 PUSH2 0x50A JUMP JUMPDEST DUP3 MSTORE POP POP JUMP JUMPDEST PUSH0 PUSH1 0x60 DUP3 ADD SWAP1 POP DUP2 DUP2 SUB PUSH0 DUP4 ADD MSTORE PUSH2 0x542 DUP2 DUP7 PUSH2 0x4A4 JUMP JUMPDEST SWAP1 POP PUSH2 0x551 PUSH1 0x20 DUP4 ADD DUP6 PUSH2 0x4DC JUMP JUMPDEST PUSH2 0x55E PUSH1 0x40 DUP4 ADD DUP5 PUSH2 0x51B JUMP JUMPDEST SWAP5 SWAP4 POP POP POP POP JUMP JUMPDEST PUSH32 0x4E487B7100000000000000000000000000000000000000000000000000000000 PUSH0 MSTORE PUSH1 0x22 PUSH1 0x4 MSTORE PUSH1 0x24 PUSH0 REVERT JUMPDEST PUSH0 PUSH1 0x2 DUP3 DIV SWAP1 POP PUSH1 0x1 DUP3 AND DUP1 PUSH2 0x5AA JUMPI PUSH1 0x7F DUP3 AND SWAP2 POP JUMPDEST PUSH1 0x20 DUP3 LT DUP2 SUB PUSH2 0x5BD JUMPI PUSH2 0x5BC PUSH2 0x566 JUMP JUMPDEST JUMPDEST POP SWAP2 SWAP1 POP JUMP JUMPDEST PUSH0 DUP2 SWAP1 POP DUP2 PUSH0 MSTORE PUSH1 0x20 PUSH0 KECCAK256 SWAP1 POP SWAP2 SWAP1 POP JUMP JUMPDEST PUSH0 PUSH1 0x20 PUSH1 0x1F DUP4 ADD DIV SWAP1 POP SWAP2 SWAP1 POP JUMP JUMPDEST PUSH0 DUP3 DUP3 SHL SWAP1 POP SWAP3 SWAP2 POP POP JUMP JUMPDEST PUSH0 PUSH1 0x8 DUP4 MUL PUSH2 0x61F PUSH32 0xFFFFFFFFFFFFFFFFFFFFFFFFFFFFFFFFFFFFFFFFFFFFFFFFFFFFFFFFFFFFFFFF DUP3 PUSH2 0x5E4 JUMP JUMPDEST PUSH2 0x629 DUP7 DUP4 PUSH2 0x5E4 JUMP JUMPDEST SWAP6 POP DUP1 NOT DUP5 AND SWAP4 POP DUP1 DUP7 AND DUP5 OR SWAP3 POP POP POP SWAP4 SWAP3 POP POP POP JUMP JUMPDEST PUSH0 DUP2 SWAP1 POP SWAP2 SWAP1 POP JUMP JUMPDEST PUSH0 PUSH2 0x664 PUSH2 0x65F PUSH2 0x65A DUP5 PUSH2 0x3EF JUMP JUMPDEST PUSH2 0x641 JUMP JUMPDEST PUSH2 0x3EF JUMP JUMPDEST SWAP1 POP SWAP2 SWAP1 POP JUMP JUMPDEST PUSH0 DUP2 SWAP1 POP SWAP2 SWAP1 POP JUMP JUMPDEST PUSH2 0x67D DUP4 PUSH2 0x64A JUMP JUMPDEST PUSH2 0x691 PUSH2 0x689 DUP3 PUSH2 0x66B JUMP JUMPDEST DUP5 DUP5 SLOAD PUSH2 0x5F0 JUMP JUMPDEST DUP3 SSTORE POP POP POP POP JUMP JUMPDEST PUSH0 PUSH0 SWAP1 POP SWAP1 JUMP JUMPDEST PUSH2 0x6A8 PUSH2 0x699 JUMP JUMPDEST PUSH2 0x6B3 DUP2 DUP5 DUP5 PUSH2 0x674 JUMP JUMPDEST POP POP POP JUMP JUMPDEST JUMPDEST DUP2 DUP2 LT ISZERO PUSH2 0x6D6 JUMPI PUSH2 0x6CB PUSH0 DUP3 PUSH2 0x6A0 JUMP JUMPDEST PUSH1 0x1 DUP2 ADD SWAP1 POP PUSH2 0x6B9 JUMP JUMPDEST POP POP JUMP JUMPDEST PUSH1 0x1F DUP3 GT ISZERO PUSH2 0x71B JUMPI PUSH2 0x6EC DUP2 PUSH2 0x5C3 JUMP JUMPDEST PUSH2 0x6F5 DUP5 PUSH2 0x5D5 JUMP JUMPDEST DUP2 ADD PUSH1 0x20 DUP6 LT ISZERO PUSH2 0x704 JUMPI DUP2 SWAP1 POP JUMPDEST PUSH2 0x718 PUSH2 0x710 DUP6 PUSH2 0x5D5 JUMP JUMPDEST DUP4 ADD DUP3 PUSH2 0x6B8 JUMP JUMPDEST POP POP JUMPDEST POP POP POP JUMP JUMPDEST PUSH0 DUP3 DUP3 SHR SWAP1 POP SWAP3 SWAP2 POP POP JUMP JUMPDEST PUSH0 PUSH2 0x73B PUSH0 NOT DUP5 PUSH1 0x8 MUL PUSH2 0x720 JUMP JUMPDEST NOT DUP1 DUP4 AND SWAP2 POP POP SWAP3 SWAP2 POP POP JUMP JUMPDEST PUSH0 PUSH2 0x753 DUP4 DUP4 PUSH2 0x72C JUMP JUMPDEST SWAP2 POP DUP3 PUSH1 0x2 MUL DUP3 OR SWAP1 POP SWAP3 SWAP2 POP POP JUMP JUMPDEST PUSH2 0x76C DUP3 PUSH2 0x47C JUMP JUMPDEST PUSH8 0xFFFFFFFFFFFFFFFF DUP2 GT ISZERO PUSH2 0x785 JUMPI PUSH2 0x784 PUSH2 0x2CB JUMP JUMPDEST JUMPDEST PUSH2 0x78F DUP3 SLOAD PUSH2 0x593 JUMP JUMPDEST PUSH2 0x79A DUP3 DUP3 DUP6 PUSH2 0x6DA JUMP JUMPDEST PUSH0 PUSH1 0x20 SWAP1 POP PUSH1 0x1F DUP4 GT PUSH1 0x1 DUP2 EQ PUSH2 0x7CB JUMPI PUSH0 DUP5 ISZERO PUSH2 0x7B9 JUMPI DUP3 DUP8 ADD MLOAD SWAP1 POP JUMPDEST PUSH2 0x7C3 DUP6 DUP3 PUSH2 0x748 JUMP JUMPDEST DUP7 SSTORE POP PUSH2 0x82A JUMP JUMPDEST PUSH1 0x1F NOT DUP5 AND PUSH2 0x7D9 DUP7 PUSH2 0x5C3 JUMP JUMPDEST PUSH0 JUMPDEST DUP3 DUP2 LT ISZERO PUSH2 0x800 JUMPI DUP5 DUP10 ADD MLOAD DUP3 SSTORE PUSH1 0x1 DUP3 ADD SWAP2 POP PUSH1 0x20 DUP6 ADD SWAP5 POP PUSH1 0x20 DUP2 ADD SWAP1 POP PUSH2 0x7DB JUMP JUMPDEST DUP7 DUP4 LT ISZERO PUSH2 0x81D JUMPI DUP5 DUP10 ADD MLOAD PUSH2 0x819 PUSH1 0x1F DUP10 AND DUP3 PUSH2 0x72C JUMP JUMPDEST DUP4 SSTORE POP JUMPDEST PUSH1 0x1 PUSH1 0x2 DUP9 MUL ADD DUP9 SSTORE POP POP POP JUMPDEST POP POP POP POP POP POP JUMP INVALID LOG2 PUSH5 0x6970667358 0x22 SLT KECCAK256 0x4C CALL BLOBBASEFEE 0xBA JUMPI 0xD8 BYTE 0xD4 AND GASLIMIT PUSH17 0x4E7CC814ACED42AF99887284E1B5FDF376 DUP2 0xB5 BLOBHASH DATALOADN 0x6473 PUSH16 0x6C634300081E00330000000000000000 "
		},
		"gasEstimates": {
			"creation": {
				"codeDepositCost": "430400",
				"executionCost": "466",
				"totalCost": "430866"
			},
			"external": {
				"getPerson()": "infinite",
				"setPerson(string,uint256)": "infinite"
			}
		},
		"methodIdentifiers": {
			"getPerson()": "8ec4dc95",
			"setPerson(string,uint256)": "2fda437e"
		}
	},
	"abi": [
		{
			"inputs": [],
			"name": "getPerson",
			"outputs": [
				{
					"internalType": "string",
					"name": "",
					"type": "string"
				},
				{
					"internalType": "uint256",
					"name": "",
					"type": "uint256"
				},
				{
					"internalType": "address",
					"name": "",
					"type": "address"
				}
			],
			"stateMutability": "view",
			"type": "function"
		},
		{
			"inputs": [
				{
					"internalType": "string",
					"name": "_name",
					"type": "string"
				},
				{
					"internalType": "uint256",
					"name": "_age",
					"type": "uint256"
				}
			],
			"name": "setPerson",
			"outputs": [],
			"stateMutability": "nonpayable",
			"type": "function"
		}
	]
}